Component: ARM Compiler 5.06 update 6 (build 750) Tool: armlink [4d35ed]

==============================================================================

Section Cross References

    main.o(i.SysTick_Handler) refers to b_hal.o(i.bHalIncSysTick) for bHalIncSysTick
    main.o(i.TestParamF) refers to main.o(.data) for .data
    main.o(i.USART1_IRQHandler) refers to stm32f10x_usart.o(i.USART_GetITStatus) for USART_GetITStatus
    main.o(i.USART1_IRQHandler) refers to stm32f10x_usart.o(i.USART_ClearITPendingBit) for USART_ClearITPendingBit
    main.o(i.USART1_IRQHandler) refers to stm32f10x_usart.o(i.USART_ReceiveData) for USART_ReceiveData
    main.o(i.USART1_IRQHandler) refers to b_mod_shell.o(i.bShellParse) for bShellParse
    main.o(i.main) refers to board.o(i.BoardInit) for BoardInit
    main.o(i.main) refers to main.o(i.NVIC_SetPriority) for NVIC_SetPriority
    main.o(i.main) refers to b_core.o(i.bInit) for bInit
    main.o(i.main) refers to b_mod_shell.o(i.bShellInit) for bShellInit
    main.o(i.main) refers to b_core.o(i.bExec) for bExec
    main.o(i.main) refers to b_hal.o(i.bHalGetSysTick) for bHalGetSysTick
    main.o(i.main) refers to main.o(i.TestParamF) for TestParamF
    main.o(i.main) refers to system_stm32f10x.o(.data) for SystemCoreClock
    main.o(i.main) refers to main.o(.data) for .data
    main.o(b_mod_param) refers to main.o(.conststrlit) for .conststrlit
    main.o(b_mod_param) refers to main.o(.data) for TestTick
    stm32f10x_adc.o(i.ADC_DeInit) refers to stm32f10x_rcc.o(i.RCC_APB2PeriphResetCmd) for RCC_APB2PeriphResetCmd
==============================================================================

Removing Unused input sections from the image.

    Removing misc.o(i.NVIC_SetVectorTable), (20 bytes).
    Removing misc.o(i.NVIC_SystemLPConfig), (24 bytes).
    Removing misc.o(i.SysTick_CLKSourceConfig), (24 bytes).
    Removing stm32f10x_adc.o(i.ADC_AnalogWatchdogCmd), (16 bytes).
    Removing stm32f10x_adc.o(i.ADC_AnalogWatchdogSingleChannelConfig), (12 bytes).
    Removing stm32f10x_adc.o(i.ADC_AnalogWatchdogThresholdsConfig), (6 bytes).
    Removing stm32f10x_adc.o(i.ADC_AutoInjectedConvCmd), (20 bytes).
    Removing stm32f10x_adc.o(i.ADC_ClearFlag), (6 bytes).
    Removing stm32f10x_adc.o(i.ADC_ClearITPendingBit), (8 bytes).
    Removing stm32f10x_adc.o(i.ADC_DMACmd), (20 bytes).
    Removing stm32f10x_adc.o(i.ADC_DeInit), (68 bytes).
    Removing stm32f10x_adc.o(i.ADC_DiscModeChannelCountConfig), (16 bytes).
    Removing stm32f10x_adc.o(i.ADC_DiscModeCmd), (20 bytes).
    Removing stm32f10x_adc.o(i.ADC_ExternalTrigConvCmd), (20 bytes).
    Removing stm32f10x_adc.o(i.ADC_GetCalibrationStatus), (14 bytes).
    Removing stm32f10x_adc.o(i.ADC_GetConversionValue), (6 bytes).
    Removing stm32f10x_adc.o(i.ADC_GetDualModeConversionValue), (12 bytes).
    Removing stm32f10x_adc.o(i.ADC_GetFlagStatus), (14 bytes).
==============================================================================

Image Symbol Table

    Local Symbols

    Symbol Name                              Value     Ov Type        Size  Object(Section)

    ../clib/microlib/ctype/ctype.c           0x00000000   Number         0  isdigit_o.o ABSOLUTE
    ../clib/microlib/ctype/ctype.c           0x00000000   Number         0  ispunct_o.o ABSOLUTE
    ../clib/microlib/ctype/ctype.c           0x00000000   Number         0  isblank_o.o ABSOLUTE
    ../clib/microlib/ctype/ctype.c           0x00000000   Number         0  isalnum_o.o ABSOLUTE
    ../clib/microlib/ctype/ctype.c           0x00000000   Number         0  isgraph_o.o ABSOLUTE
    ../clib/microlib/ctype/ctype.c           0x00000000   Number         0  iscntrl_o.o ABSOLUTE
    ../clib/microlib/ctype/ctype.c           0x00000000   Number         0  isxdigit_o.o ABSOLUTE
    ../clib/microlib/ctype/ctype.c           0x00000000   Number         0  isupper_o.o ABSOLUTE
    ../clib/microlib/ctype/ctype.c           0x00000000   Number         0  isspace_o.o ABSOLUTE
    ../clib/microlib/ctype/ctype.c           0x00000000   Number         0  islower_o.o ABSOLUTE
    ../clib/microlib/ctype/ctype.c           0x00000000   Number         0  ctype_o.o ABSOLUTE
    ../clib/microlib/ctype/ctype.c           0x00000000   Number         0  isprint_o.o ABSOLUTE
    ../clib/microlib/ctype/ctype.c           0x00000000   Number         0  isalpha_o.o ABSOLUTE
    ../clib/microlib/division.c              0x00000000   Number         0  uidiv.o ABSOLUTE
    ../clib/microlib/division.c              0x00000000   Number         0  uldiv.o ABSOLUTE
    ../clib/microlib/errno.c                 0x00000000   Number         0  errno.o ABSOLUTE
    ../clib/microlib/init/entry.s            0x00000000   Number         0  entry5.o ABSOLUTE
    ../clib/microlib/init/entry.s            0x00000000   Number         0  entry7a.o ABSOLUTE
    ../clib/microlib/init/entry.s            0x00000000   Number         0  entry7b.o ABSOLUTE
    ../clib/microlib/init/entry.s            0x00000000   Number         0  entry8b.o ABSOLUTE
    ../clib/microlib/init/entry.s            0x00000000   Number         0  entry9a.o ABSOLUTE
    ../clib/microlib/init/entry.s            0x00000000   Number         0  entry9b.o ABSOLUTE
    ../clib/microlib/init/entry.s            0x00000000   Number         0  entry10a.o ABSOLUTE
    ../clib/microlib/init/entry.s            0x00000000   Number         0  entry10b.o ABSOLUTE
    ../clib/microlib/init/entry.s            0x00000000   Number         0  entry11b.o ABSOLUTE
    ../clib/microlib/init/entry.s            0x00000000   Number         0  entry11a.o ABSOLUTE
    ../clib/microlib/init/entry.s            0x00000000   Number         0  entry.o ABSOLUTE
    ../clib/microlib/init/entry.s            0x00000000   Number         0  entry2.o ABSOLUTE
    ../clib/microlib/init/entry.s            0x00000000   Number         0  entry8a.o ABSOLUTE
    ../clib/microlib/longlong.c              0x00000000   Number         0  llshl.o ABSOLUTE
    ../clib/microlib/longlong.c              0x00000000   Number         0  llsshr.o ABSOLUTE
    ../clib/microlib/longlong.c              0x00000000   Number         0  llushr.o ABSOLUTE
    ../clib/microlib/printf/printf.c         0x00000000   Number         0  printf2.o ABSOLUTE
    ../clib/microlib/printf/printf.c         0x00000000   Number         0  printf1.o ABSOLUTE
    ../clib/microlib/printf/printf.c         0x00000000   Number         0  printf0.o ABSOLUTE
    ../clib/microlib/printf/printf.c         0x00000000   Number         0  printf4.o ABSOLUTE
    ../clib/microlib/printf/printf.c         0x00000000   Number         0  printf6.o ABSOLUTE
    ../clib/microlib/printf/printf.c         0x00000000   Number         0  printf7.o ABSOLUTE
    ../clib/microlib/printf/printf.c         0x00000000   Number         0  printf8.o ABSOLUTE
    ../clib/microlib/printf/printf.c         0x00000000   Number         0  printfa.o ABSOLUTE
    ../clib/microlib/printf/printf.c         0x00000000   Number         0  printf3.o ABSOLUTE
    ../clib/microlib/printf/printf.c         0x00000000   Number         0  printfb.o ABSOLUTE
    ../clib/microlib/printf/printf.c         0x00000000   Number         0  printf5.o ABSOLUTE
    ../clib/microlib/printf/stubs.s          0x00000000   Number         0  stubs.o ABSOLUTE
    ../clib/microlib/stdio/streams.c         0x00000000   Number         0  stdout.o ABSOLUTE
    ../clib/microlib/string/memcpy.c         0x00000000   Number         0  memcpyb.o ABSOLUTE
    ../clib/microlib/string/memcpy.c         0x00000000   Number         0  memcpya.o ABSOLUTE
    ../clib/microlib/string/memset.c         0x00000000   Number         0  memseta.o ABSOLUTE
    ../clib/microlib/string/strcmp.c         0x00000000   Number         0  strcmp.o ABSOLUTE
    ../clib/microlib/string/strcpy.c         0x00000000   Number         0  strcpy.o ABSOLUTE
    ../clib/microlib/string/strlen.c         0x00000000   Number         0  strlen.o ABSOLUTE
    ../clib/microlib/string/strstr.c         0x00000000   Number         0  strstr.o ABSOLUTE
    ../clib/microlib/stubs.s                 0x00000000   Number         0  iusefp.o ABSOLUTE
    ../clib/scanf.c                          0x00000000   Number         0  strtol.o ABSOLUTE
    ../clib/scanf.c                          0x00000000   Number         0  atoi.o ABSOLUTE
    ../clib/scanf.c                          0x00000000   Number         0  _strtoul.o ABSOLUTE
    ../clib/scanf.c                          0x00000000   Number         0  _chval.o ABSOLUTE
    ../fplib/microlib/fpadd.c                0x00000000   Number         0  dadd.o ABSOLUTE
    ../fplib/microlib/fpdiv.c                0x00000000   Number         0  ddiv.o ABSOLUTE
    ../fplib/microlib/fpepilogue.c           0x00000000   Number         0  depilogue.o ABSOLUTE
    ../fplib/microlib/fpfix.c                0x00000000   Number         0  dfixul.o ABSOLUTE
    ../fplib/microlib/fpfix.c                0x00000000   Number         0  dfixui.o ABSOLUTE
    ../fplib/microlib/fpflt.c                0x00000000   Number         0  dfltui.o ABSOLUTE
    ../fplib/microlib/fpmul.c                0x00000000   Number         0  dmul.o ABSOLUTE
    ..\..\..\..\Libraries\CMSIS\CM3\CoreSupport\core_cm3.c 0x00000000   Number         0  core_cm3.o ABSOLUTE
    ..\..\..\..\Libraries\CMSIS\CM3\DeviceSupport\ST\STM32F10x\startup\arm\startup_stm32f10x_cl.s 0x00000000   Number         0  startup_stm32f10x_cl.o ABSOLUTE
    ..\..\..\..\Libraries\CMSIS\CM3\DeviceSupport\ST\STM32F10x\system_stm32f10x.c 0x00000000   Number         0  system_stm32f10x.o ABSOLUTE
    ..\..\..\..\Libraries\STM32F10x_StdPeriph_Driver\src\misc.c 0x00000000   Number         0  misc.o ABSOLUTE
    ..\..\..\..\Libraries\STM32F10x_StdPeriph_Driver\src\stm32f10x_adc.c 0x00000000   Number         0  stm32f10x_adc.o ABSOLUTE
    ..\..\..\..\Libraries\STM32F10x_StdPeriph_Driver\src\stm32f10x_bkp.c 0x00000000   Number         0  stm32f10x_bkp.o ABSOLUTE
    ..\..\..\..\Libraries\STM32F10x_StdPeriph_Driver\src\stm32f10x_can.c 0x00000000   Number         0  stm32f10x_can.o ABSOLUTE
    ..\..\..\..\Libraries\STM32F10x_StdPeriph_Driver\src\stm32f10x_cec.c 0x00000000   Number         0  stm32f10x_cec.o ABSOLUTE
    ..\..\..\..\Libraries\STM32F10x_StdPeriph_Driver\src\stm32f10x_crc.c 0x00000000   Number         0  stm32f10x_crc.o ABSOLUTE
    ..\..\..\..\Libraries\STM32F10x_StdPeriph_Driver\src\stm32f10x_dac.c 0x00000000   Number         0  stm32f10x_dac.o ABSOLUTE
    ..\..\..\..\Libraries\STM32F10x_StdPeriph_Driver\src\stm32f10x_dbgmcu.c 0x00000000   Number         0  stm32f10x_dbgmcu.o ABSOLUTE
    ..\..\..\..\Libraries\STM32F10x_StdPeriph_Driver\src\stm32f10x_dma.c 0x00000000   Number         0  stm32f10x_dma.o ABSOLUTE
    ..\..\..\..\Libraries\STM32F10x_StdPeriph_Driver\src\stm32f10x_exti.c 0x00000000   Number         0  stm32f10x_exti.o ABSOLUTE
    ..\..\..\..\Libraries\STM32F10x_StdPeriph_Driver\src\stm32f10x_flash.c 0x00000000   Number         0  stm32f10x_flash.o ABSOLUTE
    ..\..\..\..\Libraries\STM32F10x_StdPeriph_Driver\src\stm32f10x_fsmc.c 0x00000000   Number         0  stm32f10x_fsmc.o ABSOLUTE
    ..\..\..\..\Libraries\STM32F10x_StdPeriph_Driver\src\stm32f10x_gpio.c 0x00000000   Number         0  stm32f10x_gpio.o ABSOLUTE
    ..\..\..\..\Libraries\STM32F10x_StdPeriph_Driver\src\stm32f10x_i2c.c 0x00000000   Number         0  stm32f10x_i2c.o ABSOLUTE
    ..\..\..\..\Libraries\STM32F10x_StdPeriph_Driver\src\stm32f10x_iwdg.c 0x00000000   Number         0  stm32f10x_iwdg.o ABSOLUTE
    ..\..\..\..\Libraries\STM32F10x_StdPeriph_Driver\src\stm32f10x_pwr.c 0x00000000   Number         0  stm32f10x_pwr.o ABSOLUTE
    ..\..\..\..\Libraries\STM32F10x_StdPeriph_Driver\src\stm32f10x_rcc.c 0x00000000   Number         0  stm32f10x_rcc.o ABSOLUTE
    ..\..\..\..\Libraries\STM32F10x_StdPeriph_Driver\src\stm32f10x_rtc.c 0x00000000   Number         0  stm32f10x_rtc.o ABSOLUTE
    ..\..\..\..\Libraries\STM32F10x_StdPeriph_Driver\src\stm32f10x_sdio.c 0x00000000   Number         0  stm32f10x_sdio.o ABSOLUTE
    ..\..\..\..\Libraries\STM32F10x_StdPeriph_Driver\src\stm32f10x_spi.c 0x00000000   Number         0  stm32f10x_spi.o ABSOLUTE
    ..\..\..\..\Libraries\STM32F10x_StdPeriph_Driver\src\stm32f10x_tim.c 0x00000000   Number         0  stm32f10x_tim.o ABSOLUTE
    ..\..\..\..\Libraries\STM32F10x_StdPeriph_Driver\src\stm32f10x_usart.c 0x00000000   Number         0  stm32f10x_usart.o ABSOLUTE
    ..\..\..\..\Libraries\STM32F10x_StdPeriph_Driver\src\stm32f10x_wwdg.c 0x00000000   Number         0  stm32f10x_wwdg.o ABSOLUTE
    ..\..\..\..\babyos\bos\core\b_core.c     0x00000000   Number         0  b_core.o ABSOLUTE
    ..\..\..\..\babyos\bos\core\b_device.c   0x00000000   Number         0  b_device.o ABSOLUTE
    ..\..\..\..\babyos\bos\hal\b_hal.c       0x00000000   Number         0  b_hal.o ABSOLUTE
    ..\..\..\..\babyos\bos\hal\b_hal_flash.c 0x00000000   Number         0  b_hal_flash.o ABSOLUTE
    ..\..\..\..\babyos\bos\hal\b_hal_gpio.c  0x00000000   Number         0  b_hal_gpio.o ABSOLUTE
    ..\..\..\..\babyos\bos\hal\b_hal_i2c.c   0x00000000   Number         0  b_hal_i2c.o ABSOLUTE
    ..\..\..\..\babyos\bos\hal\b_hal_it.c    0x00000000   Number         0  b_hal_it.o ABSOLUTE
    ..\..\..\..\babyos\bos\hal\b_hal_qspi.c  0x00000000   Number         0  b_hal_qspi.o ABSOLUTE
    ..\..\..\..\babyos\bos\hal\b_hal_spi.c   0x00000000   Number         0  b_hal_spi.o ABSOLUTE
    ..\..\..\..\babyos\bos\hal\b_hal_uart.c  0x00000000   Number         0  b_hal_uart.o ABSOLUTE
    ..\..\..\..\babyos\bos\mcu\st\stm32f10x\mcu_stm32f10x_flash.c 0x00000000   Number         0  mcu_stm32f10x_flash.o ABSOLUTE
    ..\..\..\..\babyos\bos\mcu\st\stm32f10x\mcu_stm32f10x_gpio.c 0x00000000   Number         0  mcu_stm32f10x_gpio.o ABSOLUTE
    ..\..\..\..\babyos\bos\mcu\st\stm32f10x\mcu_stm32f10x_i2c.c 0x00000000   Number         0  mcu_stm32f10x_i2c.o ABSOLUTE
    ..\..\..\..\babyos\bos\mcu\st\stm32f10x\mcu_stm32f10x_it.c 0x00000000   Number         0  mcu_stm32f10x_it.o ABSOLUTE
    ..\..\..\..\babyos\bos\mcu\st\stm32f10x\mcu_stm32f10x_spi.c 0x00000000   Number         0  mcu_stm32f10x_spi.o ABSOLUTE
    ..\..\..\..\babyos\bos\mcu\st\stm32f10x\mcu_stm32f10x_uart.c 0x00000000   Number         0  mcu_stm32f10x_uart.o ABSOLUTE
    ..\..\..\..\babyos\bos\modules\b_mod_adchub.c 0x00000000   Number         0  b_mod_adchub.o ABSOLUTE
    ..\..\..\..\babyos\bos\modules\b_mod_button.c 0x00000000   Number         0  b_mod_button.o ABSOLUTE
    ..\..\..\..\babyos\bos\modules\b_mod_error.c 0x00000000   Number         0  b_mod_error.o ABSOLUTE
    ..\..\..\..\babyos\bos\modules\b_mod_fs.c 0x00000000   Number         0  b_mod_fs.o ABSOLUTE
    ..\..\..\..\babyos\bos\modules\b_mod_gui.c 0x00000000   Number         0  b_mod_gui.o ABSOLUTE
    ..\..\..\..\babyos\bos\modules\b_mod_kv.c 0x00000000   Number         0  b_mod_kv.o ABSOLUTE
    ..\..\..\..\babyos\bos\modules\b_mod_menu.c 0x00000000   Number         0  b_mod_menu.o ABSOLUTE
    ..\..\..\..\babyos\bos\modules\b_mod_modbus.c 0x00000000   Number         0  b_mod_modbus.o ABSOLUTE
    ..\..\..\..\babyos\bos\modules\b_mod_param.c 0x00000000   Number         0  b_mod_param.o ABSOLUTE
    ..\..\..\..\babyos\bos\modules\b_mod_protocol.c 0x00000000   Number         0  b_mod_protocol.o ABSOLUTE
    ..\..\..\..\babyos\bos\modules\b_mod_pwm.c 0x00000000   Number         0  b_mod_pwm.o ABSOLUTE
    ..\..\..\..\babyos\bos\modules\b_mod_shell.c 0x00000000   Number         0  b_mod_shell.o ABSOLUTE
    ..\..\..\..\babyos\bos\modules\b_mod_timer.c 0x00000000   Number         0  b_mod_timer.o ABSOLUTE
    ..\..\..\..\babyos\bos\modules\b_mod_trace.c 0x00000000   Number         0  b_mod_trace.o ABSOLUTE
    ..\..\..\..\babyos\bos\modules\b_mod_xm128.c 0x00000000   Number         0  b_mod_xm128.o ABSOLUTE
    ..\..\..\..\babyos\bos\modules\b_mod_ymodem.c 0x00000000   Number         0  b_mod_ymodem.o ABSOLUTE
    ..\..\..\..\babyos\bos\thirdparty\nr_micro_shell\src\ansi.c 0x00000000   Number         0  ansi.o ABSOLUTE
    ..\..\..\..\babyos\bos\thirdparty\nr_micro_shell\src\ansi_port.c 0x00000000   Number         0  ansi_port.o ABSOLUTE
    ..\..\..\..\babyos\bos\thirdparty\nr_micro_shell\src\nr_micro_shell.c 0x00000000   Number         0  nr_micro_shell.o ABSOLUTE
    ..\..\..\..\babyos\bos\utils\b_util_fifo.c 0x00000000   Number         0  b_util_fifo.o ABSOLUTE
    ..\..\..\..\babyos\bos\utils\b_util_i2c.c 0x00000000   Number         0  b_util_i2c.o ABSOLUTE
    ..\..\..\..\babyos\bos\utils\b_util_log.c 0x00000000   Number         0  b_util_log.o ABSOLUTE
    ..\..\..\..\babyos\bos\utils\b_util_lunar.c 0x00000000   Number         0  b_util_lunar.o ABSOLUTE
    ..\..\..\..\babyos\bos\utils\b_util_spi.c 0x00000000   Number         0  b_util_spi.o ABSOLUTE
    ..\..\..\..\babyos\bos\utils\b_util_uart.c 0x00000000   Number         0  b_util_uart.o ABSOLUTE
    ..\..\..\..\babyos\bos\utils\b_util_utc.c 0x00000000   Number         0  b_util_utc.o ABSOLUTE
    ..\..\..\..\board\board.c                0x00000000   Number         0  board.o ABSOLUTE
    ..\\..\\..\\..\\Libraries\\CMSIS\\CM3\\CoreSupport\\core_cm3.c 0x00000000   Number         0  core_cm3.o ABSOLUTE
    ..\main.c                                0x00000000   Number         0  main.o ABSOLUTE
    ..\stm32f10x_it.c                        0x00000000   Number         0  stm32f10x_it.o ABSOLUTE
    cdrcmple.s                               0x00000000   Number         0  cdrcmple.o ABSOLUTE
    dc.s                                     0x00000000   Number         0  dc.o ABSOLUTE
    handlers.s                               0x00000000   Number         0  handlers.o ABSOLUTE
    init.s                                   0x00000000   Number         0  init.o ABSOLUTE
    RESET                                    0x08000000   Section      336  startup_stm32f10x_cl.o(RESET)
    .ARM.Collect$$$$00000000                 0x08000150   Section        0  entry.o(.ARM.Collect$$$$00000000)
    .ARM.Collect$$$$00000001                 0x08000150   Section        4  entry2.o(.ARM.Collect$$$$00000001)
    .ARM.Collect$$$$00000004                 0x08000154   Section        4  entry5.o(.ARM.Collect$$$$00000004)
    .ARM.Collect$$$$00000008                 0x08000158   Section        0  entry7b.o(.ARM.Collect$$$$00000008)
    .ARM.Collect$$$$0000000A                 0x08000158   Section        0  entry8b.o(.ARM.Collect$$$$0000000A)
    .ARM.Collect$$$$0000000B                 0x08000158   Section        8  entry9a.o(.ARM.Collect$$$$0000000B)
    .ARM.Collect$$$$0000000D                 0x08000160   Section        0  entry10a.o(.ARM.Collect$$$$0000000D)
    .ARM.Collect$$$$0000000F                 0x08000160   Section        0  entry11a.o(.ARM.Collect$$$$0000000F)
    .ARM.Collect$$$$00002712                 0x08000160   Section        4  entry2.o(.ARM.Collect$$$$00002712)
    __lit__00000000                          0x08000160   Data           4  entry2.o(.ARM.Collect$$$$00002712)
    .text                                    0x08000164   Section       36  startup_stm32f10x_cl.o(.text)
    .text                                    0x08000188   Section        0  ctype_o.o(.text)
    .text                                    0x08000190   Section        0  memcpya.o(.text)
    .text                                    0x080001b4   Section        0  memseta.o(.text)
    .text                                    0x080001d8   Section        0  strstr.o(.text)
    .text                                    0x080001fc   Section        0  strlen.o(.text)
    .text                                    0x0800020a   Section        0  strcmp.o(.text)
    .text                                    0x08000226   Section        0  strcpy.o(.text)
    .text                                    0x08000238   Section        0  atoi.o(.text)
    .text                                    0x08000252   Section        0  dmul.o(.text)
    .text                                    0x08000336   Section        0  ddiv.o(.text)
    .text                                    0x08000414   Section        0  dfltui.o(.text)
    .text                                    0x0800042e   Section        0  dfixui.o(.text)
    .text                                    0x08000460   Section        0  uidiv.o(.text)
    .text                                    0x0800048c   Section        0  uldiv.o(.text)
    .text                                    0x080004ee   Section        0  llushr.o(.text)
    .text                                    0x0800050e   Section        0  strtol.o(.text)
    .text                                    0x0800057e   Section        0  depilogue.o(.text)
    .text                                    0x0800057e   Section        0  iusefp.o(.text)
    .text                                    0x08000638   Section        0  dadd.o(.text)
    .text                                    0x08000786   Section        0  dfixul.o(.text)
    .text                                    0x080007b8   Section       48  cdrcmple.o(.text)
    .text                                    0x080007e8   Section       36  init.o(.text)
    .text                                    0x0800080c   Section        0  llshl.o(.text)
    .text                                    0x0800082a   Section        0  llsshr.o(.text)
    .text                                    0x0800084e   Section        0  _strtoul.o(.text)
    .text                                    0x080008ec   Section        0  _chval.o(.text)
    i.ADC_Cmd                                0x08000908   Section        0  stm32f10x_adc.o(i.ADC_Cmd)
    i.ADC_ExternalTrigInjectedConvCmd        0x0800091c   Section        0  stm32f10x_adc.o(i.ADC_ExternalTrigInjectedConvCmd)
    i.ADC_ExternalTrigInjectedConvConfig     0x08000930   Section        0  stm32f10x_adc.o(i.ADC_ExternalTrigInjectedConvConfig)
    i.ADC_ITConfig                           0x0800093c   Section        0  stm32f10x_adc.o(i.ADC_ITConfig)
    i.ADC_Init                               0x08000950   Section        0  stm32f10x_adc.o(i.ADC_Init)
    i.ADC_InjectedChannelConfig              0x08000998   Section        0  stm32f10x_adc.o(i.ADC_InjectedChannelConfig)
    i.ADC_InjectedSequencerLengthConfig      0x080009e2   Section        0  stm32f10x_adc.o(i.ADC_InjectedSequencerLengthConfig)
    i.ADC_TempSensorVrefintCmd               0x080009f4   Section        0  stm32f10x_adc.o(i.ADC_TempSensorVrefintCmd)
    i.BoardInit                              0x08000a10   Section        0  board.o(i.BoardInit)
    i.BusFault_Handler                       0x08000a48   Section        0  stm32f10x_it.o(i.BusFault_Handler)
    i.DebugMon_Handler                       0x08000a4a   Section        0  stm32f10x_it.o(i.DebugMon_Handler)
    i.GPIO_Init                              0x08000a4c   Section        0  stm32f10x_gpio.o(i.GPIO_Init)
    i.GPIO_SetBits                           0x08000aee   Section        0  stm32f10x_gpio.o(i.GPIO_SetBits)
    i.HardFault_Handler                      0x08000af2   Section        0  stm32f10x_it.o(i.HardFault_Handler)
    i.MemManage_Handler                      0x08000af4   Section        0  stm32f10x_it.o(i.MemManage_Handler)
    i.NMI_Handler                            0x08000af6   Section        0  stm32f10x_it.o(i.NMI_Handler)
    i.NVIC_Init                              0x08000af8   Section        0  misc.o(i.NVIC_Init)
    i.NVIC_PriorityGroupConfig               0x08000b5c   Section        0  misc.o(i.NVIC_PriorityGroupConfig)
    i.NVIC_SetPriority                       0x08000b70   Section        0  main.o(i.NVIC_SetPriority)
    NVIC_SetPriority                         0x08000b71   Thumb Code    32  main.o(i.NVIC_SetPriority)
    i.PendSV_Handler                         0x08000b90   Section        0  stm32f10x_it.o(i.PendSV_Handler)
    i.RCC_ADCCLKConfig                       0x08000b94   Section        0  stm32f10x_rcc.o(i.RCC_ADCCLKConfig)
    i.RCC_APB1PeriphClockCmd                 0x08000ba8   Section        0  stm32f10x_rcc.o(i.RCC_APB1PeriphClockCmd)
    i.RCC_APB2PeriphClockCmd                 0x08000bc0   Section        0  stm32f10x_rcc.o(i.RCC_APB2PeriphClockCmd)
    i.RCC_GetClocksFreq                      0x08000bd8   Section        0  stm32f10x_rcc.o(i.RCC_GetClocksFreq)
    i.SPI_Cmd                                0x08000ca0   Section        0  stm32f10x_spi.o(i.SPI_Cmd)
    i.SPI_Init                               0x08000cb4   Section        0  stm32f10x_spi.o(i.SPI_Init)
    i.SVC_Handler                            0x08000cec   Section        0  stm32f10x_it.o(i.SVC_Handler)
    i.SetSysClockTo72                        0x08000cf0   Section        0  system_stm32f10x.o(i.SetSysClockTo72)
    SetSysClockTo72                          0x08000cf1   Thumb Code   190  system_stm32f10x.o(i.SetSysClockTo72)
    i.SysTick_Handler                        0x08000dc0   Section        0  main.o(i.SysTick_Handler)
    i.SystemInit                             0x08000dc4   Section        0  system_stm32f10x.o(i.SystemInit)
    i.TestParamF                             0x08000e10   Section        0  main.o(i.TestParamF)
    i.USART1_IRQHandler                      0x08000e20   Section        0  main.o(i.USART1_IRQHandler)
    i.USART_ClearITPendingBit                0x08000e5c   Section        0  stm32f10x_usart.o(i.USART_ClearITPendingBit)
    i.USART_Cmd                              0x08000e68   Section        0  stm32f10x_usart.o(i.USART_Cmd)
    i.USART_GetITStatus                      0x08000e7c   Section        0  stm32f10x_usart.o(i.USART_GetITStatus)
    i.USART_ITConfig                         0x08000eba   Section        0  stm32f10x_usart.o(i.USART_ITConfig)
    i.USART_Init                             0x08000eec   Section        0  stm32f10x_usart.o(i.USART_Init)
    i.USART_ReceiveData                      0x08000f98   Section        0  stm32f10x_usart.o(i.USART_ReceiveData)
    i.UsageFault_Handler                     0x08000fa0   Section        0  stm32f10x_it.o(i.UsageFault_Handler)
    i._AdcInit                               0x08000fa4   Section        0  board.o(i._AdcInit)
    _AdcInit                                 0x08000fa5   Thumb Code   120  board.o(i._AdcInit)
    i._CmdBosHandler                         0x08001020   Section        0  b_mod_shell.o(i._CmdBosHandler)
    _CmdBosHandler                           0x08001021   Thumb Code    46  b_mod_shell.o(i._CmdBosHandler)
    i._GpioInit                              0x0800109c   Section        0  board.o(i._GpioInit)
    _GpioInit                                0x0800109d   Thumb Code   596  board.o(i._GpioInit)
    i._ShellParamHandle                      0x08001304   Section        0  b_mod_param.o(i._ShellParamHandle)
    _ShellParamHandle                        0x08001305   Thumb Code   142  b_mod_param.o(i._ShellParamHandle)
    i._SpiInit                               0x080013e0   Section        0  board.o(i._SpiInit)
    _SpiInit                                 0x080013e1   Thumb Code   136  board.o(i._SpiInit)
    i._UartInit                              0x08001470   Section        0  board.o(i._UartInit)
    _UartInit                                0x08001471   Thumb Code   150  board.o(i._UartInit)
    i.__0sprintf                             0x08001510   Section        0  printfa.o(i.__0sprintf)
    i.__0vsnprintf                           0x08001538   Section        0  printfa.o(i.__0vsnprintf)
    i.__aeabi_errno_addr                     0x08001564   Section        0  errno.o(i.__aeabi_errno_addr)
    i.__scatterload_copy                     0x0800156c   Section       14  handlers.o(i.__scatterload_copy)
    i.__scatterload_null                     0x0800157a   Section        2  handlers.o(i.__scatterload_null)
    i.__scatterload_zeroinit                 0x0800157c   Section       14  handlers.o(i.__scatterload_zeroinit)
    i._bCoreMonitor                          0x0800158a   Section        0  b_core.o(i._bCoreMonitor)
    _bCoreMonitor                            0x0800158b   Thumb Code     2  b_core.o(i._bCoreMonitor)
    i._bDriverNullInit                       0x0800158c   Section        0  b_device.o(i._bDriverNullInit)
    _bDriverNullInit                         0x0800158d   Thumb Code     4  b_device.o(i._bDriverNullInit)
    i._bHalUpdateDelayParam                  0x08001590   Section        0  b_hal.o(i._bHalUpdateDelayParam)
    _bHalUpdateDelayParam                    0x08001591   Thumb Code    78  b_hal.o(i._bHalUpdateDelayParam)
    i._bUtilUartDetectIdle                   0x080015ec   Section        0  b_util_uart.o(i._bUtilUartDetectIdle)
    _bUtilUartDetectIdle                     0x080015ed   Thumb Code   102  b_util_uart.o(i._bUtilUartDetectIdle)
    i._fp_digits                             0x08001658   Section        0  printfa.o(i._fp_digits)
    _fp_digits                               0x08001659   Thumb Code   366  printfa.o(i._fp_digits)
    i._printf_core                           0x080017dc   Section        0  printfa.o(i._printf_core)
    _printf_core                             0x080017dd   Thumb Code  1744  printfa.o(i._printf_core)
    i._printf_post_padding                   0x08001eb8   Section        0  printfa.o(i._printf_post_padding)
    _printf_post_padding                     0x08001eb9   Thumb Code    36  printfa.o(i._printf_post_padding)
    i._printf_pre_padding                    0x08001edc   Section        0  printfa.o(i._printf_pre_padding)
    _printf_pre_padding                      0x08001edd   Thumb Code    46  printfa.o(i._printf_pre_padding)
    i._shell_init                            0x08001f0c   Section        0  nr_micro_shell.o(i._shell_init)
    i._snputc                                0x08001f48   Section        0  printfa.o(i._snputc)
    _snputc                                  0x08001f49   Thumb Code    22  printfa.o(i._snputc)
    i._sputc                                 0x08001f5e   Section        0  printfa.o(i._sputc)
    _sputc                                   0x08001f5f   Thumb Code    10  printfa.o(i._sputc)
    i.ansi_clear_current_line                0x08001f68   Section        0  ansi.o(i.ansi_clear_current_line)
    i.ansi_get_char                          0x08001f78   Section        0  ansi.o(i.ansi_get_char)
    i.ansi_init                              0x08002068   Section        0  ansi.o(i.ansi_init)
    i.ansi_search_char                       0x0800207e   Section        0  ansi.o(i.ansi_search_char)
    i.ansi_show_char                         0x0800209e   Section        0  ansi_port.o(i.ansi_show_char)
    i.ansi_show_str                          0x080020ac   Section        0  ansi_port.o(i.ansi_show_str)
    i.bDeviceInit                            0x080020c4   Section        0  b_device.o(i.bDeviceInit)
    i.bExec                                  0x08002254   Section        0  b_core.o(i.bExec)
    i.bHalGetSysTick                         0x08002274   Section        0  b_hal.o(i.bHalGetSysTick)
    i.bHalIncSysTick                         0x08002280   Section        0  b_hal.o(i.bHalIncSysTick)
    i.bHalInit                               0x08002290   Section        0  b_hal.o(i.bHalInit)
    i.bHalUartSend                           0x0800229c   Section        0  b_hal_uart.o(i.bHalUartSend)
    i.bHalUserInit                           0x080022a4   Section        0  b_hal.o(i.bHalUserInit)
    i.bInit                                  0x080022a8   Section        0  b_core.o(i.bInit)
    i.bLogOut                                0x080025b0   Section        0  b_util_log.o(i.bLogOut)
    i.bLogOutput                             0x08002678   Section        0  b_util_log.o(i.bLogOutput)
    i.bMcuUartSend                           0x08002690   Section        0  mcu_stm32f10x_uart.o(i.bMcuUartSend)
    i.bShellInit                             0x080026d8   Section        0  b_mod_shell.o(i.bShellInit)
    i.bShellParse                            0x080026f4   Section        0  b_mod_shell.o(i.bShellParse)
    i.main                                   0x0800273c   Section        0  main.o(i.main)
    i.nr_ansi_ctrl_common_slover             0x080027a8   Section        0  ansi_port.o(i.nr_ansi_ctrl_common_slover)
    i.nr_ansi_in_backspace                   0x080027c8   Section        0  ansi_port.o(i.nr_ansi_in_backspace)
    i.nr_ansi_in_down                        0x08002814   Section        0  ansi_port.o(i.nr_ansi_in_down)
    i.nr_ansi_in_enter                       0x08002898   Section        0  ansi_port.o(i.nr_ansi_in_enter)
    i.nr_ansi_in_left                        0x080028c4   Section        0  ansi_port.o(i.nr_ansi_in_left)
    i.nr_ansi_in_newline                     0x080028f4   Section        0  ansi_port.o(i.nr_ansi_in_newline)
    i.nr_ansi_in_right                       0x080028fc   Section        0  ansi_port.o(i.nr_ansi_in_right)
    i.nr_ansi_in_tab                         0x08002930   Section        0  ansi_port.o(i.nr_ansi_in_tab)
    i.nr_ansi_in_up                          0x08002a04   Section        0  ansi_port.o(i.nr_ansi_in_up)
    i.nr_shell_strtok                        0x08002a8c   Section        0  nr_micro_shell.o(i.nr_shell_strtok)
    nr_shell_strtok                          0x08002a8d   Thumb Code   136  nr_micro_shell.o(i.nr_shell_strtok)
    i.shell_cmd_complete                     0x08002b18   Section        0  nr_micro_shell.o(i.shell_cmd_complete)
    i.shell_his_copy_queue_item              0x08002b58   Section        0  nr_micro_shell.o(i.shell_his_copy_queue_item)
    i.shell_his_queue_add_cmd                0x08002bd4   Section        0  nr_micro_shell.o(i.shell_his_queue_add_cmd)
    i.shell_his_queue_init                   0x08002c7e   Section        0  nr_micro_shell.o(i.shell_his_queue_init)
    i.shell_his_queue_search_cmd             0x08002c90   Section        0  nr_micro_shell.o(i.shell_his_queue_search_cmd)
    i.shell_parser                           0x08002d18   Section        0  nr_micro_shell.o(i.shell_parser)
    i.shell_search_cmd                       0x08002e44   Section        0  nr_micro_shell.o(i.shell_search_cmd)
    .constdata                               0x08002e74   Section        6  b_core.o(.constdata)
    __func__                                 0x08002e74   Data           6  b_core.o(.constdata)
    .constdata                               0x08002e7a   Section       89  b_device.o(.constdata)
    __func__                                 0x08002e7a   Data          12  b_device.o(.constdata)
    __func__                                 0x08002e86   Data          12  b_device.o(.constdata)
    __func__                                 0x08002e92   Data          12  b_device.o(.constdata)
    __func__                                 0x08002e9e   Data          13  b_device.o(.constdata)
    __func__                                 0x08002eab   Data          13  b_device.o(.constdata)
    __func__                                 0x08002eb8   Data          11  b_device.o(.constdata)
    __func__                                 0x08002ec3   Data          16  b_device.o(.constdata)
    .constdata                               0x08002ed3   Section       18  b_mod_param.o(.constdata)
    __func__                                 0x08002ed3   Data          18  b_mod_param.o(.constdata)
    .constdata                               0x08002ee5   Section       15  b_mod_shell.o(.constdata)
    __func__                                 0x08002ee5   Data          15  b_mod_shell.o(.constdata)
    .constdata                               0x08002ef4   Section        6  b_util_log.o(.constdata)
    bLogParamTable                           0x08002ef4   Data           3  b_util_log.o(.constdata)
    bLogPrefix                               0x08002ef7   Data           3  b_util_log.o(.constdata)
    .constdata                               0x08002efc   Section      120  ansi.o(.constdata)
    .constdata                               0x08002f74   Section       99  ansi_port.o(.constdata)
    __func__                                 0x08002f74   Data          21  ansi_port.o(.constdata)
    __func__                                 0x08002f89   Data          14  ansi_port.o(.constdata)
    __func__                                 0x08002f97   Data          16  ansi_port.o(.constdata)
    __func__                                 0x08002fa7   Data          16  ansi_port.o(.constdata)
    __func__                                 0x08002fb7   Data          17  ansi_port.o(.constdata)
    __func__                                 0x08002fc8   Data          15  ansi_port.o(.constdata)
    .constdata                               0x08002fd7   Section       25  nr_micro_shell.o(.constdata)
    __func__                                 0x08002fd7   Data          12  nr_micro_shell.o(.constdata)
    __func__                                 0x08002fe3   Data          13  nr_micro_shell.o(.constdata)
    .constdata                               0x08002ff0   Section      129  ctype_o.o(.constdata)
    .constdata                               0x08003074   Section        4  ctype_o.o(.constdata)
    table                                    0x08003074   Data           4  ctype_o.o(.constdata)
    .conststring                             0x08003078   Section       17  b_device.o(.conststring)
    .conststring                             0x0800308c   Section       65  ansi_port.o(.conststring)
    .conststring                             0x080030d0   Section       70  nr_micro_shell.o(.conststring)
    .conststrlit                             0x08003118   Section        9  main.o(.conststrlit)
    .conststrlit                             0x08003124   Section        6  b_mod_param.o(.conststrlit)
    .conststrlit                             0x0800312c   Section        4  b_mod_shell.o(.conststrlit)
    b_mod_param                              0x08003150   Section       12  main.o(b_mod_param)
    __tagsym$$used                           0x08003150   Number         0  main.o(b_mod_param)
    b_mod_shell                              0x0800315c   Section        8  b_mod_param.o(b_mod_shell)
    __tagsym$$used                           0x0800315c   Number         0  b_mod_param.o(b_mod_shell)
    b_mod_shell                              0x08003164   Section        8  b_mod_shell.o(b_mod_shell)
    __tagsym$$used                           0x08003164   Number         0  b_mod_shell.o(b_mod_shell)
    bos_polling                              0x0800316c   Section        4  b_core.o(bos_polling)
    __tagsym$$used                           0x0800316c   Number         0  b_core.o(bos_polling)
    bos_polling                              0x08003170   Section        4  b_util_uart.o(bos_polling)
    __tagsym$$used                           0x08003170   Number         0  b_util_uart.o(bos_polling)
    driver_init                              0x08003174   Section        8  b_device.o(driver_init)
    __tagsym$$used                           0x08003174   Number         0  b_device.o(driver_init)
    driver_init_0                            0x0800317c   Section        8  b_device.o(driver_init_0)
    __tagsym$$used                           0x0800317c   Number         0  b_device.o(driver_init_0)
    .data                                    0x20000000   Section        8  main.o(.data)
    TestTick                                 0x20000000   Data           4  main.o(.data)
    tickTestParamF                           0x20000004   Data           4  main.o(.data)
    .data                                    0x20000008   Section       20  stm32f10x_rcc.o(.data)
    ADCPrescTable                            0x20000008   Data           4  stm32f10x_rcc.o(.data)
    APBAHBPrescTable                         0x2000000c   Data          16  stm32f10x_rcc.o(.data)
    .data                                    0x2000001c   Section       20  system_stm32f10x.o(.data)
    .data                                    0x20000030   Section       12  b_device.o(.data)
    bDriverNumberTable                       0x20000030   Data           2  b_device.o(.data)
    bDeviceDescTable                         0x20000034   Data           8  b_device.o(.data)
    .data                                    0x2000003c   Section       20  mcu_stm32f10x_uart.o(.data)
    UartTable                                0x2000003c   Data          20  mcu_stm32f10x_uart.o(.data)
    .data                                    0x20000050   Section        8  b_hal.o(.data)
    bSysTick                                 0x20000050   Data           4  b_hal.o(.data)
    bUsDelayParam                            0x20000054   Data           4  b_hal.o(.data)
    .data                                    0x20000058   Section      148  nr_micro_shell.o(.data)
    .data                                    0x200000ec   Section        4  nr_micro_shell.o(.data)
    last                                     0x200000ec   Data           4  nr_micro_shell.o(.data)
    .data                                    0x200000f0   Section        4  errno.o(.data)
    _errno                                   0x200000f0   Data           4  errno.o(.data)
    .bss                                     0x200000f4   Section       88  b_device.o(.bss)
    bDriverInterfaceTable                    0x200000f4   Data          88  b_device.o(.bss)
    .bss                                     0x2000014c   Section      256  b_util_log.o(.bss)
    bLogBuff                                 0x2000014c   Data         256  b_util_log.o(.bss)
    .bss                                     0x2000024c   Section       72  b_util_uart.o(.bss)
    bUitlUartHead                            0x2000024c   Data          36  b_util_uart.o(.bss)
    pUtilUartBindTable                       0x20000270   Data          36  b_util_uart.o(.bss)
    .bss                                     0x20000294   Section      132  ansi.o(.bss)
    STACK                                    0x20000318   Section     2048  startup_stm32f10x_cl.o(STACK)

    Global Symbols

    Symbol Name                              Value     Ov Type        Size  Object(Section)

    BuildAttributes$$THM_ISAv4$P$D$K$B$S$PE$A:L22UL41UL21$X:L11$S22US41US21$IEEE1$IW$USESV6$~STKCKD$USESV7$~SHL$OSPACE$ROPI$EBA8$MICROLIB$REQ8$PRES8$EABIv2 0x00000000   Number         0  anon$$obj.o ABSOLUTE
    __ARM_use_no_argv                        0x00000000   Number         0  main.o ABSOLUTE
    _printf_a                                0x00000000   Number         0  stubs.o ABSOLUTE
    _printf_c                                0x00000000   Number         0  stubs.o ABSOLUTE
    _printf_charcount                        0x00000000   Number         0  stubs.o ABSOLUTE
    _printf_d                                0x00000000   Number         0  stubs.o ABSOLUTE
    _printf_e                                0x00000000   Number         0  stubs.o ABSOLUTE
    _printf_f                                0x00000000   Number         0  stubs.o ABSOLUTE
    _printf_flags                            0x00000000   Number         0  stubs.o ABSOLUTE
    _printf_fp_dec                           0x00000000   Number         0  stubs.o ABSOLUTE
    _printf_fp_hex                           0x00000000   Number         0  stubs.o ABSOLUTE
    _printf_g                                0x00000000   Number         0  stubs.o ABSOLUTE
    _printf_i                                0x00000000   Number         0  stubs.o ABSOLUTE
    _printf_int_dec                          0x00000000   Number         0  stubs.o ABSOLUTE
    _printf_l                                0x00000000   Number         0  stubs.o ABSOLUTE
    _printf_lc                               0x00000000   Number         0  stubs.o ABSOLUTE
    _printf_ll                               0x00000000   Number         0  stubs.o ABSOLUTE
    _printf_lld                              0x00000000   Number         0  stubs.o ABSOLUTE
    _printf_lli                              0x00000000   Number         0  stubs.o ABSOLUTE
    _printf_llo                              0x00000000   Number         0  stubs.o ABSOLUTE
    _printf_llu                              0x00000000   Number         0  stubs.o ABSOLUTE
    _printf_llx                              0x00000000   Number         0  stubs.o ABSOLUTE
    _printf_longlong_dec                     0x00000000   Number         0  stubs.o ABSOLUTE
    _printf_longlong_hex                     0x00000000   Number         0  stubs.o ABSOLUTE
    _printf_longlong_oct                     0x00000000   Number         0  stubs.o ABSOLUTE
    _printf_ls                               0x00000000   Number         0  stubs.o ABSOLUTE
    _printf_mbtowc                           0x00000000   Number         0  stubs.o ABSOLUTE
    _printf_n                                0x00000000   Number         0  stubs.o ABSOLUTE
    _printf_o                                0x00000000   Number         0  stubs.o ABSOLUTE
    _printf_p                                0x00000000   Number         0  stubs.o ABSOLUTE
    _printf_percent                          0x00000000   Number         0  stubs.o ABSOLUTE
    _printf_pre_padding                      0x00000000   Number         0  stubs.o ABSOLUTE
    _printf_return_value                     0x00000000   Number         0  stubs.o ABSOLUTE
    _printf_s                                0x00000000   Number         0  stubs.o ABSOLUTE
    _printf_sizespec                         0x00000000   Number         0  stubs.o ABSOLUTE
    _printf_str                              0x00000000   Number         0  stubs.o ABSOLUTE
    _printf_truncate_signed                  0x00000000   Number         0  stubs.o ABSOLUTE
    _printf_truncate_unsigned                0x00000000   Number         0  stubs.o ABSOLUTE
    _printf_u                                0x00000000   Number         0  stubs.o ABSOLUTE
    _printf_wc                               0x00000000   Number         0  stubs.o ABSOLUTE
    _printf_wctomb                           0x00000000   Number         0  stubs.o ABSOLUTE
    _printf_widthprec                        0x00000000   Number         0  stubs.o ABSOLUTE
    _printf_x                                0x00000000   Number         0  stubs.o ABSOLUTE
    __cpp_initialize__aeabi_                  - Undefined Weak Reference
    __cxa_finalize                            - Undefined Weak Reference
    __decompress                              - Undefined Weak Reference
    _clock_init                               - Undefined Weak Reference
    _microlib_exit                            - Undefined Weak Reference
    __Vectors_Size                           0x00000150   Number         0  startup_stm32f10x_cl.o ABSOLUTE
    __Vectors                                0x08000000   Data           4  startup_stm32f10x_cl.o(RESET)
    __Vectors_End                            0x08000150   Data           0  startup_stm32f10x_cl.o(RESET)
    __main                                   0x08000151   Thumb Code     0  entry.o(.ARM.Collect$$$$00000000)
    _main_stk                                0x08000151   Thumb Code     0  entry2.o(.ARM.Collect$$$$00000001)
    _main_scatterload                        0x08000155   Thumb Code     0  entry5.o(.ARM.Collect$$$$00000004)
    __main_after_scatterload                 0x08000159   Thumb Code     0  entry5.o(.ARM.Collect$$$$00000004)
    _main_clock                              0x08000159   Thumb Code     0  entry7b.o(.ARM.Collect$$$$00000008)
    _main_cpp_init                           0x08000159   Thumb Code     0  entry8b.o(.ARM.Collect$$$$0000000A)
    _main_init                               0x08000159   Thumb Code     0  entry9a.o(.ARM.Collect$$$$0000000B)
    __rt_final_cpp                           0x08000161   Thumb Code     0  entry10a.o(.ARM.Collect$$$$0000000D)
    __rt_final_exit                          0x08000161   Thumb Code     0  entry11a.o(.ARM.Collect$$$$0000000F)
    Reset_Handler                            0x08000165   Thumb Code     8  startup_stm32f10x_cl.o(.text)
    ADC1_2_IRQHandler                        0x0800017f   Thumb Code     0  startup_stm32f10x_cl.o(.text)
    CAN1_RX0_IRQHandler                      0x0800017f   Thumb Code     0  startup_stm32f10x_cl.o(.text)
    CAN1_RX1_IRQHandler                      0x0800017f   Thumb Code     0  startup_stm32f10x_cl.o(.text)
    CAN1_SCE_IRQHandler                      0x0800017f   Thumb Code     0  startup_stm32f10x_cl.o(.text)
    CAN1_TX_IRQHandler                       0x0800017f   Thumb Code     0  startup_stm32f10x_cl.o(.text)
    CAN2_RX0_IRQHandler                      0x0800017f   Thumb Code     0  startup_stm32f10x_cl.o(.text)
    CAN2_RX1_IRQHandler                      0x0800017f   Thumb Code     0  startup_stm32f10x_cl.o(.text)
    CAN2_SCE_IRQHandler                      0x0800017f   Thumb Code     0  startup_stm32f10x_cl.o(.text)
    CAN2_TX_IRQHandler                       0x0800017f   Thumb Code     0  startup_stm32f10x_cl.o(.text)
    DMA1_Channel1_IRQHandler                 0x0800017f   Thumb Code     0  startup_stm32f10x_cl.o(.text)
    DMA1_Channel2_IRQHandler                 0x0800017f   Thumb Code     0  startup_stm32f10x_cl.o(.text)
    DMA1_Channel3_IRQHandler                 0x0800017f   Thumb Code     0  startup_stm32f10x_cl.o(.text)
    DMA1_Channel4_IRQHandler                 0x0800017f   Thumb Code     0  startup_stm32f10x_cl.o(.text)
    DMA1_Channel5_IRQHandler                 0x0800017f   Thumb Code     0  startup_stm32f10x_cl.o(.text)
    DMA1_Channel6_IRQHandler                 0x0800017f   Thumb Code     0  startup_stm32f10x_cl.o(.text)
    DMA1_Channel7_IRQHandler                 0x0800017f   Thumb Code     0  startup_stm32f10x_cl.o(.text)
    DMA2_Channel1_IRQHandler                 0x0800017f   Thumb Code     0  startup_stm32f10x_cl.o(.text)
    DMA2_Channel2_IRQHandler                 0x0800017f   Thumb Code     0  startup_stm32f10x_cl.o(.text)
    DMA2_Channel3_IRQHandler                 0x0800017f   Thumb Code     0  startup_stm32f10x_cl.o(.text)
    DMA2_Channel4_IRQHandler                 0x0800017f   Thumb Code     0  startup_stm32f10x_cl.o(.text)
    DMA2_Channel5_IRQHandler                 0x0800017f   Thumb Code     0  startup_stm32f10x_cl.o(.text)
    ETH_IRQHandler                           0x0800017f   Thumb Code     0  startup_stm32f10x_cl.o(.text)
    ETH_WKUP_IRQHandler                      0x0800017f   Thumb Code     0  startup_stm32f10x_cl.o(.text)
    EXTI0_IRQHandler                         0x0800017f   Thumb Code     0  startup_stm32f10x_cl.o(.text)
    EXTI15_10_IRQHandler                     0x0800017f   Thumb Code     0  startup_stm32f10x_cl.o(.text)
    EXTI1_IRQHandler                         0x0800017f   Thumb Code     0  startup_stm32f10x_cl.o(.text)
    EXTI2_IRQHandler                         0x0800017f   Thumb Code     0  startup_stm32f10x_cl.o(.text)
    EXTI3_IRQHandler                         0x0800017f   Thumb Code     0  startup_stm32f10x_cl.o(.text)
    EXTI4_IRQHandler                         0x0800017f   Thumb Code     0  startup_stm32f10x_cl.o(.text)
    EXTI9_5_IRQHandler                       0x0800017f   Thumb Code     0  startup_stm32f10x_cl.o(.text)
    FLASH_IRQHandler                         0x0800017f   Thumb Code     0  startup_stm32f10x_cl.o(.text)
    I2C1_ER_IRQHandler                       0x0800017f   Thumb Code     0  startup_stm32f10x_cl.o(.text)
    I2C1_EV_IRQHandler                       0x0800017f   Thumb Code     0  startup_stm32f10x_cl.o(.text)
    I2C2_ER_IRQHandler                       0x0800017f   Thumb Code     0  startup_stm32f10x_cl.o(.text)
    I2C2_EV_IRQHandler                       0x0800017f   Thumb Code     0  startup_stm32f10x_cl.o(.text)
    OTG_FS_IRQHandler                        0x0800017f   Thumb Code     0  startup_stm32f10x_cl.o(.text)
    OTG_FS_WKUP_IRQHandler                   0x0800017f   Thumb Code     0  startup_stm32f10x_cl.o(.text)
    PVD_IRQHandler                           0x0800017f   Thumb Code     0  startup_stm32f10x_cl.o(.text)
    RCC_IRQHandler                           0x0800017f   Thumb Code     0  startup_stm32f10x_cl.o(.text)
    RTCAlarm_IRQHandler                      0x0800017f   Thumb Code     0  startup_stm32f10x_cl.o(.text)
    RTC_IRQHandler                           0x0800017f   Thumb Code     0  startup_stm32f10x_cl.o(.text)
    SPI1_IRQHandler                          0x0800017f   Thumb Code     0  startup_stm32f10x_cl.o(.text)
    SPI2_IRQHandler                          0x0800017f   Thumb Code     0  startup_stm32f10x_cl.o(.text)
    SPI3_IRQHandler                          0x0800017f   Thumb Code     0  startup_stm32f10x_cl.o(.text)
    TAMPER_IRQHandler                        0x0800017f   Thumb Code     0  startup_stm32f10x_cl.o(.text)
    TIM1_BRK_IRQHandler                      0x0800017f   Thumb Code     0  startup_stm32f10x_cl.o(.text)
    TIM1_CC_IRQHandler                       0x0800017f   Thumb Code     0  startup_stm32f10x_cl.o(.text)
    TIM1_TRG_COM_IRQHandler                  0x0800017f   Thumb Code     0  startup_stm32f10x_cl.o(.text)
    TIM1_UP_IRQHandler                       0x0800017f   Thumb Code     0  startup_stm32f10x_cl.o(.text)
    TIM2_IRQHandler                          0x0800017f   Thumb Code     0  startup_stm32f10x_cl.o(.text)
    TIM3_IRQHandler                          0x0800017f   Thumb Code     0  startup_stm32f10x_cl.o(.text)
    TIM4_IRQHandler                          0x0800017f   Thumb Code     0  startup_stm32f10x_cl.o(.text)
    TIM5_IRQHandler                          0x0800017f   Thumb Code     0  startup_stm32f10x_cl.o(.text)
    TIM6_IRQHandler                          0x0800017f   Thumb Code     0  startup_stm32f10x_cl.o(.text)
    TIM7_IRQHandler                          0x0800017f   Thumb Code     0  startup_stm32f10x_cl.o(.text)
    UART4_IRQHandler                         0x0800017f   Thumb Code     0  startup_stm32f10x_cl.o(.text)
    UART5_IRQHandler                         0x0800017f   Thumb Code     0  startup_stm32f10x_cl.o(.text)
    USART2_IRQHandler                        0x0800017f   Thumb Code     0  startup_stm32f10x_cl.o(.text)
    USART3_IRQHandler                        0x0800017f   Thumb Code     0  startup_stm32f10x_cl.o(.text)
    WWDG_IRQHandler                          0x0800017f   Thumb Code     0  startup_stm32f10x_cl.o(.text)
    __rt_ctype_table                         0x08000189   Thumb Code     4  ctype_o.o(.text)
    __aeabi_memcpy                           0x08000191   Thumb Code    36  memcpya.o(.text)
    __aeabi_memcpy4                          0x08000191   Thumb Code     0  memcpya.o(.text)
    __aeabi_memcpy8                          0x08000191   Thumb Code     0  memcpya.o(.text)
    __aeabi_memset                           0x080001b5   Thumb Code    14  memseta.o(.text)
    __aeabi_memset4                          0x080001b5   Thumb Code     0  memseta.o(.text)
    __aeabi_memset8                          0x080001b5   Thumb Code     0  memseta.o(.text)
    __aeabi_memclr                           0x080001c3   Thumb Code     4  memseta.o(.text)
    __aeabi_memclr4                          0x080001c3   Thumb Code     0  memseta.o(.text)
    __aeabi_memclr8                          0x080001c3   Thumb Code     0  memseta.o(.text)
    _memset$wrapper                          0x080001c7   Thumb Code    18  memseta.o(.text)
    strstr                                   0x080001d9   Thumb Code    36  strstr.o(.text)
    strlen                                   0x080001fd   Thumb Code    14  strlen.o(.text)
    strcmp                                   0x0800020b   Thumb Code    28  strcmp.o(.text)
    strcpy                                   0x08000227   Thumb Code    18  strcpy.o(.text)
    atoi                                     0x08000239   Thumb Code    26  atoi.o(.text)
    __aeabi_dmul                             0x08000253   Thumb Code   228  dmul.o(.text)
    __aeabi_ddiv                             0x08000337   Thumb Code   222  ddiv.o(.text)
    __aeabi_ui2d                             0x08000415   Thumb Code    26  dfltui.o(.text)
    __aeabi_d2uiz                            0x0800042f   Thumb Code    50  dfixui.o(.text)
    __aeabi_uidiv                            0x08000461   Thumb Code     0  uidiv.o(.text)
    __aeabi_uidivmod                         0x08000461   Thumb Code    44  uidiv.o(.text)
    __aeabi_uldivmod                         0x0800048d   Thumb Code    98  uldiv.o(.text)
    __aeabi_llsr                             0x080004ef   Thumb Code    32  llushr.o(.text)
    _ll_ushift_r                             0x080004ef   Thumb Code     0  llushr.o(.text)
    strtol                                   0x0800050f   Thumb Code   112  strtol.o(.text)
    __I$use$fp                               0x0800057f   Thumb Code     0  iusefp.o(.text)
    _double_round                            0x0800057f   Thumb Code    30  depilogue.o(.text)
    _double_epilogue                         0x0800059d   Thumb Code   156  depilogue.o(.text)
    __aeabi_dadd                             0x08000639   Thumb Code   322  dadd.o(.text)
    __aeabi_dsub                             0x0800077b   Thumb Code     6  dadd.o(.text)
    __aeabi_drsub                            0x08000781   Thumb Code     6  dadd.o(.text)
    __aeabi_d2ulz                            0x08000787   Thumb Code    48  dfixul.o(.text)
    __aeabi_cdrcmple                         0x080007b9   Thumb Code    48  cdrcmple.o(.text)
    __scatterload                            0x080007e9   Thumb Code    28  init.o(.text)
    __scatterload_rt2                        0x080007e9   Thumb Code     0  init.o(.text)
    __aeabi_llsl                             0x0800080d   Thumb Code    30  llshl.o(.text)
    _ll_shift_l                              0x0800080d   Thumb Code     0  llshl.o(.text)
    __aeabi_lasr                             0x0800082b   Thumb Code    36  llsshr.o(.text)
    _ll_sshift_r                             0x0800082b   Thumb Code     0  llsshr.o(.text)
    _strtoul                                 0x0800084f   Thumb Code   158  _strtoul.o(.text)
    _chval                                   0x080008ed   Thumb Code    28  _chval.o(.text)
    ADC_Cmd                                  0x08000909   Thumb Code    20  stm32f10x_adc.o(i.ADC_Cmd)
    ADC_ExternalTrigInjectedConvCmd          0x0800091d   Thumb Code    20  stm32f10x_adc.o(i.ADC_ExternalTrigInjectedConvCmd)
    ADC_ExternalTrigInjectedConvConfig       0x08000931   Thumb Code    12  stm32f10x_adc.o(i.ADC_ExternalTrigInjectedConvConfig)
    ADC_ITConfig                             0x0800093d   Thumb Code    18  stm32f10x_adc.o(i.ADC_ITConfig)
    ADC_Init                                 0x08000951   Thumb Code    62  stm32f10x_adc.o(i.ADC_Init)
    ADC_InjectedChannelConfig                0x08000999   Thumb Code    74  stm32f10x_adc.o(i.ADC_InjectedChannelConfig)
    ADC_InjectedSequencerLengthConfig        0x080009e3   Thumb Code    16  stm32f10x_adc.o(i.ADC_InjectedSequencerLengthConfig)
    ADC_TempSensorVrefintCmd                 0x080009f5   Thumb Code    22  stm32f10x_adc.o(i.ADC_TempSensorVrefintCmd)
    BoardInit                                0x08000a11   Thumb Code    56  board.o(i.BoardInit)
    BusFault_Handler                         0x08000a49   Thumb Code     2  stm32f10x_it.o(i.BusFault_Handler)
    DebugMon_Handler                         0x08000a4b   Thumb Code     2  stm32f10x_it.o(i.DebugMon_Handler)
    GPIO_Init                                0x08000a4d   Thumb Code   162  stm32f10x_gpio.o(i.GPIO_Init)
    GPIO_SetBits                             0x08000aef   Thumb Code     4  stm32f10x_gpio.o(i.GPIO_SetBits)
    HardFault_Handler                        0x08000af3   Thumb Code     2  stm32f10x_it.o(i.HardFault_Handler)
    MemManage_Handler                        0x08000af5   Thumb Code     2  stm32f10x_it.o(i.MemManage_Handler)
    NMI_Handler                              0x08000af7   Thumb Code     2  stm32f10x_it.o(i.NMI_Handler)
    NVIC_Init                                0x08000af9   Thumb Code    94  misc.o(i.NVIC_Init)
    NVIC_PriorityGroupConfig                 0x08000b5d   Thumb Code    10  misc.o(i.NVIC_PriorityGroupConfig)
    PendSV_Handler                           0x08000b91   Thumb Code     2  stm32f10x_it.o(i.PendSV_Handler)
    RCC_ADCCLKConfig                         0x08000b95   Thumb Code    14  stm32f10x_rcc.o(i.RCC_ADCCLKConfig)
    RCC_APB1PeriphClockCmd                   0x08000ba9   Thumb Code    18  stm32f10x_rcc.o(i.RCC_APB1PeriphClockCmd)
    RCC_APB2PeriphClockCmd                   0x08000bc1   Thumb Code    18  stm32f10x_rcc.o(i.RCC_APB2PeriphClockCmd)
    RCC_GetClocksFreq                        0x08000bd9   Thumb Code   178  stm32f10x_rcc.o(i.RCC_GetClocksFreq)
    SPI_Cmd                                  0x08000ca1   Thumb Code    20  stm32f10x_spi.o(i.SPI_Cmd)
    SPI_Init                                 0x08000cb5   Thumb Code    56  stm32f10x_spi.o(i.SPI_Init)
    SVC_Handler                              0x08000ced   Thumb Code     2  stm32f10x_it.o(i.SVC_Handler)
    SysTick_Handler                          0x08000dc1   Thumb Code     4  main.o(i.SysTick_Handler)
    SystemInit                               0x08000dc5   Thumb Code    64  system_stm32f10x.o(i.SystemInit)
    TestParamF                               0x08000e11   Thumb Code    10  main.o(i.TestParamF)
    USART1_IRQHandler                        0x08000e21   Thumb Code    54  main.o(i.USART1_IRQHandler)
    USART_ClearITPendingBit                  0x08000e5d   Thumb Code    12  stm32f10x_usart.o(i.USART_ClearITPendingBit)
    USART_Cmd                                0x08000e69   Thumb Code    20  stm32f10x_usart.o(i.USART_Cmd)
    USART_GetITStatus                        0x08000e7d   Thumb Code    62  stm32f10x_usart.o(i.USART_GetITStatus)
    USART_ITConfig                           0x08000ebb   Thumb Code    48  stm32f10x_usart.o(i.USART_ITConfig)
    USART_Init                               0x08000eed   Thumb Code   166  stm32f10x_usart.o(i.USART_Init)
    USART_ReceiveData                        0x08000f99   Thumb Code     8  stm32f10x_usart.o(i.USART_ReceiveData)
    UsageFault_Handler                       0x08000fa1   Thumb Code     2  stm32f10x_it.o(i.UsageFault_Handler)
    __0sprintf                               0x08001511   Thumb Code    34  printfa.o(i.__0sprintf)
    __1sprintf                               0x08001511   Thumb Code     0  printfa.o(i.__0sprintf)
    __2sprintf                               0x08001511   Thumb Code     0  printfa.o(i.__0sprintf)
    __c89sprintf                             0x08001511   Thumb Code     0  printfa.o(i.__0sprintf)
    sprintf                                  0x08001511   Thumb Code     0  printfa.o(i.__0sprintf)
    __0vsnprintf                             0x08001539   Thumb Code    40  printfa.o(i.__0vsnprintf)
    __1vsnprintf                             0x08001539   Thumb Code     0  printfa.o(i.__0vsnprintf)
    __2vsnprintf                             0x08001539   Thumb Code     0  printfa.o(i.__0vsnprintf)
    __c89vsnprintf                           0x08001539   Thumb Code     0  printfa.o(i.__0vsnprintf)
    vsnprintf                                0x08001539   Thumb Code     0  printfa.o(i.__0vsnprintf)
    __aeabi_errno_addr                       0x08001565   Thumb Code     4  errno.o(i.__aeabi_errno_addr)
    __rt_errno_addr                          0x08001565   Thumb Code     0  errno.o(i.__aeabi_errno_addr)
    __scatterload_copy                       0x0800156d   Thumb Code    14  handlers.o(i.__scatterload_copy)
    __scatterload_null                       0x0800157b   Thumb Code     2  handlers.o(i.__scatterload_null)
    __scatterload_zeroinit                   0x0800157d   Thumb Code    14  handlers.o(i.__scatterload_zeroinit)
    _shell_init                              0x08001f0d   Thumb Code    42  nr_micro_shell.o(i._shell_init)
    ansi_clear_current_line                  0x08001f69   Thumb Code    14  ansi.o(i.ansi_clear_current_line)
    ansi_get_char                            0x08001f79   Thumb Code   236  ansi.o(i.ansi_get_char)
    ansi_init                                0x08002069   Thumb Code    22  ansi.o(i.ansi_init)
    ansi_search_char                         0x0800207f   Thumb Code    32  ansi.o(i.ansi_search_char)
    ansi_show_char                           0x0800209f   Thumb Code    14  ansi_port.o(i.ansi_show_char)
    ansi_show_str                            0x080020ad   Thumb Code    24  ansi_port.o(i.ansi_show_str)
    bDeviceInit                              0x080020c5   Thumb Code   274  b_device.o(i.bDeviceInit)
    bExec                                    0x08002255   Thumb Code    22  b_core.o(i.bExec)
    bHalGetSysTick                           0x08002275   Thumb Code     6  b_hal.o(i.bHalGetSysTick)
    bHalIncSysTick                           0x08002281   Thumb Code    10  b_hal.o(i.bHalIncSysTick)
    bHalInit                                 0x08002291   Thumb Code    12  b_hal.o(i.bHalInit)
    bHalUartSend                             0x0800229d   Thumb Code     8  b_hal_uart.o(i.bHalUartSend)
    bHalUserInit                             0x080022a5   Thumb Code     2  b_hal.o(i.bHalUserInit)
    bInit                                    0x080022a9   Thumb Code   232  b_core.o(i.bInit)
    bLogOut                                  0x080025b1   Thumb Code   186  b_util_log.o(i.bLogOut)
    bLogOutput                               0x08002679   Thumb Code    22  b_util_log.o(i.bLogOutput)
    bMcuUartSend                             0x08002691   Thumb Code    68  mcu_stm32f10x_uart.o(i.bMcuUartSend)
    bShellInit                               0x080026d9   Thumb Code    18  b_mod_shell.o(i.bShellInit)
    bShellParse                              0x080026f5   Thumb Code    62  b_mod_shell.o(i.bShellParse)
    main                                     0x0800273d   Thumb Code   100  main.o(i.main)
    nr_ansi_ctrl_common_slover               0x080027a9   Thumb Code    30  ansi_port.o(i.nr_ansi_ctrl_common_slover)
    nr_ansi_in_backspace                     0x080027c9   Thumb Code    60  ansi_port.o(i.nr_ansi_in_backspace)
    nr_ansi_in_down                          0x08002815   Thumb Code   108  ansi_port.o(i.nr_ansi_in_down)
    nr_ansi_in_enter                         0x08002899   Thumb Code    38  ansi_port.o(i.nr_ansi_in_enter)
    nr_ansi_in_left                          0x080028c5   Thumb Code    32  ansi_port.o(i.nr_ansi_in_left)
    nr_ansi_in_newline                       0x080028f5   Thumb Code     6  ansi_port.o(i.nr_ansi_in_newline)
    nr_ansi_in_right                         0x080028fd   Thumb Code    36  ansi_port.o(i.nr_ansi_in_right)
    nr_ansi_in_tab                           0x08002931   Thumb Code   174  ansi_port.o(i.nr_ansi_in_tab)
    nr_ansi_in_up                            0x08002a05   Thumb Code   110  ansi_port.o(i.nr_ansi_in_up)
    shell_cmd_complete                       0x08002b19   Thumb Code    54  nr_micro_shell.o(i.shell_cmd_complete)
    shell_his_copy_queue_item                0x08002b59   Thumb Code   124  nr_micro_shell.o(i.shell_his_copy_queue_item)
    shell_his_queue_add_cmd                  0x08002bd5   Thumb Code   170  nr_micro_shell.o(i.shell_his_queue_add_cmd)
    shell_his_queue_init                     0x08002c7f   Thumb Code    16  nr_micro_shell.o(i.shell_his_queue_init)
    shell_his_queue_search_cmd               0x08002c91   Thumb Code   134  nr_micro_shell.o(i.shell_his_queue_search_cmd)
    shell_parser                             0x08002d19   Thumb Code   234  nr_micro_shell.o(i.shell_parser)
    shell_search_cmd                         0x08002e45   Thumb Code    38  nr_micro_shell.o(i.shell_search_cmd)
    nr_ansi_in_special_symbol                0x08002efc   Data           5  ansi.o(.constdata)
    nr_ansi_in_cmd                           0x08002f01   Data          20  ansi.o(.constdata)
    nr_ansi_in_cmd_fun                       0x08002f18   Data          76  ansi.o(.constdata)
    nr_ansi_in_special_symbol_fun            0x08002f64   Data          16  ansi.o(.constdata)
    __ctype_table                            0x08002ff0   Data         129  ctype_o.o(.constdata)
    Region$$Table$$Base                      0x08003130   Number         0  anon$$obj.o(Region$$Table)
    Region$$Table$$Limit                     0x08003150   Number         0  anon$$obj.o(Region$$Table)
    b_mod_param$$Base                        0x08003150   Number         0  main.o(b_mod_param)
    do_TestTick                              0x08003150   Data          12  main.o(b_mod_param)
    b_mod_param$$Limit                       0x0800315c   Number         0  main.o(b_mod_param)
    b_mod_shell$$Base                        0x0800315c   Number         0  b_mod_param.o(b_mod_shell)
    do__ShellParamHandle                     0x0800315c   Data           8  b_mod_param.o(b_mod_shell)
    do__CmdBosHandler                        0x08003164   Data           8  b_mod_shell.o(b_mod_shell)
    b_mod_shell$$Limit                       0x0800316c   Number         0  b_mod_shell.o(b_mod_shell)
    bos_polling$$Base                        0x0800316c   Number         0  b_core.o(bos_polling)
    polling_bCoreMonitor                     0x0800316c   Data           4  b_core.o(bos_polling)
    polling_bUtilUartDetectIdle              0x08003170   Data           4  b_util_uart.o(bos_polling)
    bos_polling$$Limit                       0x08003174   Number         0  b_util_uart.o(bos_polling)
    driver_init$$Base                        0x08003174   Number         0  b_device.o(driver_init)
    init_bDriverNullInit                     0x08003174   Data           8  b_device.o(driver_init)
    driver_init$$Limit                       0x0800317c   Number         0  b_device.o(driver_init)
    driver_init_0$$Base                      0x0800317c   Number         0  b_device.o(driver_init_0)
    init0_bDriverNullInit                    0x0800317c   Data           8  b_device.o(driver_init_0)
    driver_init_0$$Limit                     0x08003184   Number         0  b_device.o(driver_init_0)
    SystemCoreClock                          0x2000001c   Data           4  system_stm32f10x.o(.data)
    AHBPrescTable                            0x20000020   Data          16  system_stm32f10x.o(.data)
    nr_shell                                 0x20000058   Data         148  nr_micro_shell.o(.data)
    nr_ansi                                  0x20000294   Data         132  ansi.o(.bss)
    __initial_sp                             0x20000b18   Data           0  startup_stm32f10x_cl.o(STACK)



==============================================================================

Memory Map of the image

  Image Entry point : 0x08000151

  Load Region LR_IROM1 (Base: 0x08000000, Size: 0x00003278, Max: 0x00040000, ABSOLUTE)

    Execution Region ER_IROM1 (Exec base: 0x08000000, Load base: 0x08000000, Size: 0x00003184, Max: 0x00040000, ABSOLUTE)

    Exec Addr    Load Addr    Size         Type   Attr      Idx    E Section Name        Object

    0x08000000   0x08000000   0x00000150   Data   RO         3436    RESET               startup_stm32f10x_cl.o
    0x08000150   0x08000150   0x00000000   Code   RO         5014  * .ARM.Collect$$$$00000000  mc_w.l(entry.o)
    0x08000150   0x08000150   0x00000004   Code   RO         5330    .ARM.Collect$$$$00000001  mc_w.l(entry2.o)
    0x08000154   0x08000154   0x00000004   Code   RO         5333    .ARM.Collect$$$$00000004  mc_w.l(entry5.o)
    0x08000158   0x08000158   0x00000000   Code   RO         5335    .ARM.Collect$$$$00000008  mc_w.l(entry7b.o)
    0x08000158   0x08000158   0x00000000   Code   RO         5337    .ARM.Collect$$$$0000000A  mc_w.l(entry8b.o)
    0x08000158   0x08000158   0x00000008   Code   RO         5338    .ARM.Collect$$$$0000000B  mc_w.l(entry9a.o)
    0x08000160   0x08000160   0x00000000   Code   RO         5340    .ARM.Collect$$$$0000000D  mc_w.l(entry10a.o)
    0x08000160   0x08000160   0x00000000   Code   RO         5342    .ARM.Collect$$$$0000000F  mc_w.l(entry11a.o)
    0x08000160   0x08000160   0x00000004   Code   RO         5331    .ARM.Collect$$$$00002712  mc_w.l(entry2.o)
    0x08000164   0x08000164   0x00000024   Code   RO         3437    .text               startup_stm32f10x_cl.o
    0x08000188   0x08000188   0x00000008   Code   RO         5017    .text               mc_w.l(ctype_o.o)
    0x08000190   0x08000190   0x00000024   Code   RO         5045    .text               mc_w.l(memcpya.o)
    0x080001b4   0x080001b4   0x00000024   Code   RO         5047    .text               mc_w.l(memseta.o)
    0x080001d8   0x080001d8   0x00000024   Code   RO         5049    .text               mc_w.l(strstr.o)
    0x080001fc   0x080001fc   0x0000000e   Code   RO         5051    .text               mc_w.l(strlen.o)
    0x0800020a   0x0800020a   0x0000001c   Code   RO         5053    .text               mc_w.l(strcmp.o)
    0x08000226   0x08000226   0x00000012   Code   RO         5055    .text               mc_w.l(strcpy.o)
    0x08000238   0x08000238   0x0000001a   Code   RO         5320    .text               mc_w.l(atoi.o)
    0x08000252   0x08000252   0x000000e4   Code   RO         5322    .text               mf_w.l(dmul.o)
    0x08000336   0x08000336   0x000000de   Code   RO         5324    .text               mf_w.l(ddiv.o)
    0x08000414   0x08000414   0x0000001a   Code   RO         5326    .text               mf_w.l(dfltui.o)
    0x0800042e   0x0800042e   0x00000032   Code   RO         5328    .text               mf_w.l(dfixui.o)
    0x08000460   0x08000460   0x0000002c   Code   RO         5345    .text               mc_w.l(uidiv.o)
    0x0800048c   0x0800048c   0x00000062   Code   RO         5347    .text               mc_w.l(uldiv.o)
    0x080004ee   0x080004ee   0x00000020   Code   RO         5349    .text               mc_w.l(llushr.o)
    0x0800050e   0x0800050e   0x00000070   Code   RO         5358    .text               mc_w.l(strtol.o)
    0x0800057e   0x0800057e   0x00000000   Code   RO         5360    .text               mc_w.l(iusefp.o)
    0x0800057e   0x0800057e   0x000000ba   Code   RO         5361    .text               mf_w.l(depilogue.o)
    0x08000638   0x08000638   0x0000014e   Code   RO         5363    .text               mf_w.l(dadd.o)
    0x08000786   0x08000786   0x00000030   Code   RO         5365    .text               mf_w.l(dfixul.o)
    0x080007b6   0x080007b6   0x00000002   PAD
    0x080007b8   0x080007b8   0x00000030   Code   RO         5367    .text               mf_w.l(cdrcmple.o)
    0x080007e8   0x080007e8   0x00000024   Code   RO         5369    .text               mc_w.l(init.o)
    0x0800080c   0x0800080c   0x0000001e   Code   RO         5371    .text               mc_w.l(llshl.o)
    0x0800082a   0x0800082a   0x00000024   Code   RO         5373    .text               mc_w.l(llsshr.o)
    0x0800084e   0x0800084e   0x0000009e   Code   RO         5375    .text               mc_w.l(_strtoul.o)
    0x080008ec   0x080008ec   0x0000001c   Code   RO         5377    .text               mc_w.l(_chval.o)
    0x08000908   0x08000908   0x00000014   Code   RO          436    i.ADC_Cmd           stm32f10x_adc.o
    0x0800091c   0x0800091c   0x00000014   Code   RO          442    i.ADC_ExternalTrigInjectedConvCmd  stm32f10x_adc.o
    0x08000930   0x08000930   0x0000000c   Code   RO          443    i.ADC_ExternalTrigInjectedConvConfig  stm32f10x_adc.o
    0x0800093c   0x0800093c   0x00000012   Code   RO          453    i.ADC_ITConfig      stm32f10x_adc.o
    0x0800094e   0x0800094e   0x00000002   PAD
    0x08000950   0x08000950   0x00000048   Code   RO          454    i.ADC_Init          stm32f10x_adc.o
    0x08000998   0x08000998   0x0000004a   Code   RO          455    i.ADC_InjectedChannelConfig  stm32f10x_adc.o
    0x080009e2   0x080009e2   0x00000010   Code   RO          457    i.ADC_InjectedSequencerLengthConfig  stm32f10x_adc.o
    0x080009f2   0x080009f2   0x00000002   PAD
    0x080009f4   0x080009f4   0x0000001c   Code   RO          465    i.ADC_TempSensorVrefintCmd  stm32f10x_adc.o
    0x08000a10   0x08000a10   0x00000038   Code   RO         4982    i.BoardInit         board.o
    0x08000a48   0x08000a48   0x00000002   Code   RO          333    i.BusFault_Handler  stm32f10x_it.o
    0x08000a4a   0x08000a4a   0x00000002   Code   RO          334    i.DebugMon_Handler  stm32f10x_it.o
    0x08000a4c   0x08000a4c   0x000000a2   Code   RO         1525    i.GPIO_Init         stm32f10x_gpio.o
    0x08000aee   0x08000aee   0x00000004   Code   RO         1533    i.GPIO_SetBits      stm32f10x_gpio.o
    0x08000af2   0x08000af2   0x00000002   Code   RO          335    i.HardFault_Handler  stm32f10x_it.o
    0x08000af4   0x08000af4   0x00000002   Code   RO          336    i.MemManage_Handler  stm32f10x_it.o
    0x08000af6   0x08000af6   0x00000002   Code   RO          337    i.NMI_Handler       stm32f10x_it.o
    0x08000af8   0x08000af8   0x00000064   Code   RO          394    i.NVIC_Init         misc.o
    0x08000b5c   0x08000b5c   0x00000014   Code   RO          395    i.NVIC_PriorityGroupConfig  misc.o
    0x08000b70   0x08000b70   0x00000020   Code   RO            1    i.NVIC_SetPriority  main.o
    0x08000b90   0x08000b90   0x00000002   Code   RO          338    i.PendSV_Handler    stm32f10x_it.o
    0x08000b92   0x08000b92   0x00000002   PAD
    0x08000b94   0x08000b94   0x00000014   Code   RO         1942    i.RCC_ADCCLKConfig  stm32f10x_rcc.o
    0x08000ba8   0x08000ba8   0x00000018   Code   RO         1945    i.RCC_APB1PeriphClockCmd  stm32f10x_rcc.o
    0x08000bc0   0x08000bc0   0x00000018   Code   RO         1947    i.RCC_APB2PeriphClockCmd  stm32f10x_rcc.o
    0x08000bd8   0x08000bd8   0x000000c8   Code   RO         1955    i.RCC_GetClocksFreq  stm32f10x_rcc.o
    0x08000ca0   0x08000ca0   0x00000014   Code   RO         2482    i.SPI_Cmd           stm32f10x_spi.o
    0x08000cb4   0x08000cb4   0x00000038   Code   RO         2495    i.SPI_Init          stm32f10x_spi.o
    0x08000cec   0x08000cec   0x00000002   Code   RO          339    i.SVC_Handler       stm32f10x_it.o
    0x08000cee   0x08000cee   0x00000002   PAD
    0x08000cf0   0x08000cf0   0x000000d0   Code   RO         3405    i.SetSysClockTo72   system_stm32f10x.o
    0x08000dc0   0x08000dc0   0x00000004   Code   RO            2    i.SysTick_Handler   main.o
    0x08000dc4   0x08000dc4   0x0000004c   Code   RO         3407    i.SystemInit        system_stm32f10x.o
    0x08000e10   0x08000e10   0x00000010   Code   RO            3    i.TestParamF        main.o
    0x08000e20   0x08000e20   0x0000003c   Code   RO            4    i.USART1_IRQHandler  main.o
    0x08000e5c   0x08000e5c   0x0000000c   Code   RO         3158    i.USART_ClearITPendingBit  stm32f10x_usart.o
    0x08000e68   0x08000e68   0x00000014   Code   RO         3161    i.USART_Cmd         stm32f10x_usart.o
    0x08000e7c   0x08000e7c   0x0000003e   Code   RO         3165    i.USART_GetITStatus  stm32f10x_usart.o
    0x08000eba   0x08000eba   0x00000030   Code   RO         3167    i.USART_ITConfig    stm32f10x_usart.o
    0x08000eea   0x08000eea   0x00000002   PAD
    0x08000eec   0x08000eec   0x000000ac   Code   RO         3168    i.USART_Init        stm32f10x_usart.o
    0x08000f98   0x08000f98   0x00000008   Code   RO         3175    i.USART_ReceiveData  stm32f10x_usart.o
    0x08000fa0   0x08000fa0   0x00000002   Code   RO          340    i.UsageFault_Handler  stm32f10x_it.o
    0x08000fa2   0x08000fa2   0x00000002   PAD
    0x08000fa4   0x08000fa4   0x0000007c   Code   RO         4983    i._AdcInit          board.o
    0x08001020   0x08001020   0x0000007c   Code   RO         3754    i._CmdBosHandler    b_mod_shell.o
    0x0800109c   0x0800109c   0x00000268   Code   RO         4984    i._GpioInit         board.o
    0x08001304   0x08001304   0x000000dc   Code   RO         3703    i._ShellParamHandle  b_mod_param.o
    0x080013e0   0x080013e0   0x00000090   Code   RO         4985    i._SpiInit          board.o
    0x08001470   0x08001470   0x000000a0   Code   RO         4986    i._UartInit         board.o
    0x08001510   0x08001510   0x00000028   Code   RO         5294    i.__0sprintf        mc_w.l(printfa.o)
    0x08001538   0x08001538   0x0000002c   Code   RO         5297    i.__0vsnprintf      mc_w.l(printfa.o)
    0x08001564   0x08001564   0x00000008   Code   RO         5351    i.__aeabi_errno_addr  mc_w.l(errno.o)
    0x0800156c   0x0800156c   0x0000000e   Code   RO         5381    i.__scatterload_copy  mc_w.l(handlers.o)
    0x0800157a   0x0800157a   0x00000002   Code   RO         5382    i.__scatterload_null  mc_w.l(handlers.o)
    0x0800157c   0x0800157c   0x0000000e   Code   RO         5383    i.__scatterload_zeroinit  mc_w.l(handlers.o)
    0x0800158a   0x0800158a   0x00000002   Code   RO         3443    i._bCoreMonitor     b_core.o
    0x0800158c   0x0800158c   0x00000004   Code   RO         3541    i._bDriverNullInit  b_device.o
    0x08001590   0x08001590   0x0000005c   Code   RO         4287    i._bHalUpdateDelayParam  b_hal.o
    0x080015ec   0x080015ec   0x0000006c   Code   RO         3994    i._bUtilUartDetectIdle  b_util_uart.o
    0x08001658   0x08001658   0x00000184   Code   RO         5299    i._fp_digits        mc_w.l(printfa.o)
    0x080017dc   0x080017dc   0x000006dc   Code   RO         5300    i._printf_core      mc_w.l(printfa.o)
    0x08001eb8   0x08001eb8   0x00000024   Code   RO         5301    i._printf_post_padding  mc_w.l(printfa.o)
    0x08001edc   0x08001edc   0x0000002e   Code   RO         5302    i._printf_pre_padding  mc_w.l(printfa.o)
    0x08001f0a   0x08001f0a   0x00000002   PAD
    0x08001f0c   0x08001f0c   0x0000003c   Code   RO         4903    i._shell_init       nr_micro_shell.o
    0x08001f48   0x08001f48   0x00000016   Code   RO         5303    i._snputc           mc_w.l(printfa.o)
    0x08001f5e   0x08001f5e   0x0000000a   Code   RO         5304    i._sputc            mc_w.l(printfa.o)
    0x08001f68   0x08001f68   0x0000000e   Code   RO         4776    i.ansi_clear_current_line  ansi.o
    0x08001f76   0x08001f76   0x00000002   PAD
    0x08001f78   0x08001f78   0x000000f0   Code   RO         4777    i.ansi_get_char     ansi.o
    0x08002068   0x08002068   0x00000016   Code   RO         4778    i.ansi_init         ansi.o
    0x0800207e   0x0800207e   0x00000020   Code   RO         4779    i.ansi_search_char  ansi.o
    0x0800209e   0x0800209e   0x0000000e   Code   RO         4819    i.ansi_show_char    ansi_port.o
    0x080020ac   0x080020ac   0x00000018   Code   RO         4820    i.ansi_show_str     ansi_port.o
    0x080020c4   0x080020c4   0x00000190   Code   RO         3545    i.bDeviceInit       b_device.o
    0x08002254   0x08002254   0x00000020   Code   RO         3447    i.bExec             b_core.o
    0x08002274   0x08002274   0x0000000c   Code   RO         4290    i.bHalGetSysTick    b_hal.o
    0x08002280   0x08002280   0x00000010   Code   RO         4291    i.bHalIncSysTick    b_hal.o
    0x08002290   0x08002290   0x0000000c   Code   RO         4292    i.bHalInit          b_hal.o
    0x0800229c   0x0800229c   0x00000008   Code   RO         4661    i.bHalUartSend      b_hal_uart.o
    0x080022a4   0x080022a4   0x00000002   Code   RO         4293    i.bHalUserInit      b_hal.o
    0x080022a6   0x080022a6   0x00000002   PAD
    0x080022a8   0x080022a8   0x00000308   Code   RO         3448    i.bInit             b_core.o
    0x080025b0   0x080025b0   0x000000c8   Code   RO         3927    i.bLogOut           b_util_log.o
    0x08002678   0x08002678   0x00000016   Code   RO         3928    i.bLogOutput        b_util_log.o
    0x0800268e   0x0800268e   0x00000002   PAD
    0x08002690   0x08002690   0x00000048   Code   RO         4265    i.bMcuUartSend      mcu_stm32f10x_uart.o
    0x080026d8   0x080026d8   0x0000001c   Code   RO         3755    i.bShellInit        b_mod_shell.o
    0x080026f4   0x080026f4   0x00000048   Code   RO         3756    i.bShellParse       b_mod_shell.o
    0x0800273c   0x0800273c   0x0000006c   Code   RO            5    i.main              main.o
    0x080027a8   0x080027a8   0x0000001e   Code   RO         4821    i.nr_ansi_ctrl_common_slover  ansi_port.o
    0x080027c6   0x080027c6   0x00000002   PAD
    0x080027c8   0x080027c8   0x0000004c   Code   RO         4822    i.nr_ansi_in_backspace  ansi_port.o
    0x08002814   0x08002814   0x00000084   Code   RO         4823    i.nr_ansi_in_down   ansi_port.o
    0x08002898   0x08002898   0x0000002c   Code   RO         4824    i.nr_ansi_in_enter  ansi_port.o
    0x080028c4   0x080028c4   0x00000030   Code   RO         4825    i.nr_ansi_in_left   ansi_port.o
    0x080028f4   0x080028f4   0x00000006   Code   RO         4826    i.nr_ansi_in_newline  ansi_port.o
    0x080028fa   0x080028fa   0x00000002   PAD
    0x080028fc   0x080028fc   0x00000034   Code   RO         4827    i.nr_ansi_in_right  ansi_port.o
    0x08002930   0x08002930   0x000000d4   Code   RO         4828    i.nr_ansi_in_tab    ansi_port.o
    0x08002a04   0x08002a04   0x00000088   Code   RO         4829    i.nr_ansi_in_up     ansi_port.o
    0x08002a8c   0x08002a8c   0x0000008c   Code   RO         4904    i.nr_shell_strtok   nr_micro_shell.o
    0x08002b18   0x08002b18   0x00000040   Code   RO         4905    i.shell_cmd_complete  nr_micro_shell.o
    0x08002b58   0x08002b58   0x0000007c   Code   RO         4906    i.shell_his_copy_queue_item  nr_micro_shell.o
    0x08002bd4   0x08002bd4   0x000000aa   Code   RO         4907    i.shell_his_queue_add_cmd  nr_micro_shell.o
    0x08002c7e   0x08002c7e   0x00000010   Code   RO         4908    i.shell_his_queue_init  nr_micro_shell.o
    0x08002c8e   0x08002c8e   0x00000002   PAD
    0x08002c90   0x08002c90   0x00000086   Code   RO         4909    i.shell_his_queue_search_cmd  nr_micro_shell.o
    0x08002d16   0x08002d16   0x00000002   PAD
    0x08002d18   0x08002d18   0x0000012c   Code   RO         4910    i.shell_parser      nr_micro_shell.o
    0x08002e44   0x08002e44   0x00000030   Code   RO         4911    i.shell_search_cmd  nr_micro_shell.o
    0x08002e74   0x08002e74   0x00000006   Data   RO         3456    .constdata          b_core.o
    0x08002e7a   0x08002e7a   0x00000059   Data   RO         3555    .constdata          b_device.o
    0x08002ed3   0x08002ed3   0x00000012   Data   RO         3704    .constdata          b_mod_param.o
    0x08002ee5   0x08002ee5   0x0000000f   Data   RO         3757    .constdata          b_mod_shell.o
    0x08002ef4   0x08002ef4   0x00000006   Data   RO         3931    .constdata          b_util_log.o
    0x08002efa   0x08002efa   0x00000002   PAD
    0x08002efc   0x08002efc   0x00000078   Data   RO         4781    .constdata          ansi.o
    0x08002f74   0x08002f74   0x00000063   Data   RO         4830    .constdata          ansi_port.o
    0x08002fd7   0x08002fd7   0x00000019   Data   RO         4912    .constdata          nr_micro_shell.o
    0x08002ff0   0x08002ff0   0x00000081   Data   RO         5018    .constdata          mc_w.l(ctype_o.o)
    0x08003071   0x08003071   0x00000003   PAD
    0x08003074   0x08003074   0x00000004   Data   RO         5019    .constdata          mc_w.l(ctype_o.o)
    0x08003078   0x08003078   0x00000011   Data   RO         3556    .conststring        b_device.o
    0x08003089   0x08003089   0x00000003   PAD
    0x0800308c   0x0800308c   0x00000041   Data   RO         4831    .conststring        ansi_port.o
    0x080030cd   0x080030cd   0x00000003   PAD
    0x080030d0   0x080030d0   0x00000046   Data   RO         4913    .conststring        nr_micro_shell.o
    0x08003116   0x08003116   0x00000002   PAD
    0x08003118   0x08003118   0x00000009   Data   RO            6    .conststrlit        main.o
    0x08003121   0x08003121   0x00000003   PAD
    0x08003124   0x08003124   0x00000006   Data   RO         3705    .conststrlit        b_mod_param.o
    0x0800312a   0x0800312a   0x00000002   PAD
    0x0800312c   0x0800312c   0x00000004   Data   RO         3758    .conststrlit        b_mod_shell.o
    0x08003130   0x08003130   0x00000020   Data   RO         5379    Region$$Table       anon$$obj.o
    0x08003150   0x08003150   0x0000000c   Data   RO            8    b_mod_param         main.o
    0x0800315c   0x0800315c   0x00000008   Data   RO         3706    b_mod_shell         b_mod_param.o
    0x08003164   0x08003164   0x00000008   Data   RO         3759    b_mod_shell         b_mod_shell.o
    0x0800316c   0x0800316c   0x00000004   Data   RO         3458    bos_polling         b_core.o
    0x08003170   0x08003170   0x00000004   Data   RO         4003    bos_polling         b_util_uart.o
    0x08003174   0x08003174   0x00000008   Data   RO         3558    driver_init         b_device.o
    0x0800317c   0x0800317c   0x00000008   Data   RO         3559    driver_init_0       b_device.o


    Execution Region RW_IRAM1 (Exec base: 0x20000000, Load base: 0x08003184, Size: 0x00000b18, Max: 0x00010000, ABSOLUTE)

    Exec Addr    Load Addr    Size         Type   Attr      Idx    E Section Name        Object

    0x20000000   0x08003184   0x00000008   Data   RW            7    .data               main.o
    0x20000008   0x0800318c   0x00000014   Data   RW         1983    .data               stm32f10x_rcc.o
    0x2000001c   0x080031a0   0x00000014   Data   RW         3408    .data               system_stm32f10x.o
    0x20000030   0x080031b4   0x0000000c   Data   RW         3557    .data               b_device.o
    0x2000003c   0x080031c0   0x00000014   Data   RW         4266    .data               mcu_stm32f10x_uart.o
    0x20000050   0x080031d4   0x00000008   Data   RW         4294    .data               b_hal.o
    0x20000058   0x080031dc   0x00000094   Data   RW         4914    .data               nr_micro_shell.o
    0x200000ec   0x08003270   0x00000004   Data   RW         4915    .data               nr_micro_shell.o
    0x200000f0   0x08003274   0x00000004   Data   RW         5354    .data               mc_w.l(errno.o)
    0x200000f4        -       0x00000058   Zero   RW         3553    .bss                b_device.o
    0x2000014c        -       0x00000100   Zero   RW         3930    .bss                b_util_log.o
    0x2000024c        -       0x00000048   Zero   RW         4001    .bss                b_util_uart.o
    0x20000294        -       0x00000084   Zero   RW         4780    .bss                ansi.o
    0x20000318        -       0x00000800   Zero   RW         3434    STACK               startup_stm32f10x_cl.o


==============================================================================

Image component sizes


      Code (inc. data)   RO Data    RW Data    ZI Data      Debug   Object Name

       308          4        120          0        132       6981   ansi.o
       774        142        164          0          0      12289   ansi_port.o
       810        554         10          0          0       2582   b_core.o
       404        126        122         12         88       7000   b_device.o
       134         26          0          8          0       2984   b_hal.o
         8          0          0          0          0        955   b_hal_uart.o
       220         78         32          0          0       2670   b_mod_param.o
       224         98         27          0          0       2459   b_mod_shell.o
       222         14          6          0        256       2979   b_util_log.o
       108          6          4          0         72       2426   b_util_uart.o
      1100         42          0          0          0       3488   board.o
         0          0          0          0          0         32   core_cm3.o
       220         20         21          8          0     296607   main.o
        72          4          0         20          0       2831   mcu_stm32f10x_uart.o
       120         16          0          0          0       1687   misc.o
      1056        108         95        152          0       9989   nr_micro_shell.o
        36          8        336          0       2048        916   startup_stm32f10x_cl.o
       260         16          0          0          0       7478   stm32f10x_adc.o
       166          0          0          0          0       2583   stm32f10x_gpio.o
        16          0          0          0          0       3276   stm32f10x_it.o
       268         40          0         20          0       6193   stm32f10x_rcc.o
        76          0          0          0          0       2333   stm32f10x_spi.o
       322          6          0          0          0       6024   stm32f10x_usart.o
       284         30          0         20          0       2165   system_stm32f10x.o

    ----------------------------------------------------------------------
      7234       1338        984        240       2596     388927   Object Totals
         0          0         32          0          0          0   (incl. Generated)
        26          0         15          0          0          0   (incl. Padding)

    ----------------------------------------------------------------------

      Code (inc. data)   RO Data    RW Data    ZI Data      Debug   Library Member Name

        28          0          0          0          0         68   _chval.o
       158          0          0          0          0         92   _strtoul.o
        26          0          0          0          0         80   atoi.o
         8          4        133          0          0         68   ctype_o.o
         0          0          0          0          0          0   entry.o
         0          0          0          0          0          0   entry10a.o
         0          0          0          0          0          0   entry11a.o
         8          4          0          0          0          0   entry2.o
         4          0          0          0          0          0   entry5.o
         0          0          0          0          0          0   entry7b.o
         0          0          0          0          0          0   entry8b.o
         8          4          0          0          0          0   entry9a.o
         8          4          0          4          0         68   errno.o
        30          0          0          0          0          0   handlers.o
        36          8          0          0          0         68   init.o
         0          0          0          0          0          0   iusefp.o
        30          0          0          0          0         68   llshl.o
        36          0          0          0          0         68   llsshr.o
        32          0          0          0          0         68   llushr.o
        36          0          0          0          0         68   memcpya.o
        36          0          0          0          0        108   memseta.o
      2342         90          0          0          0        668   printfa.o
        28          0          0          0          0         76   strcmp.o
        18          0          0          0          0         68   strcpy.o
        14          0          0          0          0         68   strlen.o
        36          0          0          0          0         80   strstr.o
       112          0          0          0          0         88   strtol.o
        44          0          0          0          0         80   uidiv.o
        98          0          0          0          0         92   uldiv.o
        48          0          0          0          0         68   cdrcmple.o
       334          0          0          0          0        148   dadd.o
       222          0          0          0          0        100   ddiv.o
       186          0          0          0          0        176   depilogue.o
        50          0          0          0          0         76   dfixui.o
        48          0          0          0          0         68   dfixul.o
        26          0          0          0          0         76   dfltui.o
       228          0          0          0          0         96   dmul.o

    ----------------------------------------------------------------------
      4322        114        136          4          0       2852   Library Totals
         4          0          3          0          0          0   (incl. Padding)

    ----------------------------------------------------------------------

      Code (inc. data)   RO Data    RW Data    ZI Data      Debug   Library Name

      3176        114        133          4          0       2044   mc_w.l
      1142          0          0          0          0        808   mf_w.l

    ----------------------------------------------------------------------
      4322        114        136          4          0       2852   Library Totals

    ----------------------------------------------------------------------

==============================================================================


      Code (inc. data)   RO Data    RW Data    ZI Data      Debug   

     11556       1452       1120        244       2596     385951   Grand Totals
     11556       1452       1120        244       2596     385951   ELF Image Totals
     11556       1452       1120        244          0          0   ROM Totals

==============================================================================

    Total RO  Size (Code + RO Data)                12676 (  12.38kB)
    Total RW  Size (RW Data + ZI Data)              2840 (   2.77kB)
    Total ROM Size (Code + RO Data + RW Data)      12920 (  12.62kB)

==============================================================================

