Component: ARM Compiler 5.06 update 6 (build 750) Tool: armlink [4d35ed]

==============================================================================

Section Cross References

    main.o(i.SysTick_Handler) refers to b_hal.o(i.bHalIncSysTick) for bHalIncSysTick
    main.o(i.USART1_IRQHandler) refers to stm32f10x_usart.o(i.USART_GetITStatus) for USART_GetITStatus
    main.o(i.USART1_IRQHandler) refers to stm32f10x_usart.o(i.USART_ClearITPendingBit) for USART_ClearITPendingBit
    main.o(i.USART1_IRQHandler) refers to stm32f10x_usart.o(i.USART_ReceiveData) for USART_ReceiveData
    main.o(i.USART1_IRQHandler) refers to b_util_uart.o(i.bUtilUartRxHandler) for bUtilUartRxHandler
    main.o(i.USART1_IRQHandler) refers to main.o(.data) for .data
    main.o(i.UartIdleCallback) refers to b_mod_xm128.o(i.bXmodem128Parse) for bXmodem128Parse
    main.o(i.XModemCallback) refers to memcpya.o(.text) for __aeabi_memcpy
    main.o(i.XModemCallback) refers to main.o(.bss) for .bss
    main.o(i.XModemCallback) refers to main.o(.data) for .data
    main.o(i.XmodemSend) refers to b_hal_uart.o(i.bHalUartSend) for bHalUartSend
    main.o(i.main) refers to board.o(i.BoardInit) for BoardInit
    main.o(i.main) refers to main.o(i.NVIC_SetPriority) for NVIC_SetPriority
    main.o(i.main) refers to b_core.o(i.bInit) for bInit
    main.o(i.main) refers to b_mod_xm128.o(i.bXmodem128Init) for bXmodem128Init
    main.o(i.main) refers to b_mod_xm128.o(i.bXmodem128Start) for bXmodem128Start
    main.o(i.main) refers to b_core.o(i.bExec) for bExec
    main.o(i.main) refers to system_stm32f10x.o(.data) for SystemCoreClock
==============================================================================

Removing Unused input sections from the image.

    Removing misc.o(i.NVIC_SetVectorTable), (20 bytes).
    Removing misc.o(i.NVIC_SystemLPConfig), (24 bytes).
    Removing misc.o(i.SysTick_CLKSourceConfig), (24 bytes).
    Removing stm32f10x_adc.o(i.ADC_AnalogWatchdogCmd), (16 bytes).
    Removing stm32f10x_adc.o(i.ADC_AnalogWatchdogSingleChannelConfig), (12 bytes).
    Removing stm32f10x_adc.o(i.ADC_AnalogWatchdogThresholdsConfig), (6 bytes).
    Removing stm32f10x_adc.o(i.ADC_AutoInjectedConvCmd), (20 bytes).
    Removing stm32f10x_adc.o(i.ADC_ClearFlag), (6 bytes).
    Removing stm32f10x_adc.o(i.ADC_ClearITPendingBit), (8 bytes).
    Removing stm32f10x_adc.o(i.ADC_DMACmd), (20 bytes).
    Removing stm32f10x_adc.o(i.ADC_DeInit), (68 bytes).
    Removing stm32f10x_adc.o(i.ADC_DiscModeChannelCountConfig), (16 bytes).
    Removing stm32f10x_adc.o(i.ADC_DiscModeCmd), (20 bytes).
    Removing stm32f10x_adc.o(i.ADC_ExternalTrigConvCmd), (20 bytes).
    Removing stm32f10x_adc.o(i.ADC_GetCalibrationStatus), (14 bytes).
    Removing stm32f10x_adc.o(i.ADC_GetConversionValue), (6 bytes).
    Removing stm32f10x_adc.o(i.ADC_GetDualModeConversionValue), (12 bytes).
    Removing stm32f10x_adc.o(i.ADC_GetFlagStatus), (14 bytes).
==============================================================================

Image Symbol Table

    Local Symbols

    Symbol Name                              Value     Ov Type        Size  Object(Section)

    ../clib/microlib/division.c              0x00000000   Number         0  uldiv.o ABSOLUTE
    ../clib/microlib/division.c              0x00000000   Number         0  uidiv.o ABSOLUTE
    ../clib/microlib/init/entry.s            0x00000000   Number         0  entry5.o ABSOLUTE
    ../clib/microlib/init/entry.s            0x00000000   Number         0  entry11a.o ABSOLUTE
    ../clib/microlib/init/entry.s            0x00000000   Number         0  entry11b.o ABSOLUTE
    ../clib/microlib/init/entry.s            0x00000000   Number         0  entry.o ABSOLUTE
    ../clib/microlib/init/entry.s            0x00000000   Number         0  entry10a.o ABSOLUTE
    ../clib/microlib/init/entry.s            0x00000000   Number         0  entry9b.o ABSOLUTE
    ../clib/microlib/init/entry.s            0x00000000   Number         0  entry2.o ABSOLUTE
    ../clib/microlib/init/entry.s            0x00000000   Number         0  entry8a.o ABSOLUTE
    ../clib/microlib/init/entry.s            0x00000000   Number         0  entry9a.o ABSOLUTE
    ../clib/microlib/init/entry.s            0x00000000   Number         0  entry8b.o ABSOLUTE
    ../clib/microlib/init/entry.s            0x00000000   Number         0  entry7a.o ABSOLUTE
    ../clib/microlib/init/entry.s            0x00000000   Number         0  entry7b.o ABSOLUTE
    ../clib/microlib/init/entry.s            0x00000000   Number         0  entry10b.o ABSOLUTE
    ../clib/microlib/longlong.c              0x00000000   Number         0  llsshr.o ABSOLUTE
    ../clib/microlib/longlong.c              0x00000000   Number         0  llshl.o ABSOLUTE
    ../clib/microlib/longlong.c              0x00000000   Number         0  llushr.o ABSOLUTE
    ../clib/microlib/printf/printf.c         0x00000000   Number         0  printf6.o ABSOLUTE
    ../clib/microlib/printf/printf.c         0x00000000   Number         0  printf7.o ABSOLUTE
    ../clib/microlib/printf/printf.c         0x00000000   Number         0  printfb.o ABSOLUTE
    ../clib/microlib/printf/printf.c         0x00000000   Number         0  printf0.o ABSOLUTE
    ../clib/microlib/printf/printf.c         0x00000000   Number         0  printf2.o ABSOLUTE
    ../clib/microlib/printf/printf.c         0x00000000   Number         0  printf4.o ABSOLUTE
    ../clib/microlib/printf/printf.c         0x00000000   Number         0  printf5.o ABSOLUTE
    ../clib/microlib/printf/printf.c         0x00000000   Number         0  printf3.o ABSOLUTE
    ../clib/microlib/printf/printf.c         0x00000000   Number         0  printf8.o ABSOLUTE
    ../clib/microlib/printf/printf.c         0x00000000   Number         0  printfa.o ABSOLUTE
    ../clib/microlib/printf/printf.c         0x00000000   Number         0  printf1.o ABSOLUTE
    ../clib/microlib/printf/stubs.s          0x00000000   Number         0  stubs.o ABSOLUTE
    ../clib/microlib/stdio/streams.c         0x00000000   Number         0  stdout.o ABSOLUTE
    ../clib/microlib/string/memcpy.c         0x00000000   Number         0  memcpyb.o ABSOLUTE
    ../clib/microlib/string/memcpy.c         0x00000000   Number         0  memcpya.o ABSOLUTE
    ../clib/microlib/string/memset.c         0x00000000   Number         0  memseta.o ABSOLUTE
    ../clib/microlib/string/strlen.c         0x00000000   Number         0  strlen.o ABSOLUTE
    ../clib/microlib/stubs.s                 0x00000000   Number         0  iusefp.o ABSOLUTE
    ../fplib/microlib/fpadd.c                0x00000000   Number         0  dadd.o ABSOLUTE
    ../fplib/microlib/fpdiv.c                0x00000000   Number         0  ddiv.o ABSOLUTE
    ../fplib/microlib/fpepilogue.c           0x00000000   Number         0  depilogue.o ABSOLUTE
    ../fplib/microlib/fpfix.c                0x00000000   Number         0  dfixul.o ABSOLUTE
    ../fplib/microlib/fpfix.c                0x00000000   Number         0  dfixui.o ABSOLUTE
    ../fplib/microlib/fpflt.c                0x00000000   Number         0  dfltui.o ABSOLUTE
    ../fplib/microlib/fpmul.c                0x00000000   Number         0  dmul.o ABSOLUTE
    ..\..\..\..\Libraries\CMSIS\CM3\CoreSupport\core_cm3.c 0x00000000   Number         0  core_cm3.o ABSOLUTE
    ..\..\..\..\Libraries\CMSIS\CM3\DeviceSupport\ST\STM32F10x\startup\arm\startup_stm32f10x_cl.s 0x00000000   Number         0  startup_stm32f10x_cl.o ABSOLUTE
    ..\..\..\..\Libraries\CMSIS\CM3\DeviceSupport\ST\STM32F10x\system_stm32f10x.c 0x00000000   Number         0  system_stm32f10x.o ABSOLUTE
    ..\..\..\..\Libraries\STM32F10x_StdPeriph_Driver\src\misc.c 0x00000000   Number         0  misc.o ABSOLUTE
    ..\..\..\..\Libraries\STM32F10x_StdPeriph_Driver\src\stm32f10x_adc.c 0x00000000   Number         0  stm32f10x_adc.o ABSOLUTE
    ..\..\..\..\Libraries\STM32F10x_StdPeriph_Driver\src\stm32f10x_bkp.c 0x00000000   Number         0  stm32f10x_bkp.o ABSOLUTE
    ..\..\..\..\Libraries\STM32F10x_StdPeriph_Driver\src\stm32f10x_can.c 0x00000000   Number         0  stm32f10x_can.o ABSOLUTE
    ..\..\..\..\Libraries\STM32F10x_StdPeriph_Driver\src\stm32f10x_cec.c 0x00000000   Number         0  stm32f10x_cec.o ABSOLUTE
    ..\..\..\..\Libraries\STM32F10x_StdPeriph_Driver\src\stm32f10x_crc.c 0x00000000   Number         0  stm32f10x_crc.o ABSOLUTE
    ..\..\..\..\Libraries\STM32F10x_StdPeriph_Driver\src\stm32f10x_dac.c 0x00000000   Number         0  stm32f10x_dac.o ABSOLUTE
    ..\..\..\..\Libraries\STM32F10x_StdPeriph_Driver\src\stm32f10x_dbgmcu.c 0x00000000   Number         0  stm32f10x_dbgmcu.o ABSOLUTE
    ..\..\..\..\Libraries\STM32F10x_StdPeriph_Driver\src\stm32f10x_dma.c 0x00000000   Number         0  stm32f10x_dma.o ABSOLUTE
    ..\..\..\..\Libraries\STM32F10x_StdPeriph_Driver\src\stm32f10x_exti.c 0x00000000   Number         0  stm32f10x_exti.o ABSOLUTE
    ..\..\..\..\Libraries\STM32F10x_StdPeriph_Driver\src\stm32f10x_flash.c 0x00000000   Number         0  stm32f10x_flash.o ABSOLUTE
    ..\..\..\..\Libraries\STM32F10x_StdPeriph_Driver\src\stm32f10x_fsmc.c 0x00000000   Number         0  stm32f10x_fsmc.o ABSOLUTE
    ..\..\..\..\Libraries\STM32F10x_StdPeriph_Driver\src\stm32f10x_gpio.c 0x00000000   Number         0  stm32f10x_gpio.o ABSOLUTE
    ..\..\..\..\Libraries\STM32F10x_StdPeriph_Driver\src\stm32f10x_i2c.c 0x00000000   Number         0  stm32f10x_i2c.o ABSOLUTE
    ..\..\..\..\Libraries\STM32F10x_StdPeriph_Driver\src\stm32f10x_iwdg.c 0x00000000   Number         0  stm32f10x_iwdg.o ABSOLUTE
    ..\..\..\..\Libraries\STM32F10x_StdPeriph_Driver\src\stm32f10x_pwr.c 0x00000000   Number         0  stm32f10x_pwr.o ABSOLUTE
    ..\..\..\..\Libraries\STM32F10x_StdPeriph_Driver\src\stm32f10x_rcc.c 0x00000000   Number         0  stm32f10x_rcc.o ABSOLUTE
    ..\..\..\..\Libraries\STM32F10x_StdPeriph_Driver\src\stm32f10x_rtc.c 0x00000000   Number         0  stm32f10x_rtc.o ABSOLUTE
    ..\..\..\..\Libraries\STM32F10x_StdPeriph_Driver\src\stm32f10x_sdio.c 0x00000000   Number         0  stm32f10x_sdio.o ABSOLUTE
    ..\..\..\..\Libraries\STM32F10x_StdPeriph_Driver\src\stm32f10x_spi.c 0x00000000   Number         0  stm32f10x_spi.o ABSOLUTE
    ..\..\..\..\Libraries\STM32F10x_StdPeriph_Driver\src\stm32f10x_tim.c 0x00000000   Number         0  stm32f10x_tim.o ABSOLUTE
    ..\..\..\..\Libraries\STM32F10x_StdPeriph_Driver\src\stm32f10x_usart.c 0x00000000   Number         0  stm32f10x_usart.o ABSOLUTE
    ..\..\..\..\Libraries\STM32F10x_StdPeriph_Driver\src\stm32f10x_wwdg.c 0x00000000   Number         0  stm32f10x_wwdg.o ABSOLUTE
    ..\..\..\..\babyos\bos\core\b_core.c     0x00000000   Number         0  b_core.o ABSOLUTE
    ..\..\..\..\babyos\bos\core\b_device.c   0x00000000   Number         0  b_device.o ABSOLUTE
    ..\..\..\..\babyos\bos\drivers\b_drv_spiflash.c 0x00000000   Number         0  b_drv_spiflash.o ABSOLUTE
    ..\..\..\..\babyos\bos\drivers\sfud\sfud.c 0x00000000   Number         0  sfud.o ABSOLUTE
    ..\..\..\..\babyos\bos\drivers\sfud\sfud_sfdp.c 0x00000000   Number         0  sfud_sfdp.o ABSOLUTE
    ..\..\..\..\babyos\bos\hal\b_hal.c       0x00000000   Number         0  b_hal.o ABSOLUTE
    ..\..\..\..\babyos\bos\hal\b_hal_flash.c 0x00000000   Number         0  b_hal_flash.o ABSOLUTE
    ..\..\..\..\babyos\bos\hal\b_hal_gpio.c  0x00000000   Number         0  b_hal_gpio.o ABSOLUTE
    ..\..\..\..\babyos\bos\hal\b_hal_i2c.c   0x00000000   Number         0  b_hal_i2c.o ABSOLUTE
    ..\..\..\..\babyos\bos\hal\b_hal_it.c    0x00000000   Number         0  b_hal_it.o ABSOLUTE
    ..\..\..\..\babyos\bos\hal\b_hal_qspi.c  0x00000000   Number         0  b_hal_qspi.o ABSOLUTE
    ..\..\..\..\babyos\bos\hal\b_hal_spi.c   0x00000000   Number         0  b_hal_spi.o ABSOLUTE
    ..\..\..\..\babyos\bos\hal\b_hal_uart.c  0x00000000   Number         0  b_hal_uart.o ABSOLUTE
    ..\..\..\..\babyos\bos\mcu\st\stm32f10x\mcu_stm32f10x_flash.c 0x00000000   Number         0  mcu_stm32f10x_flash.o ABSOLUTE
    ..\..\..\..\babyos\bos\mcu\st\stm32f10x\mcu_stm32f10x_gpio.c 0x00000000   Number         0  mcu_stm32f10x_gpio.o ABSOLUTE
    ..\..\..\..\babyos\bos\mcu\st\stm32f10x\mcu_stm32f10x_i2c.c 0x00000000   Number         0  mcu_stm32f10x_i2c.o ABSOLUTE
    ..\..\..\..\babyos\bos\mcu\st\stm32f10x\mcu_stm32f10x_it.c 0x00000000   Number         0  mcu_stm32f10x_it.o ABSOLUTE
    ..\..\..\..\babyos\bos\mcu\st\stm32f10x\mcu_stm32f10x_spi.c 0x00000000   Number         0  mcu_stm32f10x_spi.o ABSOLUTE
    ..\..\..\..\babyos\bos\mcu\st\stm32f10x\mcu_stm32f10x_uart.c 0x00000000   Number         0  mcu_stm32f10x_uart.o ABSOLUTE
    ..\..\..\..\babyos\bos\modules\b_mod_adchub.c 0x00000000   Number         0  b_mod_adchub.o ABSOLUTE
    ..\..\..\..\babyos\bos\modules\b_mod_button.c 0x00000000   Number         0  b_mod_button.o ABSOLUTE
    ..\..\..\..\babyos\bos\modules\b_mod_error.c 0x00000000   Number         0  b_mod_error.o ABSOLUTE
    ..\..\..\..\babyos\bos\modules\b_mod_fs.c 0x00000000   Number         0  b_mod_fs.o ABSOLUTE
    ..\..\..\..\babyos\bos\modules\b_mod_gui.c 0x00000000   Number         0  b_mod_gui.o ABSOLUTE
    ..\..\..\..\babyos\bos\modules\b_mod_kv.c 0x00000000   Number         0  b_mod_kv.o ABSOLUTE
    ..\..\..\..\babyos\bos\modules\b_mod_menu.c 0x00000000   Number         0  b_mod_menu.o ABSOLUTE
    ..\..\..\..\babyos\bos\modules\b_mod_modbus.c 0x00000000   Number         0  b_mod_modbus.o ABSOLUTE
    ..\..\..\..\babyos\bos\modules\b_mod_param.c 0x00000000   Number         0  b_mod_param.o ABSOLUTE
    ..\..\..\..\babyos\bos\modules\b_mod_protocol.c 0x00000000   Number         0  b_mod_protocol.o ABSOLUTE
    ..\..\..\..\babyos\bos\modules\b_mod_pwm.c 0x00000000   Number         0  b_mod_pwm.o ABSOLUTE
    ..\..\..\..\babyos\bos\modules\b_mod_shell.c 0x00000000   Number         0  b_mod_shell.o ABSOLUTE
    ..\..\..\..\babyos\bos\modules\b_mod_timer.c 0x00000000   Number         0  b_mod_timer.o ABSOLUTE
    ..\..\..\..\babyos\bos\modules\b_mod_trace.c 0x00000000   Number         0  b_mod_trace.o ABSOLUTE
    ..\..\..\..\babyos\bos\modules\b_mod_xm128.c 0x00000000   Number         0  b_mod_xm128.o ABSOLUTE
    ..\..\..\..\babyos\bos\modules\b_mod_ymodem.c 0x00000000   Number         0  b_mod_ymodem.o ABSOLUTE
    ..\..\..\..\babyos\bos\thirdparty\nr_micro_shell\src\ansi.c 0x00000000   Number         0  ansi.o ABSOLUTE
    ..\..\..\..\babyos\bos\thirdparty\nr_micro_shell\src\ansi_port.c 0x00000000   Number         0  ansi_port.o ABSOLUTE
    ..\..\..\..\babyos\bos\thirdparty\nr_micro_shell\src\nr_micro_shell.c 0x00000000   Number         0  nr_micro_shell.o ABSOLUTE
    ..\..\..\..\babyos\bos\utils\b_util_fifo.c 0x00000000   Number         0  b_util_fifo.o ABSOLUTE
    ..\..\..\..\babyos\bos\utils\b_util_i2c.c 0x00000000   Number         0  b_util_i2c.o ABSOLUTE
    ..\..\..\..\babyos\bos\utils\b_util_log.c 0x00000000   Number         0  b_util_log.o ABSOLUTE
    ..\..\..\..\babyos\bos\utils\b_util_lunar.c 0x00000000   Number         0  b_util_lunar.o ABSOLUTE
    ..\..\..\..\babyos\bos\utils\b_util_spi.c 0x00000000   Number         0  b_util_spi.o ABSOLUTE
    ..\..\..\..\babyos\bos\utils\b_util_uart.c 0x00000000   Number         0  b_util_uart.o ABSOLUTE
    ..\..\..\..\babyos\bos\utils\b_util_utc.c 0x00000000   Number         0  b_util_utc.o ABSOLUTE
    ..\..\..\..\board\board.c                0x00000000   Number         0  board.o ABSOLUTE
    ..\\..\\..\\..\\Libraries\\CMSIS\\CM3\\CoreSupport\\core_cm3.c 0x00000000   Number         0  core_cm3.o ABSOLUTE
    ..\main.c                                0x00000000   Number         0  main.o ABSOLUTE
    ..\stm32f10x_it.c                        0x00000000   Number         0  stm32f10x_it.o ABSOLUTE
    cdrcmple.s                               0x00000000   Number         0  cdrcmple.o ABSOLUTE
    dc.s                                     0x00000000   Number         0  dc.o ABSOLUTE
    handlers.s                               0x00000000   Number         0  handlers.o ABSOLUTE
    init.s                                   0x00000000   Number         0  init.o ABSOLUTE
    RESET                                    0x08000000   Section      336  startup_stm32f10x_cl.o(RESET)
    .ARM.Collect$$$$00000000                 0x08000150   Section        0  entry.o(.ARM.Collect$$$$00000000)
    .ARM.Collect$$$$00000001                 0x08000150   Section        4  entry2.o(.ARM.Collect$$$$00000001)
    .ARM.Collect$$$$00000004                 0x08000154   Section        4  entry5.o(.ARM.Collect$$$$00000004)
    .ARM.Collect$$$$00000008                 0x08000158   Section        0  entry7b.o(.ARM.Collect$$$$00000008)
    .ARM.Collect$$$$0000000A                 0x08000158   Section        0  entry8b.o(.ARM.Collect$$$$0000000A)
    .ARM.Collect$$$$0000000B                 0x08000158   Section        8  entry9a.o(.ARM.Collect$$$$0000000B)
    .ARM.Collect$$$$0000000D                 0x08000160   Section        0  entry10a.o(.ARM.Collect$$$$0000000D)
    .ARM.Collect$$$$0000000F                 0x08000160   Section        0  entry11a.o(.ARM.Collect$$$$0000000F)
    .ARM.Collect$$$$00002712                 0x08000160   Section        4  entry2.o(.ARM.Collect$$$$00002712)
    __lit__00000000                          0x08000160   Data           4  entry2.o(.ARM.Collect$$$$00002712)
    .text                                    0x08000164   Section       36  startup_stm32f10x_cl.o(.text)
    .text                                    0x08000188   Section        0  memcpya.o(.text)
    .text                                    0x080001ac   Section        0  memseta.o(.text)
    .text                                    0x080001d0   Section        0  strlen.o(.text)
    .text                                    0x080001de   Section        0  dmul.o(.text)
    .text                                    0x080002c2   Section        0  ddiv.o(.text)
    .text                                    0x080003a0   Section        0  dfltui.o(.text)
    .text                                    0x080003ba   Section        0  dfixui.o(.text)
    .text                                    0x080003ec   Section        0  uidiv.o(.text)
    .text                                    0x08000418   Section        0  uldiv.o(.text)
    .text                                    0x0800047a   Section        0  llushr.o(.text)
    .text                                    0x0800049a   Section        0  depilogue.o(.text)
    .text                                    0x0800049a   Section        0  iusefp.o(.text)
    .text                                    0x08000554   Section        0  dadd.o(.text)
    .text                                    0x080006a2   Section        0  dfixul.o(.text)
    .text                                    0x080006d4   Section       48  cdrcmple.o(.text)
    .text                                    0x08000704   Section       36  init.o(.text)
    .text                                    0x08000728   Section        0  llshl.o(.text)
    .text                                    0x08000746   Section        0  llsshr.o(.text)
    i.ADC_Cmd                                0x0800076a   Section        0  stm32f10x_adc.o(i.ADC_Cmd)
    i.ADC_ExternalTrigInjectedConvCmd        0x0800077e   Section        0  stm32f10x_adc.o(i.ADC_ExternalTrigInjectedConvCmd)
    i.ADC_ExternalTrigInjectedConvConfig     0x08000792   Section        0  stm32f10x_adc.o(i.ADC_ExternalTrigInjectedConvConfig)
    i.ADC_ITConfig                           0x0800079e   Section        0  stm32f10x_adc.o(i.ADC_ITConfig)
    i.ADC_Init                               0x080007b0   Section        0  stm32f10x_adc.o(i.ADC_Init)
    i.ADC_InjectedChannelConfig              0x080007f8   Section        0  stm32f10x_adc.o(i.ADC_InjectedChannelConfig)
    i.ADC_InjectedSequencerLengthConfig      0x08000842   Section        0  stm32f10x_adc.o(i.ADC_InjectedSequencerLengthConfig)
    i.ADC_TempSensorVrefintCmd               0x08000854   Section        0  stm32f10x_adc.o(i.ADC_TempSensorVrefintCmd)
    i.BoardInit                              0x08000870   Section        0  board.o(i.BoardInit)
    i.BusFault_Handler                       0x080008a8   Section        0  stm32f10x_it.o(i.BusFault_Handler)
    i.DebugMon_Handler                       0x080008aa   Section        0  stm32f10x_it.o(i.DebugMon_Handler)
    i.GPIO_Init                              0x080008ac   Section        0  stm32f10x_gpio.o(i.GPIO_Init)
    i.GPIO_SetBits                           0x0800094e   Section        0  stm32f10x_gpio.o(i.GPIO_SetBits)
    i.HardFault_Handler                      0x08000952   Section        0  stm32f10x_it.o(i.HardFault_Handler)
    i.MemManage_Handler                      0x08000954   Section        0  stm32f10x_it.o(i.MemManage_Handler)
    i.NMI_Handler                            0x08000956   Section        0  stm32f10x_it.o(i.NMI_Handler)
    i.NVIC_Init                              0x08000958   Section        0  misc.o(i.NVIC_Init)
    i.NVIC_PriorityGroupConfig               0x080009bc   Section        0  misc.o(i.NVIC_PriorityGroupConfig)
    i.NVIC_SetPriority                       0x080009d0   Section        0  main.o(i.NVIC_SetPriority)
    NVIC_SetPriority                         0x080009d1   Thumb Code    32  main.o(i.NVIC_SetPriority)
    i.PendSV_Handler                         0x080009f0   Section        0  stm32f10x_it.o(i.PendSV_Handler)
    i.RCC_ADCCLKConfig                       0x080009f4   Section        0  stm32f10x_rcc.o(i.RCC_ADCCLKConfig)
    i.RCC_APB1PeriphClockCmd                 0x08000a08   Section        0  stm32f10x_rcc.o(i.RCC_APB1PeriphClockCmd)
    i.RCC_APB2PeriphClockCmd                 0x08000a20   Section        0  stm32f10x_rcc.o(i.RCC_APB2PeriphClockCmd)
    i.RCC_GetClocksFreq                      0x08000a38   Section        0  stm32f10x_rcc.o(i.RCC_GetClocksFreq)
    i.SPI_Cmd                                0x08000b00   Section        0  stm32f10x_spi.o(i.SPI_Cmd)
    i.SPI_Init                               0x08000b14   Section        0  stm32f10x_spi.o(i.SPI_Init)
    i.SVC_Handler                            0x08000b4c   Section        0  stm32f10x_it.o(i.SVC_Handler)
    i.SetSysClockTo72                        0x08000b50   Section        0  system_stm32f10x.o(i.SetSysClockTo72)
    SetSysClockTo72                          0x08000b51   Thumb Code   190  system_stm32f10x.o(i.SetSysClockTo72)
    i.SysTick_Handler                        0x08000c20   Section        0  main.o(i.SysTick_Handler)
    i.SystemInit                             0x08000c24   Section        0  system_stm32f10x.o(i.SystemInit)
    i.USART1_IRQHandler                      0x08000c70   Section        0  main.o(i.USART1_IRQHandler)
    i.USART_ClearITPendingBit                0x08000ca8   Section        0  stm32f10x_usart.o(i.USART_ClearITPendingBit)
    i.USART_Cmd                              0x08000cb4   Section        0  stm32f10x_usart.o(i.USART_Cmd)
    i.USART_GetITStatus                      0x08000cc8   Section        0  stm32f10x_usart.o(i.USART_GetITStatus)
    i.USART_ITConfig                         0x08000d06   Section        0  stm32f10x_usart.o(i.USART_ITConfig)
    i.USART_Init                             0x08000d38   Section        0  stm32f10x_usart.o(i.USART_Init)
    i.USART_ReceiveData                      0x08000de4   Section        0  stm32f10x_usart.o(i.USART_ReceiveData)
    i.UartIdleCallback                       0x08000dec   Section        0  main.o(i.UartIdleCallback)
    i.UsageFault_Handler                     0x08000df8   Section        0  stm32f10x_it.o(i.UsageFault_Handler)
    i.XModemCallback                         0x08000dfc   Section        0  main.o(i.XModemCallback)
    i.XmodemSend                             0x08000e20   Section        0  main.o(i.XmodemSend)
    i._AdcInit                               0x08000e30   Section        0  board.o(i._AdcInit)
    _AdcInit                                 0x08000e31   Thumb Code   120  board.o(i._AdcInit)
    i._GpioInit                              0x08000eac   Section        0  board.o(i._GpioInit)
    _GpioInit                                0x08000ead   Thumb Code   596  board.o(i._GpioInit)
    i._SpiInit                               0x08001114   Section        0  board.o(i._SpiInit)
    _SpiInit                                 0x08001115   Thumb Code   136  board.o(i._SpiInit)
    i._UartInit                              0x080011a4   Section        0  board.o(i._UartInit)
    _UartInit                                0x080011a5   Thumb Code   150  board.o(i._UartInit)
    i._UtilUartListAdd                       0x08001244   Section        0  b_util_uart.o(i._UtilUartListAdd)
    _UtilUartListAdd                         0x08001245   Thumb Code    20  b_util_uart.o(i._UtilUartListAdd)
    i.__0sprintf                             0x0800125c   Section        0  printfa.o(i.__0sprintf)
    i.__0vsnprintf                           0x08001284   Section        0  printfa.o(i.__0vsnprintf)
    i.__scatterload_copy                     0x080012b0   Section       14  handlers.o(i.__scatterload_copy)
    i.__scatterload_null                     0x080012be   Section        2  handlers.o(i.__scatterload_null)
    i.__scatterload_zeroinit                 0x080012c0   Section       14  handlers.o(i.__scatterload_zeroinit)
    i._bCoreMonitor                          0x080012ce   Section        0  b_core.o(i._bCoreMonitor)
    _bCoreMonitor                            0x080012cf   Thumb Code     2  b_core.o(i._bCoreMonitor)
    i._bDriverNullInit                       0x080012d0   Section        0  b_device.o(i._bDriverNullInit)
    _bDriverNullInit                         0x080012d1   Thumb Code     4  b_device.o(i._bDriverNullInit)
    i._bHalUpdateDelayParam                  0x080012d4   Section        0  b_hal.o(i._bHalUpdateDelayParam)
    _bHalUpdateDelayParam                    0x080012d5   Thumb Code    78  b_hal.o(i._bHalUpdateDelayParam)
    i._bSPIFLASH_Close                       0x08001330   Section        0  b_drv_spiflash.o(i._bSPIFLASH_Close)
    _bSPIFLASH_Close                         0x08001331   Thumb Code    94  b_drv_spiflash.o(i._bSPIFLASH_Close)
    i._bSPIFLASH_Ctl                         0x0800138e   Section        0  b_drv_spiflash.o(i._bSPIFLASH_Ctl)
    _bSPIFLASH_Ctl                           0x0800138f   Thumb Code    62  b_drv_spiflash.o(i._bSPIFLASH_Ctl)
    i._bSPIFLASH_Open                        0x080013cc   Section        0  b_drv_spiflash.o(i._bSPIFLASH_Open)
    _bSPIFLASH_Open                          0x080013cd   Thumb Code    94  b_drv_spiflash.o(i._bSPIFLASH_Open)
    i._bSPIFLASH_ReadBuf                     0x0800142a   Section        0  b_drv_spiflash.o(i._bSPIFLASH_ReadBuf)
    _bSPIFLASH_ReadBuf                       0x0800142b   Thumb Code    18  b_drv_spiflash.o(i._bSPIFLASH_ReadBuf)
    i._bSPIFLASH_WriteBuf                    0x0800143c   Section        0  b_drv_spiflash.o(i._bSPIFLASH_WriteBuf)
    _bSPIFLASH_WriteBuf                      0x0800143d   Thumb Code    18  b_drv_spiflash.o(i._bSPIFLASH_WriteBuf)
    i._bSPIFlashSPI_Lock                     0x0800144e   Section        0  b_drv_spiflash.o(i._bSPIFlashSPI_Lock)
    _bSPIFlashSPI_Lock                       0x0800144f   Thumb Code     4  b_drv_spiflash.o(i._bSPIFlashSPI_Lock)
    i._bSPIFlashSPI_Unlock                   0x08001452   Section        0  b_drv_spiflash.o(i._bSPIFlashSPI_Unlock)
    _bSPIFlashSPI_Unlock                     0x08001453   Thumb Code     4  b_drv_spiflash.o(i._bSPIFlashSPI_Unlock)
    i._bSPIFlashSPI_WR                       0x08001456   Section        0  b_drv_spiflash.o(i._bSPIFlashSPI_WR)
    _bSPIFlashSPI_WR                         0x08001457   Thumb Code   276  b_drv_spiflash.o(i._bSPIFlashSPI_WR)
    i._bUtilUartDetectIdle                   0x0800156c   Section        0  b_util_uart.o(i._bUtilUartDetectIdle)
    _bUtilUartDetectIdle                     0x0800156d   Thumb Code   102  b_util_uart.o(i._bUtilUartDetectIdle)
    i._bXmodem128ISValid                     0x080015d8   Section        0  b_mod_xm128.o(i._bXmodem128ISValid)
    _bXmodem128ISValid                       0x080015d9   Thumb Code    66  b_mod_xm128.o(i._bXmodem128ISValid)
    i._bXmodem128Timeout                     0x0800161c   Section        0  b_mod_xm128.o(i._bXmodem128Timeout)
    _bXmodem128Timeout                       0x0800161d   Thumb Code    72  b_mod_xm128.o(i._bXmodem128Timeout)
    i._fp_digits                             0x08001668   Section        0  printfa.o(i._fp_digits)
    _fp_digits                               0x08001669   Thumb Code   366  printfa.o(i._fp_digits)
    i._printf_core                           0x080017ec   Section        0  printfa.o(i._printf_core)
    _printf_core                             0x080017ed   Thumb Code  1744  printfa.o(i._printf_core)
    i._printf_post_padding                   0x08001ec8   Section        0  printfa.o(i._printf_post_padding)
    _printf_post_padding                     0x08001ec9   Thumb Code    36  printfa.o(i._printf_post_padding)
    i._printf_pre_padding                    0x08001eec   Section        0  printfa.o(i._printf_pre_padding)
    _printf_pre_padding                      0x08001eed   Thumb Code    46  printfa.o(i._printf_pre_padding)
    i._snputc                                0x08001f1a   Section        0  printfa.o(i._snputc)
    _snputc                                  0x08001f1b   Thumb Code    22  printfa.o(i._snputc)
    i._sputc                                 0x08001f30   Section        0  printfa.o(i._sputc)
    _sputc                                   0x08001f31   Thumb Code    10  printfa.o(i._sputc)
    i.aai_write                              0x08001f3c   Section        0  sfud.o(i.aai_write)
    aai_write                                0x08001f3d   Thumb Code   440  sfud.o(i.aai_write)
    i.bDeviceInit                            0x080021b4   Section        0  b_device.o(i.bDeviceInit)
    i.bExec                                  0x08002344   Section        0  b_core.o(i.bExec)
    i.bHalDelayUs                            0x08002364   Section        0  b_hal.o(i.bHalDelayUs)
    i.bHalGetSysTick                         0x08002380   Section        0  b_hal.o(i.bHalGetSysTick)
    i.bHalGpioReadPin                        0x0800238c   Section        0  b_hal_gpio.o(i.bHalGpioReadPin)
    i.bHalGpioWritePin                       0x08002394   Section        0  b_hal_gpio.o(i.bHalGpioWritePin)
    i.bHalIncSysTick                         0x0800239c   Section        0  b_hal.o(i.bHalIncSysTick)
    i.bHalInit                               0x080023ac   Section        0  b_hal.o(i.bHalInit)
    i.bHalIntDisable                         0x080023b8   Section        0  b_hal_it.o(i.bHalIntDisable)
    i.bHalIntEnable                          0x080023c0   Section        0  b_hal_it.o(i.bHalIntEnable)
    i.bHalQSPIReceiveData                    0x080023c8   Section        0  b_hal_qspi.o(i.bHalQSPIReceiveData)
    i.bHalQSPISendCmd                        0x080023da   Section        0  b_hal_qspi.o(i.bHalQSPISendCmd)
    i.bHalQSPITransmitData                   0x080023ec   Section        0  b_hal_qspi.o(i.bHalQSPITransmitData)
    i.bHalSpiReceive                         0x080023fe   Section        0  b_hal_spi.o(i.bHalSpiReceive)
    i.bHalSpiSend                            0x0800243e   Section        0  b_hal_spi.o(i.bHalSpiSend)
    i.bHalSpiTransfer                        0x0800247c   Section        0  b_hal_spi.o(i.bHalSpiTransfer)
    i.bHalUartSend                           0x080024c2   Section        0  b_hal_uart.o(i.bHalUartSend)
    i.bHalUserInit                           0x080024ca   Section        0  b_hal.o(i.bHalUserInit)
    i.bInit                                  0x080024cc   Section        0  b_core.o(i.bInit)
    i.bLogOut                                0x080027d4   Section        0  b_util_log.o(i.bLogOut)
    i.bLogOutput                             0x0800289c   Section        0  b_util_log.o(i.bLogOutput)
    i.bMcuGpioReadPin                        0x080028b4   Section        0  mcu_stm32f10x_gpio.o(i.bMcuGpioReadPin)
    i.bMcuGpioWritePin                       0x080028dc   Section        0  mcu_stm32f10x_gpio.o(i.bMcuGpioWritePin)
    i.bMcuIntDisable                         0x08002900   Section        0  mcu_stm32f10x_it.o(i.bMcuIntDisable)
    i.bMcuIntEnable                          0x08002902   Section        0  mcu_stm32f10x_it.o(i.bMcuIntEnable)
    i.bMcuQSPIReceiveData                    0x08002904   Section        0  b_hal_qspi.o(i.bMcuQSPIReceiveData)
    i.bMcuQSPISendCmd                        0x08002908   Section        0  b_hal_qspi.o(i.bMcuQSPISendCmd)
    i.bMcuQSPITransmitData                   0x0800290c   Section        0  b_hal_qspi.o(i.bMcuQSPITransmitData)
    i.bMcuSpiReceive                         0x08002910   Section        0  mcu_stm32f10x_spi.o(i.bMcuSpiReceive)
    i.bMcuSpiSend                            0x0800293a   Section        0  mcu_stm32f10x_spi.o(i.bMcuSpiSend)
    i.bMcuSpiTransfer                        0x08002964   Section        0  mcu_stm32f10x_spi.o(i.bMcuSpiTransfer)
    i.bMcuUartSend                           0x080029a8   Section        0  mcu_stm32f10x_uart.o(i.bMcuUartSend)
    i.bSPIFLASH_Init                         0x080029f0   Section        0  b_drv_spiflash.o(i.bSPIFLASH_Init)
    i.bUtilSPI_WriteRead                     0x08002a70   Section        0  b_util_spi.o(i.bUtilSPI_WriteRead)
    i.bUtilUartRxHandler                     0x08002b18   Section        0  b_util_uart.o(i.bUtilUartRxHandler)
    i.bXmodem128Init                         0x08002b40   Section        0  b_mod_xm128.o(i.bXmodem128Init)
    i.bXmodem128Parse                        0x08002b5c   Section        0  b_mod_xm128.o(i.bXmodem128Parse)
    i.bXmodem128Start                        0x08002c18   Section        0  b_mod_xm128.o(i.bXmodem128Start)
    i.hardware_init                          0x08002c48   Section        0  sfud.o(i.hardware_init)
    hardware_init                            0x08002c49   Thumb Code   550  sfud.o(i.hardware_init)
    i.main                                   0x08002f98   Section        0  main.o(i.main)
    i.make_adress_byte_array                 0x08002ffc   Section        0  sfud.o(i.make_adress_byte_array)
    make_adress_byte_array                   0x08002ffd   Thumb Code   136  sfud.o(i.make_adress_byte_array)
    i.page256_or_1_byte_write                0x080030e8   Section        0  sfud.o(i.page256_or_1_byte_write)
    page256_or_1_byte_write                  0x080030e9   Thumb Code   460  sfud.o(i.page256_or_1_byte_write)
    i.read_basic_header                      0x080033a0   Section        0  sfud_sfdp.o(i.read_basic_header)
    read_basic_header                        0x080033a1   Thumb Code   294  sfud_sfdp.o(i.read_basic_header)
    i.read_basic_table                       0x0800357c   Section        0  sfud_sfdp.o(i.read_basic_table)
    read_basic_table                         0x0800357d   Thumb Code  1702  sfud_sfdp.o(i.read_basic_table)
    i.read_jedec_id                          0x08003c24   Section        0  sfud.o(i.read_jedec_id)
    read_jedec_id                            0x08003c25   Thumb Code   162  sfud.o(i.read_jedec_id)
    i.read_sfdp_data                         0x08003d54   Section        0  sfud_sfdp.o(i.read_sfdp_data)
    read_sfdp_data                           0x08003d55   Thumb Code   242  sfud_sfdp.o(i.read_sfdp_data)
    i.read_sfdp_header                       0x08003edc   Section        0  sfud_sfdp.o(i.read_sfdp_header)
    read_sfdp_header                         0x08003edd   Thumb Code   256  sfud_sfdp.o(i.read_sfdp_header)
    i.reset                                  0x080040d8   Section        0  sfud.o(i.reset)
    reset                                    0x080040d9   Thumb Code   226  sfud.o(i.reset)
    i.set_4_byte_address_mode                0x08004258   Section        0  sfud.o(i.set_4_byte_address_mode)
    set_4_byte_address_mode                  0x08004259   Thumb Code   190  sfud.o(i.set_4_byte_address_mode)
    i.set_write_enabled                      0x080043d4   Section        0  sfud.o(i.set_write_enabled)
    set_write_enabled                        0x080043d5   Thumb Code   154  sfud.o(i.set_write_enabled)
    i.sfud_chip_erase                        0x080044f0   Section        0  sfud.o(i.sfud_chip_erase)
    i.sfud_device_init                       0x08004694   Section        0  sfud.o(i.sfud_device_init)
    i.sfud_erase                             0x08004784   Section        0  sfud.o(i.sfud_erase)
    i.sfud_read                              0x08004a00   Section        0  sfud.o(i.sfud_read)
    i.sfud_read_sfdp                         0x08004bc4   Section        0  sfud_sfdp.o(i.sfud_read_sfdp)
    i.sfud_read_status                       0x08004ca0   Section        0  sfud.o(i.sfud_read_status)
    i.sfud_sfdp_get_suitable_eraser          0x08004d80   Section        0  sfud_sfdp.o(i.sfud_sfdp_get_suitable_eraser)
    i.sfud_spi_port_init                     0x08004e60   Section        0  b_drv_spiflash.o(i.sfud_spi_port_init)
    i.sfud_write                             0x08004e84   Section        0  sfud.o(i.sfud_write)
    i.sfud_write_status                      0x08004eb0   Section        0  sfud.o(i.sfud_write_status)
    i.software_init                          0x08004fd8   Section        0  sfud.o(i.software_init)
    software_init                            0x08004fd9   Thumb Code    54  sfud.o(i.software_init)
    i.wait_busy                              0x0800506c   Section        0  sfud.o(i.wait_busy)
    wait_busy                                0x0800506d   Thumb Code   144  sfud.o(i.wait_busy)
    .constdata                               0x08005184   Section        6  b_core.o(.constdata)
    __func__                                 0x08005184   Data           6  b_core.o(.constdata)
    .constdata                               0x0800518a   Section       89  b_device.o(.constdata)
    __func__                                 0x0800518a   Data          12  b_device.o(.constdata)
    __func__                                 0x08005196   Data          12  b_device.o(.constdata)
    __func__                                 0x080051a2   Data          12  b_device.o(.constdata)
    __func__                                 0x080051ae   Data          13  b_device.o(.constdata)
    __func__                                 0x080051bb   Data          13  b_device.o(.constdata)
    __func__                                 0x080051c8   Data          11  b_device.o(.constdata)
    __func__                                 0x080051d3   Data          16  b_device.o(.constdata)
    .constdata                               0x080051e3   Section       12  b_drv_spiflash.o(.constdata)
    bHalIf_SPIFLASH                          0x080051e3   Data          12  b_drv_spiflash.o(.constdata)
    .constdata                               0x080051f0   Section      880  sfud.o(.constdata)
    __func__                                 0x080051f0   Data           6  sfud.o(.constdata)
    mf_table                                 0x080051f8   Data         128  sfud.o(.constdata)
    flash_chip_table                         0x08005278   Data         504  sfud.o(.constdata)
    __func__                                 0x08005470   Data          17  sfud.o(.constdata)
    __func__                                 0x08005481   Data          14  sfud.o(.constdata)
    __func__                                 0x0800548f   Data          14  sfud.o(.constdata)
    __func__                                 0x0800549d   Data          10  sfud.o(.constdata)
    __func__                                 0x080054a7   Data          16  sfud.o(.constdata)
    __func__                                 0x080054b7   Data          11  sfud.o(.constdata)
    __func__                                 0x080054c2   Data          24  sfud.o(.constdata)
    __func__                                 0x080054da   Data          10  sfud.o(.constdata)
    __func__                                 0x080054e4   Data          14  sfud.o(.constdata)
    __func__                                 0x080054f2   Data          18  sfud.o(.constdata)
    __func__                                 0x08005504   Data          24  sfud.o(.constdata)
    __func__                                 0x0800551c   Data          17  sfud.o(.constdata)
    __func__                                 0x0800552d   Data          10  sfud.o(.constdata)
    __func__                                 0x08005537   Data          23  sfud.o(.constdata)
    __func__                                 0x0800554e   Data          18  sfud.o(.constdata)
    .constdata                               0x08005560   Section      112  sfud_sfdp.o(.constdata)
    __func__                                 0x08005560   Data          15  sfud_sfdp.o(.constdata)
    __func__                                 0x0800556f   Data          17  sfud_sfdp.o(.constdata)
    __func__                                 0x08005580   Data          18  sfud_sfdp.o(.constdata)
    __func__                                 0x08005592   Data          17  sfud_sfdp.o(.constdata)
    __func__                                 0x080055a3   Data          15  sfud_sfdp.o(.constdata)
    __func__                                 0x080055b2   Data          30  sfud_sfdp.o(.constdata)
    .constdata                               0x080055d0   Section        6  b_util_log.o(.constdata)
    bLogParamTable                           0x080055d0   Data           3  b_util_log.o(.constdata)
    bLogPrefix                               0x080055d3   Data           3  b_util_log.o(.constdata)
    .conststring                             0x080055d8   Section       17  b_device.o(.conststring)
    .conststring                             0x080055ec   Section      453  sfud.o(.conststring)
    .conststring                             0x080057b4   Section      911  sfud_sfdp.o(.conststring)
    bos_polling                              0x08005b64   Section        4  b_core.o(bos_polling)
    __tagsym$$used                           0x08005b64   Number         0  b_core.o(bos_polling)
    bos_polling                              0x08005b68   Section        4  b_mod_xm128.o(bos_polling)
    __tagsym$$used                           0x08005b68   Number         0  b_mod_xm128.o(bos_polling)
    bos_polling                              0x08005b6c   Section        4  b_util_uart.o(bos_polling)
    __tagsym$$used                           0x08005b6c   Number         0  b_util_uart.o(bos_polling)
    driver_init                              0x08005b70   Section        8  b_device.o(driver_init)
    __tagsym$$used                           0x08005b70   Number         0  b_device.o(driver_init)
    driver_init                              0x08005b78   Section        8  b_drv_spiflash.o(driver_init)
    __tagsym$$used                           0x08005b78   Number         0  b_drv_spiflash.o(driver_init)
    driver_init_0                            0x08005b80   Section        8  b_device.o(driver_init_0)
    __tagsym$$used                           0x08005b80   Number         0  b_device.o(driver_init_0)
    .data                                    0x20000000   Section       40  main.o(.data)
    .data                                    0x20000028   Section       20  stm32f10x_rcc.o(.data)
    ADCPrescTable                            0x20000028   Data           4  stm32f10x_rcc.o(.data)
    APBAHBPrescTable                         0x2000002c   Data          16  stm32f10x_rcc.o(.data)
    .data                                    0x2000003c   Section       20  system_stm32f10x.o(.data)
    .data                                    0x20000050   Section       12  b_device.o(.data)
    bDriverNumberTable                       0x20000050   Data           2  b_device.o(.data)
    bDeviceDescTable                         0x20000054   Data           8  b_device.o(.data)
    .data                                    0x2000005c   Section       12  mcu_stm32f10x_spi.o(.data)
    SpiTable                                 0x2000005c   Data          12  mcu_stm32f10x_spi.o(.data)
    .data                                    0x20000068   Section       20  mcu_stm32f10x_uart.o(.data)
    UartTable                                0x20000068   Data          20  mcu_stm32f10x_uart.o(.data)
    .data                                    0x2000007c   Section        8  b_hal.o(.data)
    bSysTick                                 0x2000007c   Data           4  b_hal.o(.data)
    bUsDelayParam                            0x20000080   Data           4  b_hal.o(.data)
    .bss                                     0x20000084   Section     1024  main.o(.bss)
    .bss                                     0x20000484   Section      200  main.o(.bss)
    BufXmodemRec                             0x20000484   Data         200  main.o(.bss)
    .bss                                     0x2000054c   Section       88  b_device.o(.bss)
    bDriverInterfaceTable                    0x2000054c   Data          88  b_device.o(.bss)
    .bss                                     0x200005a4   Section      116  b_drv_spiflash.o(.bss)
    bSpiFlashPrivate                         0x200005a4   Data         116  b_drv_spiflash.o(.bss)
    .bss                                     0x20000618   Section      261  sfud.o(.bss)
    cmd_data                                 0x20000618   Data         261  sfud.o(.bss)
    .bss                                     0x20000720   Section       20  b_mod_xm128.o(.bss)
    bXmodem128Info                           0x20000720   Data          20  b_mod_xm128.o(.bss)
    .bss                                     0x20000734   Section      256  b_util_log.o(.bss)
    bLogBuff                                 0x20000734   Data         256  b_util_log.o(.bss)
    .bss                                     0x20000834   Section       72  b_util_uart.o(.bss)
    bUitlUartHead                            0x20000834   Data          36  b_util_uart.o(.bss)
    pUtilUartBindTable                       0x20000858   Data          36  b_util_uart.o(.bss)
    STACK                                    0x20000880   Section     2048  startup_stm32f10x_cl.o(STACK)

    Global Symbols

    Symbol Name                              Value     Ov Type        Size  Object(Section)

    BuildAttributes$$THM_ISAv4$P$D$K$B$S$PE$A:L22UL41UL21$X:L11$S22US41US21$IEEE1$IW$USESV6$~STKCKD$USESV7$~SHL$OSPACE$ROPI$EBA8$MICROLIB$REQ8$PRES8$EABIv2 0x00000000   Number         0  anon$$obj.o ABSOLUTE
    __ARM_use_no_argv                        0x00000000   Number         0  main.o ABSOLUTE
    _printf_a                                0x00000000   Number         0  stubs.o ABSOLUTE
    _printf_c                                0x00000000   Number         0  stubs.o ABSOLUTE
    _printf_charcount                        0x00000000   Number         0  stubs.o ABSOLUTE
    _printf_d                                0x00000000   Number         0  stubs.o ABSOLUTE
    _printf_e                                0x00000000   Number         0  stubs.o ABSOLUTE
    _printf_f                                0x00000000   Number         0  stubs.o ABSOLUTE
    _printf_flags                            0x00000000   Number         0  stubs.o ABSOLUTE
    _printf_fp_dec                           0x00000000   Number         0  stubs.o ABSOLUTE
    _printf_fp_hex                           0x00000000   Number         0  stubs.o ABSOLUTE
    _printf_g                                0x00000000   Number         0  stubs.o ABSOLUTE
    _printf_i                                0x00000000   Number         0  stubs.o ABSOLUTE
    _printf_int_dec                          0x00000000   Number         0  stubs.o ABSOLUTE
    _printf_l                                0x00000000   Number         0  stubs.o ABSOLUTE
    _printf_lc                               0x00000000   Number         0  stubs.o ABSOLUTE
    _printf_ll                               0x00000000   Number         0  stubs.o ABSOLUTE
    _printf_lld                              0x00000000   Number         0  stubs.o ABSOLUTE
    _printf_lli                              0x00000000   Number         0  stubs.o ABSOLUTE
    _printf_llo                              0x00000000   Number         0  stubs.o ABSOLUTE
    _printf_llu                              0x00000000   Number         0  stubs.o ABSOLUTE
    _printf_llx                              0x00000000   Number         0  stubs.o ABSOLUTE
    _printf_longlong_dec                     0x00000000   Number         0  stubs.o ABSOLUTE
    _printf_longlong_hex                     0x00000000   Number         0  stubs.o ABSOLUTE
    _printf_longlong_oct                     0x00000000   Number         0  stubs.o ABSOLUTE
    _printf_ls                               0x00000000   Number         0  stubs.o ABSOLUTE
    _printf_mbtowc                           0x00000000   Number         0  stubs.o ABSOLUTE
    _printf_n                                0x00000000   Number         0  stubs.o ABSOLUTE
    _printf_o                                0x00000000   Number         0  stubs.o ABSOLUTE
    _printf_p                                0x00000000   Number         0  stubs.o ABSOLUTE
    _printf_percent                          0x00000000   Number         0  stubs.o ABSOLUTE
    _printf_pre_padding                      0x00000000   Number         0  stubs.o ABSOLUTE
    _printf_return_value                     0x00000000   Number         0  stubs.o ABSOLUTE
    _printf_s                                0x00000000   Number         0  stubs.o ABSOLUTE
    _printf_sizespec                         0x00000000   Number         0  stubs.o ABSOLUTE
    _printf_str                              0x00000000   Number         0  stubs.o ABSOLUTE
    _printf_truncate_signed                  0x00000000   Number         0  stubs.o ABSOLUTE
    _printf_truncate_unsigned                0x00000000   Number         0  stubs.o ABSOLUTE
    _printf_u                                0x00000000   Number         0  stubs.o ABSOLUTE
    _printf_wc                               0x00000000   Number         0  stubs.o ABSOLUTE
    _printf_wctomb                           0x00000000   Number         0  stubs.o ABSOLUTE
    _printf_widthprec                        0x00000000   Number         0  stubs.o ABSOLUTE
    _printf_x                                0x00000000   Number         0  stubs.o ABSOLUTE
    __cpp_initialize__aeabi_                  - Undefined Weak Reference
    __cxa_finalize                            - Undefined Weak Reference
    __decompress                              - Undefined Weak Reference
    _clock_init                               - Undefined Weak Reference
    _microlib_exit                            - Undefined Weak Reference
    __Vectors_Size                           0x00000150   Number         0  startup_stm32f10x_cl.o ABSOLUTE
    __Vectors                                0x08000000   Data           4  startup_stm32f10x_cl.o(RESET)
    __Vectors_End                            0x08000150   Data           0  startup_stm32f10x_cl.o(RESET)
    __main                                   0x08000151   Thumb Code     0  entry.o(.ARM.Collect$$$$00000000)
    _main_stk                                0x08000151   Thumb Code     0  entry2.o(.ARM.Collect$$$$00000001)
    _main_scatterload                        0x08000155   Thumb Code     0  entry5.o(.ARM.Collect$$$$00000004)
    __main_after_scatterload                 0x08000159   Thumb Code     0  entry5.o(.ARM.Collect$$$$00000004)
    _main_clock                              0x08000159   Thumb Code     0  entry7b.o(.ARM.Collect$$$$00000008)
    _main_cpp_init                           0x08000159   Thumb Code     0  entry8b.o(.ARM.Collect$$$$0000000A)
    _main_init                               0x08000159   Thumb Code     0  entry9a.o(.ARM.Collect$$$$0000000B)
    __rt_final_cpp                           0x08000161   Thumb Code     0  entry10a.o(.ARM.Collect$$$$0000000D)
    __rt_final_exit                          0x08000161   Thumb Code     0  entry11a.o(.ARM.Collect$$$$0000000F)
    Reset_Handler                            0x08000165   Thumb Code     8  startup_stm32f10x_cl.o(.text)
    ADC1_2_IRQHandler                        0x0800017f   Thumb Code     0  startup_stm32f10x_cl.o(.text)
    CAN1_RX0_IRQHandler                      0x0800017f   Thumb Code     0  startup_stm32f10x_cl.o(.text)
    CAN1_RX1_IRQHandler                      0x0800017f   Thumb Code     0  startup_stm32f10x_cl.o(.text)
    CAN1_SCE_IRQHandler                      0x0800017f   Thumb Code     0  startup_stm32f10x_cl.o(.text)
    CAN1_TX_IRQHandler                       0x0800017f   Thumb Code     0  startup_stm32f10x_cl.o(.text)
    CAN2_RX0_IRQHandler                      0x0800017f   Thumb Code     0  startup_stm32f10x_cl.o(.text)
    CAN2_RX1_IRQHandler                      0x0800017f   Thumb Code     0  startup_stm32f10x_cl.o(.text)
    CAN2_SCE_IRQHandler                      0x0800017f   Thumb Code     0  startup_stm32f10x_cl.o(.text)
    CAN2_TX_IRQHandler                       0x0800017f   Thumb Code     0  startup_stm32f10x_cl.o(.text)
    DMA1_Channel1_IRQHandler                 0x0800017f   Thumb Code     0  startup_stm32f10x_cl.o(.text)
    DMA1_Channel2_IRQHandler                 0x0800017f   Thumb Code     0  startup_stm32f10x_cl.o(.text)
    DMA1_Channel3_IRQHandler                 0x0800017f   Thumb Code     0  startup_stm32f10x_cl.o(.text)
    DMA1_Channel4_IRQHandler                 0x0800017f   Thumb Code     0  startup_stm32f10x_cl.o(.text)
    DMA1_Channel5_IRQHandler                 0x0800017f   Thumb Code     0  startup_stm32f10x_cl.o(.text)
    DMA1_Channel6_IRQHandler                 0x0800017f   Thumb Code     0  startup_stm32f10x_cl.o(.text)
    DMA1_Channel7_IRQHandler                 0x0800017f   Thumb Code     0  startup_stm32f10x_cl.o(.text)
    DMA2_Channel1_IRQHandler                 0x0800017f   Thumb Code     0  startup_stm32f10x_cl.o(.text)
    DMA2_Channel2_IRQHandler                 0x0800017f   Thumb Code     0  startup_stm32f10x_cl.o(.text)
    DMA2_Channel3_IRQHandler                 0x0800017f   Thumb Code     0  startup_stm32f10x_cl.o(.text)
    DMA2_Channel4_IRQHandler                 0x0800017f   Thumb Code     0  startup_stm32f10x_cl.o(.text)
    DMA2_Channel5_IRQHandler                 0x0800017f   Thumb Code     0  startup_stm32f10x_cl.o(.text)
    ETH_IRQHandler                           0x0800017f   Thumb Code     0  startup_stm32f10x_cl.o(.text)
    ETH_WKUP_IRQHandler                      0x0800017f   Thumb Code     0  startup_stm32f10x_cl.o(.text)
    EXTI0_IRQHandler                         0x0800017f   Thumb Code     0  startup_stm32f10x_cl.o(.text)
    EXTI15_10_IRQHandler                     0x0800017f   Thumb Code     0  startup_stm32f10x_cl.o(.text)
    EXTI1_IRQHandler                         0x0800017f   Thumb Code     0  startup_stm32f10x_cl.o(.text)
    EXTI2_IRQHandler                         0x0800017f   Thumb Code     0  startup_stm32f10x_cl.o(.text)
    EXTI3_IRQHandler                         0x0800017f   Thumb Code     0  startup_stm32f10x_cl.o(.text)
    EXTI4_IRQHandler                         0x0800017f   Thumb Code     0  startup_stm32f10x_cl.o(.text)
    EXTI9_5_IRQHandler                       0x0800017f   Thumb Code     0  startup_stm32f10x_cl.o(.text)
    FLASH_IRQHandler                         0x0800017f   Thumb Code     0  startup_stm32f10x_cl.o(.text)
    I2C1_ER_IRQHandler                       0x0800017f   Thumb Code     0  startup_stm32f10x_cl.o(.text)
    I2C1_EV_IRQHandler                       0x0800017f   Thumb Code     0  startup_stm32f10x_cl.o(.text)
    I2C2_ER_IRQHandler                       0x0800017f   Thumb Code     0  startup_stm32f10x_cl.o(.text)
    I2C2_EV_IRQHandler                       0x0800017f   Thumb Code     0  startup_stm32f10x_cl.o(.text)
    OTG_FS_IRQHandler                        0x0800017f   Thumb Code     0  startup_stm32f10x_cl.o(.text)
    OTG_FS_WKUP_IRQHandler                   0x0800017f   Thumb Code     0  startup_stm32f10x_cl.o(.text)
    PVD_IRQHandler                           0x0800017f   Thumb Code     0  startup_stm32f10x_cl.o(.text)
    RCC_IRQHandler                           0x0800017f   Thumb Code     0  startup_stm32f10x_cl.o(.text)
    RTCAlarm_IRQHandler                      0x0800017f   Thumb Code     0  startup_stm32f10x_cl.o(.text)
    RTC_IRQHandler                           0x0800017f   Thumb Code     0  startup_stm32f10x_cl.o(.text)
    SPI1_IRQHandler                          0x0800017f   Thumb Code     0  startup_stm32f10x_cl.o(.text)
    SPI2_IRQHandler                          0x0800017f   Thumb Code     0  startup_stm32f10x_cl.o(.text)
    SPI3_IRQHandler                          0x0800017f   Thumb Code     0  startup_stm32f10x_cl.o(.text)
    TAMPER_IRQHandler                        0x0800017f   Thumb Code     0  startup_stm32f10x_cl.o(.text)
    TIM1_BRK_IRQHandler                      0x0800017f   Thumb Code     0  startup_stm32f10x_cl.o(.text)
    TIM1_CC_IRQHandler                       0x0800017f   Thumb Code     0  startup_stm32f10x_cl.o(.text)
    TIM1_TRG_COM_IRQHandler                  0x0800017f   Thumb Code     0  startup_stm32f10x_cl.o(.text)
    TIM1_UP_IRQHandler                       0x0800017f   Thumb Code     0  startup_stm32f10x_cl.o(.text)
    TIM2_IRQHandler                          0x0800017f   Thumb Code     0  startup_stm32f10x_cl.o(.text)
    TIM3_IRQHandler                          0x0800017f   Thumb Code     0  startup_stm32f10x_cl.o(.text)
    TIM4_IRQHandler                          0x0800017f   Thumb Code     0  startup_stm32f10x_cl.o(.text)
    TIM5_IRQHandler                          0x0800017f   Thumb Code     0  startup_stm32f10x_cl.o(.text)
    TIM6_IRQHandler                          0x0800017f   Thumb Code     0  startup_stm32f10x_cl.o(.text)
    TIM7_IRQHandler                          0x0800017f   Thumb Code     0  startup_stm32f10x_cl.o(.text)
    UART4_IRQHandler                         0x0800017f   Thumb Code     0  startup_stm32f10x_cl.o(.text)
    UART5_IRQHandler                         0x0800017f   Thumb Code     0  startup_stm32f10x_cl.o(.text)
    USART2_IRQHandler                        0x0800017f   Thumb Code     0  startup_stm32f10x_cl.o(.text)
    USART3_IRQHandler                        0x0800017f   Thumb Code     0  startup_stm32f10x_cl.o(.text)
    WWDG_IRQHandler                          0x0800017f   Thumb Code     0  startup_stm32f10x_cl.o(.text)
    __aeabi_memcpy                           0x08000189   Thumb Code    36  memcpya.o(.text)
    __aeabi_memcpy4                          0x08000189   Thumb Code     0  memcpya.o(.text)
    __aeabi_memcpy8                          0x08000189   Thumb Code     0  memcpya.o(.text)
    __aeabi_memset                           0x080001ad   Thumb Code    14  memseta.o(.text)
    __aeabi_memset4                          0x080001ad   Thumb Code     0  memseta.o(.text)
    __aeabi_memset8                          0x080001ad   Thumb Code     0  memseta.o(.text)
    __aeabi_memclr                           0x080001bb   Thumb Code     4  memseta.o(.text)
    __aeabi_memclr4                          0x080001bb   Thumb Code     0  memseta.o(.text)
    __aeabi_memclr8                          0x080001bb   Thumb Code     0  memseta.o(.text)
    _memset$wrapper                          0x080001bf   Thumb Code    18  memseta.o(.text)
    strlen                                   0x080001d1   Thumb Code    14  strlen.o(.text)
    __aeabi_dmul                             0x080001df   Thumb Code   228  dmul.o(.text)
    __aeabi_ddiv                             0x080002c3   Thumb Code   222  ddiv.o(.text)
    __aeabi_ui2d                             0x080003a1   Thumb Code    26  dfltui.o(.text)
    __aeabi_d2uiz                            0x080003bb   Thumb Code    50  dfixui.o(.text)
    __aeabi_uidiv                            0x080003ed   Thumb Code     0  uidiv.o(.text)
    __aeabi_uidivmod                         0x080003ed   Thumb Code    44  uidiv.o(.text)
    __aeabi_uldivmod                         0x08000419   Thumb Code    98  uldiv.o(.text)
    __aeabi_llsr                             0x0800047b   Thumb Code    32  llushr.o(.text)
    _ll_ushift_r                             0x0800047b   Thumb Code     0  llushr.o(.text)
    __I$use$fp                               0x0800049b   Thumb Code     0  iusefp.o(.text)
    _double_round                            0x0800049b   Thumb Code    30  depilogue.o(.text)
    _double_epilogue                         0x080004b9   Thumb Code   156  depilogue.o(.text)
    __aeabi_dadd                             0x08000555   Thumb Code   322  dadd.o(.text)
    __aeabi_dsub                             0x08000697   Thumb Code     6  dadd.o(.text)
    __aeabi_drsub                            0x0800069d   Thumb Code     6  dadd.o(.text)
    __aeabi_d2ulz                            0x080006a3   Thumb Code    48  dfixul.o(.text)
    __aeabi_cdrcmple                         0x080006d5   Thumb Code    48  cdrcmple.o(.text)
    __scatterload                            0x08000705   Thumb Code    28  init.o(.text)
    __scatterload_rt2                        0x08000705   Thumb Code     0  init.o(.text)
    __aeabi_llsl                             0x08000729   Thumb Code    30  llshl.o(.text)
    _ll_shift_l                              0x08000729   Thumb Code     0  llshl.o(.text)
    __aeabi_lasr                             0x08000747   Thumb Code    36  llsshr.o(.text)
    _ll_sshift_r                             0x08000747   Thumb Code     0  llsshr.o(.text)
    ADC_Cmd                                  0x0800076b   Thumb Code    20  stm32f10x_adc.o(i.ADC_Cmd)
    ADC_ExternalTrigInjectedConvCmd          0x0800077f   Thumb Code    20  stm32f10x_adc.o(i.ADC_ExternalTrigInjectedConvCmd)
    ADC_ExternalTrigInjectedConvConfig       0x08000793   Thumb Code    12  stm32f10x_adc.o(i.ADC_ExternalTrigInjectedConvConfig)
    ADC_ITConfig                             0x0800079f   Thumb Code    18  stm32f10x_adc.o(i.ADC_ITConfig)
    ADC_Init                                 0x080007b1   Thumb Code    62  stm32f10x_adc.o(i.ADC_Init)
    ADC_InjectedChannelConfig                0x080007f9   Thumb Code    74  stm32f10x_adc.o(i.ADC_InjectedChannelConfig)
    ADC_InjectedSequencerLengthConfig        0x08000843   Thumb Code    16  stm32f10x_adc.o(i.ADC_InjectedSequencerLengthConfig)
    ADC_TempSensorVrefintCmd                 0x08000855   Thumb Code    22  stm32f10x_adc.o(i.ADC_TempSensorVrefintCmd)
    BoardInit                                0x08000871   Thumb Code    56  board.o(i.BoardInit)
    BusFault_Handler                         0x080008a9   Thumb Code     2  stm32f10x_it.o(i.BusFault_Handler)
    DebugMon_Handler                         0x080008ab   Thumb Code     2  stm32f10x_it.o(i.DebugMon_Handler)
    GPIO_Init                                0x080008ad   Thumb Code   162  stm32f10x_gpio.o(i.GPIO_Init)
    GPIO_SetBits                             0x0800094f   Thumb Code     4  stm32f10x_gpio.o(i.GPIO_SetBits)
    HardFault_Handler                        0x08000953   Thumb Code     2  stm32f10x_it.o(i.HardFault_Handler)
    MemManage_Handler                        0x08000955   Thumb Code     2  stm32f10x_it.o(i.MemManage_Handler)
    NMI_Handler                              0x08000957   Thumb Code     2  stm32f10x_it.o(i.NMI_Handler)
    NVIC_Init                                0x08000959   Thumb Code    94  misc.o(i.NVIC_Init)
    NVIC_PriorityGroupConfig                 0x080009bd   Thumb Code    10  misc.o(i.NVIC_PriorityGroupConfig)
    PendSV_Handler                           0x080009f1   Thumb Code     2  stm32f10x_it.o(i.PendSV_Handler)
    RCC_ADCCLKConfig                         0x080009f5   Thumb Code    14  stm32f10x_rcc.o(i.RCC_ADCCLKConfig)
    RCC_APB1PeriphClockCmd                   0x08000a09   Thumb Code    18  stm32f10x_rcc.o(i.RCC_APB1PeriphClockCmd)
    RCC_APB2PeriphClockCmd                   0x08000a21   Thumb Code    18  stm32f10x_rcc.o(i.RCC_APB2PeriphClockCmd)
    RCC_GetClocksFreq                        0x08000a39   Thumb Code   178  stm32f10x_rcc.o(i.RCC_GetClocksFreq)
    SPI_Cmd                                  0x08000b01   Thumb Code    20  stm32f10x_spi.o(i.SPI_Cmd)
    SPI_Init                                 0x08000b15   Thumb Code    56  stm32f10x_spi.o(i.SPI_Init)
    SVC_Handler                              0x08000b4d   Thumb Code     2  stm32f10x_it.o(i.SVC_Handler)
    SysTick_Handler                          0x08000c21   Thumb Code     4  main.o(i.SysTick_Handler)
    SystemInit                               0x08000c25   Thumb Code    64  system_stm32f10x.o(i.SystemInit)
    USART1_IRQHandler                        0x08000c71   Thumb Code    48  main.o(i.USART1_IRQHandler)
    USART_ClearITPendingBit                  0x08000ca9   Thumb Code    12  stm32f10x_usart.o(i.USART_ClearITPendingBit)
    USART_Cmd                                0x08000cb5   Thumb Code    20  stm32f10x_usart.o(i.USART_Cmd)
    USART_GetITStatus                        0x08000cc9   Thumb Code    62  stm32f10x_usart.o(i.USART_GetITStatus)
    USART_ITConfig                           0x08000d07   Thumb Code    48  stm32f10x_usart.o(i.USART_ITConfig)
    USART_Init                               0x08000d39   Thumb Code   166  stm32f10x_usart.o(i.USART_Init)
    USART_ReceiveData                        0x08000de5   Thumb Code     8  stm32f10x_usart.o(i.USART_ReceiveData)
    UartIdleCallback                         0x08000ded   Thumb Code    12  main.o(i.UartIdleCallback)
    UsageFault_Handler                       0x08000df9   Thumb Code     2  stm32f10x_it.o(i.UsageFault_Handler)
    XModemCallback                           0x08000dfd   Thumb Code    28  main.o(i.XModemCallback)
    XmodemSend                               0x08000e21   Thumb Code    14  main.o(i.XmodemSend)
    __0sprintf                               0x0800125d   Thumb Code    34  printfa.o(i.__0sprintf)
    __1sprintf                               0x0800125d   Thumb Code     0  printfa.o(i.__0sprintf)
    __2sprintf                               0x0800125d   Thumb Code     0  printfa.o(i.__0sprintf)
    __c89sprintf                             0x0800125d   Thumb Code     0  printfa.o(i.__0sprintf)
    sprintf                                  0x0800125d   Thumb Code     0  printfa.o(i.__0sprintf)
    __0vsnprintf                             0x08001285   Thumb Code    40  printfa.o(i.__0vsnprintf)
    __1vsnprintf                             0x08001285   Thumb Code     0  printfa.o(i.__0vsnprintf)
    __2vsnprintf                             0x08001285   Thumb Code     0  printfa.o(i.__0vsnprintf)
    __c89vsnprintf                           0x08001285   Thumb Code     0  printfa.o(i.__0vsnprintf)
    vsnprintf                                0x08001285   Thumb Code     0  printfa.o(i.__0vsnprintf)
    __scatterload_copy                       0x080012b1   Thumb Code    14  handlers.o(i.__scatterload_copy)
    __scatterload_null                       0x080012bf   Thumb Code     2  handlers.o(i.__scatterload_null)
    __scatterload_zeroinit                   0x080012c1   Thumb Code    14  handlers.o(i.__scatterload_zeroinit)
    bDeviceInit                              0x080021b5   Thumb Code   274  b_device.o(i.bDeviceInit)
    bExec                                    0x08002345   Thumb Code    22  b_core.o(i.bExec)
    bHalDelayUs                              0x08002365   Thumb Code    22  b_hal.o(i.bHalDelayUs)
    bHalGetSysTick                           0x08002381   Thumb Code     6  b_hal.o(i.bHalGetSysTick)
    bHalGpioReadPin                          0x0800238d   Thumb Code     8  b_hal_gpio.o(i.bHalGpioReadPin)
    bHalGpioWritePin                         0x08002395   Thumb Code     8  b_hal_gpio.o(i.bHalGpioWritePin)
    bHalIncSysTick                           0x0800239d   Thumb Code    10  b_hal.o(i.bHalIncSysTick)
    bHalInit                                 0x080023ad   Thumb Code    12  b_hal.o(i.bHalInit)
    bHalIntDisable                           0x080023b9   Thumb Code     8  b_hal_it.o(i.bHalIntDisable)
    bHalIntEnable                            0x080023c1   Thumb Code     8  b_hal_it.o(i.bHalIntEnable)
    bHalQSPIReceiveData                      0x080023c9   Thumb Code    18  b_hal_qspi.o(i.bHalQSPIReceiveData)
    bHalQSPISendCmd                          0x080023db   Thumb Code    18  b_hal_qspi.o(i.bHalQSPISendCmd)
    bHalQSPITransmitData                     0x080023ed   Thumb Code    18  b_hal_qspi.o(i.bHalQSPITransmitData)
    bHalSpiReceive                           0x080023ff   Thumb Code    64  b_hal_spi.o(i.bHalSpiReceive)
    bHalSpiSend                              0x0800243f   Thumb Code    62  b_hal_spi.o(i.bHalSpiSend)
    bHalSpiTransfer                          0x0800247d   Thumb Code    70  b_hal_spi.o(i.bHalSpiTransfer)
    bHalUartSend                             0x080024c3   Thumb Code     8  b_hal_uart.o(i.bHalUartSend)
    bHalUserInit                             0x080024cb   Thumb Code     2  b_hal.o(i.bHalUserInit)
    bInit                                    0x080024cd   Thumb Code   232  b_core.o(i.bInit)
    bLogOut                                  0x080027d5   Thumb Code   186  b_util_log.o(i.bLogOut)
    bLogOutput                               0x0800289d   Thumb Code    22  b_util_log.o(i.bLogOutput)
    bMcuGpioReadPin                          0x080028b5   Thumb Code    36  mcu_stm32f10x_gpio.o(i.bMcuGpioReadPin)
    bMcuGpioWritePin                         0x080028dd   Thumb Code    32  mcu_stm32f10x_gpio.o(i.bMcuGpioWritePin)
    bMcuIntDisable                           0x08002901   Thumb Code     2  mcu_stm32f10x_it.o(i.bMcuIntDisable)
    bMcuIntEnable                            0x08002903   Thumb Code     2  mcu_stm32f10x_it.o(i.bMcuIntEnable)
    bMcuQSPIReceiveData                      0x08002905   Thumb Code     4  b_hal_qspi.o(i.bMcuQSPIReceiveData)
    bMcuQSPISendCmd                          0x08002909   Thumb Code     4  b_hal_qspi.o(i.bMcuQSPISendCmd)
    bMcuQSPITransmitData                     0x0800290d   Thumb Code     4  b_hal_qspi.o(i.bMcuQSPITransmitData)
    bMcuSpiReceive                           0x08002911   Thumb Code    42  mcu_stm32f10x_spi.o(i.bMcuSpiReceive)
    bMcuSpiSend                              0x0800293b   Thumb Code    40  mcu_stm32f10x_spi.o(i.bMcuSpiSend)
    bMcuSpiTransfer                          0x08002965   Thumb Code    62  mcu_stm32f10x_spi.o(i.bMcuSpiTransfer)
    bMcuUartSend                             0x080029a9   Thumb Code    68  mcu_stm32f10x_uart.o(i.bMcuUartSend)
    bSPIFLASH_Init                           0x080029f1   Thumb Code    98  b_drv_spiflash.o(i.bSPIFLASH_Init)
    bUtilSPI_WriteRead                       0x08002a71   Thumb Code   168  b_util_spi.o(i.bUtilSPI_WriteRead)
    bUtilUartRxHandler                       0x08002b19   Thumb Code    40  b_util_uart.o(i.bUtilUartRxHandler)
    bXmodem128Init                           0x08002b41   Thumb Code    22  b_mod_xm128.o(i.bXmodem128Init)
    bXmodem128Parse                          0x08002b5d   Thumb Code   182  b_mod_xm128.o(i.bXmodem128Parse)
    bXmodem128Start                          0x08002c19   Thumb Code    44  b_mod_xm128.o(i.bXmodem128Start)
    main                                     0x08002f99   Thumb Code    86  main.o(i.main)
    sfud_chip_erase                          0x080044f1   Thumb Code   264  sfud.o(i.sfud_chip_erase)
    sfud_device_init                         0x08004695   Thumb Code   102  sfud.o(i.sfud_device_init)
    sfud_erase                               0x08004785   Thumb Code   444  sfud.o(i.sfud_erase)
    sfud_read                                0x08004a01   Thumb Code   296  sfud.o(i.sfud_read)
    sfud_read_sfdp                           0x08004bc5   Thumb Code   118  sfud_sfdp.o(i.sfud_read_sfdp)
    sfud_read_status                         0x08004ca1   Thumb Code   122  sfud.o(i.sfud_read_status)
    sfud_sfdp_get_suitable_eraser            0x08004d81   Thumb Code   110  sfud_sfdp.o(i.sfud_sfdp_get_suitable_eraser)
    sfud_spi_port_init                       0x08004e61   Thumb Code    24  b_drv_spiflash.o(i.sfud_spi_port_init)
    sfud_write                               0x08004e85   Thumb Code    42  sfud.o(i.sfud_write)
    sfud_write_status                        0x08004eb1   Thumb Code   164  sfud.o(i.sfud_write_status)
    Region$$Table$$Base                      0x08005b44   Number         0  anon$$obj.o(Region$$Table)
    Region$$Table$$Limit                     0x08005b64   Number         0  anon$$obj.o(Region$$Table)
    bos_polling$$Base                        0x08005b64   Number         0  b_core.o(bos_polling)
    polling_bCoreMonitor                     0x08005b64   Data           4  b_core.o(bos_polling)
    polling_bXmodem128Timeout                0x08005b68   Data           4  b_mod_xm128.o(bos_polling)
    polling_bUtilUartDetectIdle              0x08005b6c   Data           4  b_util_uart.o(bos_polling)
    bos_polling$$Limit                       0x08005b70   Number         0  b_util_uart.o(bos_polling)
    driver_init$$Base                        0x08005b70   Number         0  b_device.o(driver_init)
    init_bDriverNullInit                     0x08005b70   Data           8  b_device.o(driver_init)
    initbSPIFLASH_Init                       0x08005b78   Data           8  b_drv_spiflash.o(driver_init)
    driver_init$$Limit                       0x08005b80   Number         0  b_drv_spiflash.o(driver_init)
    driver_init_0$$Base                      0x08005b80   Number         0  b_device.o(driver_init_0)
    init0_bDriverNullInit                    0x08005b80   Data           8  b_device.o(driver_init_0)
    driver_init_0$$Limit                     0x08005b88   Number         0  b_device.o(driver_init_0)
    FileLen                                  0x20000000   Data           2  main.o(.data)
    XmodemRec                                0x20000004   Data          36  main.o(.data)
    SystemCoreClock                          0x2000003c   Data           4  system_stm32f10x.o(.data)
    AHBPrescTable                            0x20000040   Data          16  system_stm32f10x.o(.data)
    FileBuf                                  0x20000084   Data        1024  main.o(.bss)
    __initial_sp                             0x20001080   Data           0  startup_stm32f10x_cl.o(STACK)



==============================================================================

Memory Map of the image

  Image Entry point : 0x08000151

  Load Region LR_IROM1 (Base: 0x08000000, Size: 0x00005c0c, Max: 0x00040000, ABSOLUTE)

    Execution Region ER_IROM1 (Exec base: 0x08000000, Load base: 0x08000000, Size: 0x00005b88, Max: 0x00040000, ABSOLUTE)

    Exec Addr    Load Addr    Size         Type   Attr      Idx    E Section Name        Object

    0x08000000   0x08000000   0x00000150   Data   RO         3433    RESET               startup_stm32f10x_cl.o
    0x08000150   0x08000150   0x00000000   Code   RO         5095  * .ARM.Collect$$$$00000000  mc_w.l(entry.o)
    0x08000150   0x08000150   0x00000004   Code   RO         5375    .ARM.Collect$$$$00000001  mc_w.l(entry2.o)
    0x08000154   0x08000154   0x00000004   Code   RO         5378    .ARM.Collect$$$$00000004  mc_w.l(entry5.o)
    0x08000158   0x08000158   0x00000000   Code   RO         5380    .ARM.Collect$$$$00000008  mc_w.l(entry7b.o)
    0x08000158   0x08000158   0x00000000   Code   RO         5382    .ARM.Collect$$$$0000000A  mc_w.l(entry8b.o)
    0x08000158   0x08000158   0x00000008   Code   RO         5383    .ARM.Collect$$$$0000000B  mc_w.l(entry9a.o)
    0x08000160   0x08000160   0x00000000   Code   RO         5385    .ARM.Collect$$$$0000000D  mc_w.l(entry10a.o)
    0x08000160   0x08000160   0x00000000   Code   RO         5387    .ARM.Collect$$$$0000000F  mc_w.l(entry11a.o)
    0x08000160   0x08000160   0x00000004   Code   RO         5376    .ARM.Collect$$$$00002712  mc_w.l(entry2.o)
    0x08000164   0x08000164   0x00000024   Code   RO         3434    .text               startup_stm32f10x_cl.o
    0x08000188   0x08000188   0x00000024   Code   RO         5098    .text               mc_w.l(memcpya.o)
    0x080001ac   0x080001ac   0x00000024   Code   RO         5100    .text               mc_w.l(memseta.o)
    0x080001d0   0x080001d0   0x0000000e   Code   RO         5102    .text               mc_w.l(strlen.o)
    0x080001de   0x080001de   0x000000e4   Code   RO         5367    .text               mf_w.l(dmul.o)
    0x080002c2   0x080002c2   0x000000de   Code   RO         5369    .text               mf_w.l(ddiv.o)
    0x080003a0   0x080003a0   0x0000001a   Code   RO         5371    .text               mf_w.l(dfltui.o)
    0x080003ba   0x080003ba   0x00000032   Code   RO         5373    .text               mf_w.l(dfixui.o)
    0x080003ec   0x080003ec   0x0000002c   Code   RO         5390    .text               mc_w.l(uidiv.o)
    0x08000418   0x08000418   0x00000062   Code   RO         5392    .text               mc_w.l(uldiv.o)
    0x0800047a   0x0800047a   0x00000020   Code   RO         5394    .text               mc_w.l(llushr.o)
    0x0800049a   0x0800049a   0x00000000   Code   RO         5396    .text               mc_w.l(iusefp.o)
    0x0800049a   0x0800049a   0x000000ba   Code   RO         5397    .text               mf_w.l(depilogue.o)
    0x08000554   0x08000554   0x0000014e   Code   RO         5399    .text               mf_w.l(dadd.o)
    0x080006a2   0x080006a2   0x00000030   Code   RO         5401    .text               mf_w.l(dfixul.o)
    0x080006d2   0x080006d2   0x00000002   PAD
    0x080006d4   0x080006d4   0x00000030   Code   RO         5403    .text               mf_w.l(cdrcmple.o)
    0x08000704   0x08000704   0x00000024   Code   RO         5405    .text               mc_w.l(init.o)
    0x08000728   0x08000728   0x0000001e   Code   RO         5407    .text               mc_w.l(llshl.o)
    0x08000746   0x08000746   0x00000024   Code   RO         5409    .text               mc_w.l(llsshr.o)
    0x0800076a   0x0800076a   0x00000014   Code   RO          433    i.ADC_Cmd           stm32f10x_adc.o
    0x0800077e   0x0800077e   0x00000014   Code   RO          439    i.ADC_ExternalTrigInjectedConvCmd  stm32f10x_adc.o
    0x08000792   0x08000792   0x0000000c   Code   RO          440    i.ADC_ExternalTrigInjectedConvConfig  stm32f10x_adc.o
    0x0800079e   0x0800079e   0x00000012   Code   RO          450    i.ADC_ITConfig      stm32f10x_adc.o
    0x080007b0   0x080007b0   0x00000048   Code   RO          451    i.ADC_Init          stm32f10x_adc.o
    0x080007f8   0x080007f8   0x0000004a   Code   RO          452    i.ADC_InjectedChannelConfig  stm32f10x_adc.o
    0x08000842   0x08000842   0x00000010   Code   RO          454    i.ADC_InjectedSequencerLengthConfig  stm32f10x_adc.o
    0x08000852   0x08000852   0x00000002   PAD
    0x08000854   0x08000854   0x0000001c   Code   RO          462    i.ADC_TempSensorVrefintCmd  stm32f10x_adc.o
    0x08000870   0x08000870   0x00000038   Code   RO         5063    i.BoardInit         board.o
    0x080008a8   0x080008a8   0x00000002   Code   RO          330    i.BusFault_Handler  stm32f10x_it.o
    0x080008aa   0x080008aa   0x00000002   Code   RO          331    i.DebugMon_Handler  stm32f10x_it.o
    0x080008ac   0x080008ac   0x000000a2   Code   RO         1522    i.GPIO_Init         stm32f10x_gpio.o
    0x0800094e   0x0800094e   0x00000004   Code   RO         1530    i.GPIO_SetBits      stm32f10x_gpio.o
    0x08000952   0x08000952   0x00000002   Code   RO          332    i.HardFault_Handler  stm32f10x_it.o
    0x08000954   0x08000954   0x00000002   Code   RO          333    i.MemManage_Handler  stm32f10x_it.o
    0x08000956   0x08000956   0x00000002   Code   RO          334    i.NMI_Handler       stm32f10x_it.o
    0x08000958   0x08000958   0x00000064   Code   RO          391    i.NVIC_Init         misc.o
    0x080009bc   0x080009bc   0x00000014   Code   RO          392    i.NVIC_PriorityGroupConfig  misc.o
    0x080009d0   0x080009d0   0x00000020   Code   RO            1    i.NVIC_SetPriority  main.o
    0x080009f0   0x080009f0   0x00000002   Code   RO          335    i.PendSV_Handler    stm32f10x_it.o
    0x080009f2   0x080009f2   0x00000002   PAD
    0x080009f4   0x080009f4   0x00000014   Code   RO         1939    i.RCC_ADCCLKConfig  stm32f10x_rcc.o
    0x08000a08   0x08000a08   0x00000018   Code   RO         1942    i.RCC_APB1PeriphClockCmd  stm32f10x_rcc.o
    0x08000a20   0x08000a20   0x00000018   Code   RO         1944    i.RCC_APB2PeriphClockCmd  stm32f10x_rcc.o
    0x08000a38   0x08000a38   0x000000c8   Code   RO         1952    i.RCC_GetClocksFreq  stm32f10x_rcc.o
    0x08000b00   0x08000b00   0x00000014   Code   RO         2479    i.SPI_Cmd           stm32f10x_spi.o
    0x08000b14   0x08000b14   0x00000038   Code   RO         2492    i.SPI_Init          stm32f10x_spi.o
    0x08000b4c   0x08000b4c   0x00000002   Code   RO          336    i.SVC_Handler       stm32f10x_it.o
    0x08000b4e   0x08000b4e   0x00000002   PAD
    0x08000b50   0x08000b50   0x000000d0   Code   RO         3402    i.SetSysClockTo72   system_stm32f10x.o
    0x08000c20   0x08000c20   0x00000004   Code   RO            2    i.SysTick_Handler   main.o
    0x08000c24   0x08000c24   0x0000004c   Code   RO         3404    i.SystemInit        system_stm32f10x.o
    0x08000c70   0x08000c70   0x00000038   Code   RO            3    i.USART1_IRQHandler  main.o
    0x08000ca8   0x08000ca8   0x0000000c   Code   RO         3155    i.USART_ClearITPendingBit  stm32f10x_usart.o
    0x08000cb4   0x08000cb4   0x00000014   Code   RO         3158    i.USART_Cmd         stm32f10x_usart.o
    0x08000cc8   0x08000cc8   0x0000003e   Code   RO         3162    i.USART_GetITStatus  stm32f10x_usart.o
    0x08000d06   0x08000d06   0x00000030   Code   RO         3164    i.USART_ITConfig    stm32f10x_usart.o
    0x08000d36   0x08000d36   0x00000002   PAD
    0x08000d38   0x08000d38   0x000000ac   Code   RO         3165    i.USART_Init        stm32f10x_usart.o
    0x08000de4   0x08000de4   0x00000008   Code   RO         3172    i.USART_ReceiveData  stm32f10x_usart.o
    0x08000dec   0x08000dec   0x0000000c   Code   RO            4    i.UartIdleCallback  main.o
    0x08000df8   0x08000df8   0x00000002   Code   RO          337    i.UsageFault_Handler  stm32f10x_it.o
    0x08000dfa   0x08000dfa   0x00000002   PAD
    0x08000dfc   0x08000dfc   0x00000024   Code   RO            5    i.XModemCallback    main.o
    0x08000e20   0x08000e20   0x0000000e   Code   RO            6    i.XmodemSend        main.o
    0x08000e2e   0x08000e2e   0x00000002   PAD
    0x08000e30   0x08000e30   0x0000007c   Code   RO         5064    i._AdcInit          board.o
    0x08000eac   0x08000eac   0x00000268   Code   RO         5065    i._GpioInit         board.o
    0x08001114   0x08001114   0x00000090   Code   RO         5066    i._SpiInit          board.o
    0x080011a4   0x080011a4   0x000000a0   Code   RO         5067    i._UartInit         board.o
    0x08001244   0x08001244   0x00000018   Code   RO         4232    i._UtilUartListAdd  b_util_uart.o
    0x0800125c   0x0800125c   0x00000028   Code   RO         5341    i.__0sprintf        mc_w.l(printfa.o)
    0x08001284   0x08001284   0x0000002c   Code   RO         5344    i.__0vsnprintf      mc_w.l(printfa.o)
    0x080012b0   0x080012b0   0x0000000e   Code   RO         5413    i.__scatterload_copy  mc_w.l(handlers.o)
    0x080012be   0x080012be   0x00000002   Code   RO         5414    i.__scatterload_null  mc_w.l(handlers.o)
    0x080012c0   0x080012c0   0x0000000e   Code   RO         5415    i.__scatterload_zeroinit  mc_w.l(handlers.o)
    0x080012ce   0x080012ce   0x00000002   Code   RO         3440    i._bCoreMonitor     b_core.o
    0x080012d0   0x080012d0   0x00000004   Code   RO         3538    i._bDriverNullInit  b_device.o
    0x080012d4   0x080012d4   0x0000005c   Code   RO         4526    i._bHalUpdateDelayParam  b_hal.o
    0x08001330   0x08001330   0x0000005e   Code   RO         3628    i._bSPIFLASH_Close  b_drv_spiflash.o
    0x0800138e   0x0800138e   0x0000003e   Code   RO         3629    i._bSPIFLASH_Ctl    b_drv_spiflash.o
    0x080013cc   0x080013cc   0x0000005e   Code   RO         3630    i._bSPIFLASH_Open   b_drv_spiflash.o
    0x0800142a   0x0800142a   0x00000012   Code   RO         3631    i._bSPIFLASH_ReadBuf  b_drv_spiflash.o
    0x0800143c   0x0800143c   0x00000012   Code   RO         3632    i._bSPIFLASH_WriteBuf  b_drv_spiflash.o
    0x0800144e   0x0800144e   0x00000004   Code   RO         3633    i._bSPIFlashSPI_Lock  b_drv_spiflash.o
    0x08001452   0x08001452   0x00000004   Code   RO         3634    i._bSPIFlashSPI_Unlock  b_drv_spiflash.o
    0x08001456   0x08001456   0x00000114   Code   RO         3635    i._bSPIFlashSPI_WR  b_drv_spiflash.o
    0x0800156a   0x0800156a   0x00000002   PAD
    0x0800156c   0x0800156c   0x0000006c   Code   RO         4233    i._bUtilUartDetectIdle  b_util_uart.o
    0x080015d8   0x080015d8   0x00000042   Code   RO         4008    i._bXmodem128ISValid  b_mod_xm128.o
    0x0800161a   0x0800161a   0x00000002   PAD
    0x0800161c   0x0800161c   0x0000004c   Code   RO         4009    i._bXmodem128Timeout  b_mod_xm128.o
    0x08001668   0x08001668   0x00000184   Code   RO         5346    i._fp_digits        mc_w.l(printfa.o)
    0x080017ec   0x080017ec   0x000006dc   Code   RO         5347    i._printf_core      mc_w.l(printfa.o)
    0x08001ec8   0x08001ec8   0x00000024   Code   RO         5348    i._printf_post_padding  mc_w.l(printfa.o)
    0x08001eec   0x08001eec   0x0000002e   Code   RO         5349    i._printf_pre_padding  mc_w.l(printfa.o)
    0x08001f1a   0x08001f1a   0x00000016   Code   RO         5350    i._snputc           mc_w.l(printfa.o)
    0x08001f30   0x08001f30   0x0000000a   Code   RO         5351    i._sputc            mc_w.l(printfa.o)
    0x08001f3a   0x08001f3a   0x00000002   PAD
    0x08001f3c   0x08001f3c   0x00000278   Code   RO         3713    i.aai_write         sfud.o
    0x080021b4   0x080021b4   0x00000190   Code   RO         3542    i.bDeviceInit       b_device.o
    0x08002344   0x08002344   0x00000020   Code   RO         3444    i.bExec             b_core.o
    0x08002364   0x08002364   0x0000001c   Code   RO         4528    i.bHalDelayUs       b_hal.o
    0x08002380   0x08002380   0x0000000c   Code   RO         4529    i.bHalGetSysTick    b_hal.o
    0x0800238c   0x0800238c   0x00000008   Code   RO         4680    i.bHalGpioReadPin   b_hal_gpio.o
    0x08002394   0x08002394   0x00000008   Code   RO         4682    i.bHalGpioWritePin  b_hal_gpio.o
    0x0800239c   0x0800239c   0x00000010   Code   RO         4530    i.bHalIncSysTick    b_hal.o
    0x080023ac   0x080023ac   0x0000000c   Code   RO         4531    i.bHalInit          b_hal.o
    0x080023b8   0x080023b8   0x00000008   Code   RO         4811    i.bHalIntDisable    b_hal_it.o
    0x080023c0   0x080023c0   0x00000008   Code   RO         4812    i.bHalIntEnable     b_hal_it.o
    0x080023c8   0x080023c8   0x00000012   Code   RO         4973    i.bHalQSPIReceiveData  b_hal_qspi.o
    0x080023da   0x080023da   0x00000012   Code   RO         4974    i.bHalQSPISendCmd   b_hal_qspi.o
    0x080023ec   0x080023ec   0x00000012   Code   RO         4975    i.bHalQSPITransmitData  b_hal_qspi.o
    0x080023fe   0x080023fe   0x00000040   Code   RO         4841    i.bHalSpiReceive    b_hal_spi.o
    0x0800243e   0x0800243e   0x0000003e   Code   RO         4842    i.bHalSpiSend       b_hal_spi.o
    0x0800247c   0x0800247c   0x00000046   Code   RO         4844    i.bHalSpiTransfer   b_hal_spi.o
    0x080024c2   0x080024c2   0x00000008   Code   RO         4900    i.bHalUartSend      b_hal_uart.o
    0x080024ca   0x080024ca   0x00000002   Code   RO         4532    i.bHalUserInit      b_hal.o
    0x080024cc   0x080024cc   0x00000308   Code   RO         3445    i.bInit             b_core.o
    0x080027d4   0x080027d4   0x000000c8   Code   RO         4166    i.bLogOut           b_util_log.o
    0x0800289c   0x0800289c   0x00000016   Code   RO         4167    i.bLogOutput        b_util_log.o
    0x080028b2   0x080028b2   0x00000002   PAD
    0x080028b4   0x080028b4   0x00000028   Code   RO         4376    i.bMcuGpioReadPin   mcu_stm32f10x_gpio.o
    0x080028dc   0x080028dc   0x00000024   Code   RO         4378    i.bMcuGpioWritePin  mcu_stm32f10x_gpio.o
    0x08002900   0x08002900   0x00000002   Code   RO         4447    i.bMcuIntDisable    mcu_stm32f10x_it.o
    0x08002902   0x08002902   0x00000002   Code   RO         4448    i.bMcuIntEnable     mcu_stm32f10x_it.o
    0x08002904   0x08002904   0x00000004   Code   RO         4976    i.bMcuQSPIReceiveData  b_hal_qspi.o
    0x08002908   0x08002908   0x00000004   Code   RO         4977    i.bMcuQSPISendCmd   b_hal_qspi.o
    0x0800290c   0x0800290c   0x00000004   Code   RO         4978    i.bMcuQSPITransmitData  b_hal_qspi.o
    0x08002910   0x08002910   0x0000002a   Code   RO         4468    i.bMcuSpiReceive    mcu_stm32f10x_spi.o
    0x0800293a   0x0800293a   0x00000028   Code   RO         4469    i.bMcuSpiSend       mcu_stm32f10x_spi.o
    0x08002962   0x08002962   0x00000002   PAD
    0x08002964   0x08002964   0x00000044   Code   RO         4471    i.bMcuSpiTransfer   mcu_stm32f10x_spi.o
    0x080029a8   0x080029a8   0x00000048   Code   RO         4504    i.bMcuUartSend      mcu_stm32f10x_uart.o
    0x080029f0   0x080029f0   0x00000080   Code   RO         3636    i.bSPIFLASH_Init    b_drv_spiflash.o
    0x08002a70   0x08002a70   0x000000a8   Code   RO         4217    i.bUtilSPI_WriteRead  b_util_spi.o
    0x08002b18   0x08002b18   0x00000028   Code   RO         4238    i.bUtilUartRxHandler  b_util_uart.o
    0x08002b40   0x08002b40   0x0000001c   Code   RO         4010    i.bXmodem128Init    b_mod_xm128.o
    0x08002b5c   0x08002b5c   0x000000bc   Code   RO         4011    i.bXmodem128Parse   b_mod_xm128.o
    0x08002c18   0x08002c18   0x00000030   Code   RO         4012    i.bXmodem128Start   b_mod_xm128.o
    0x08002c48   0x08002c48   0x00000350   Code   RO         3714    i.hardware_init     sfud.o
    0x08002f98   0x08002f98   0x00000064   Code   RO            7    i.main              main.o
    0x08002ffc   0x08002ffc   0x000000ec   Code   RO         3715    i.make_adress_byte_array  sfud.o
    0x080030e8   0x080030e8   0x000002b8   Code   RO         3716    i.page256_or_1_byte_write  sfud.o
    0x080033a0   0x080033a0   0x000001dc   Code   RO         3842    i.read_basic_header  sfud_sfdp.o
    0x0800357c   0x0800357c   0x000006a6   Code   RO         3843    i.read_basic_table  sfud_sfdp.o
    0x08003c22   0x08003c22   0x00000002   PAD
    0x08003c24   0x08003c24   0x00000130   Code   RO         3717    i.read_jedec_id     sfud.o
    0x08003d54   0x08003d54   0x00000188   Code   RO         3844    i.read_sfdp_data    sfud_sfdp.o
    0x08003edc   0x08003edc   0x000001fc   Code   RO         3845    i.read_sfdp_header  sfud_sfdp.o
    0x080040d8   0x080040d8   0x00000180   Code   RO         3718    i.reset             sfud.o
    0x08004258   0x08004258   0x0000017c   Code   RO         3719    i.set_4_byte_address_mode  sfud.o
    0x080043d4   0x080043d4   0x0000011c   Code   RO         3720    i.set_write_enabled  sfud.o
    0x080044f0   0x080044f0   0x000001a4   Code   RO         3721    i.sfud_chip_erase   sfud.o
    0x08004694   0x08004694   0x000000f0   Code   RO         3722    i.sfud_device_init  sfud.o
    0x08004784   0x08004784   0x0000027c   Code   RO         3723    i.sfud_erase        sfud.o
    0x08004a00   0x08004a00   0x000001c4   Code   RO         3725    i.sfud_read         sfud.o
    0x08004bc4   0x08004bc4   0x000000dc   Code   RO         3846    i.sfud_read_sfdp    sfud_sfdp.o
    0x08004ca0   0x08004ca0   0x000000e0   Code   RO         3726    i.sfud_read_status  sfud.o
    0x08004d80   0x08004d80   0x000000e0   Code   RO         3847    i.sfud_sfdp_get_suitable_eraser  sfud_sfdp.o
    0x08004e60   0x08004e60   0x00000024   Code   RO         3637    i.sfud_spi_port_init  b_drv_spiflash.o
    0x08004e84   0x08004e84   0x0000002a   Code   RO         3728    i.sfud_write        sfud.o
    0x08004eae   0x08004eae   0x00000002   PAD
    0x08004eb0   0x08004eb0   0x00000128   Code   RO         3729    i.sfud_write_status  sfud.o
    0x08004fd8   0x08004fd8   0x00000094   Code   RO         3730    i.software_init     sfud.o
    0x0800506c   0x0800506c   0x00000118   Code   RO         3731    i.wait_busy         sfud.o
    0x08005184   0x08005184   0x00000006   Data   RO         3453    .constdata          b_core.o
    0x0800518a   0x0800518a   0x00000059   Data   RO         3552    .constdata          b_device.o
    0x080051e3   0x080051e3   0x0000000c   Data   RO         3639    .constdata          b_drv_spiflash.o
    0x080051ef   0x080051ef   0x00000001   PAD
    0x080051f0   0x080051f0   0x00000370   Data   RO         3733    .constdata          sfud.o
    0x08005560   0x08005560   0x00000070   Data   RO         3848    .constdata          sfud_sfdp.o
    0x080055d0   0x080055d0   0x00000006   Data   RO         4170    .constdata          b_util_log.o
    0x080055d6   0x080055d6   0x00000002   PAD
    0x080055d8   0x080055d8   0x00000011   Data   RO         3553    .conststring        b_device.o
    0x080055e9   0x080055e9   0x00000003   PAD
    0x080055ec   0x080055ec   0x000001c5   Data   RO         3734    .conststring        sfud.o
    0x080057b1   0x080057b1   0x00000003   PAD
    0x080057b4   0x080057b4   0x0000038f   Data   RO         3849    .conststring        sfud_sfdp.o
    0x08005b43   0x08005b43   0x00000001   PAD
    0x08005b44   0x08005b44   0x00000020   Data   RO         5411    Region$$Table       anon$$obj.o
    0x08005b64   0x08005b64   0x00000004   Data   RO         3455    bos_polling         b_core.o
    0x08005b68   0x08005b68   0x00000004   Data   RO         4015    bos_polling         b_mod_xm128.o
    0x08005b6c   0x08005b6c   0x00000004   Data   RO         4242    bos_polling         b_util_uart.o
    0x08005b70   0x08005b70   0x00000008   Data   RO         3555    driver_init         b_device.o
    0x08005b78   0x08005b78   0x00000008   Data   RO         3640    driver_init         b_drv_spiflash.o
    0x08005b80   0x08005b80   0x00000008   Data   RO         3556    driver_init_0       b_device.o


    Execution Region RW_IRAM1 (Exec base: 0x20000000, Load base: 0x08005b88, Size: 0x00001080, Max: 0x00010000, ABSOLUTE)

    Exec Addr    Load Addr    Size         Type   Attr      Idx    E Section Name        Object

    0x20000000   0x08005b88   0x00000028   Data   RW           10    .data               main.o
    0x20000028   0x08005bb0   0x00000014   Data   RW         1980    .data               stm32f10x_rcc.o
    0x2000003c   0x08005bc4   0x00000014   Data   RW         3405    .data               system_stm32f10x.o
    0x20000050   0x08005bd8   0x0000000c   Data   RW         3554    .data               b_device.o
    0x2000005c   0x08005be4   0x0000000c   Data   RW         4472    .data               mcu_stm32f10x_spi.o
    0x20000068   0x08005bf0   0x00000014   Data   RW         4505    .data               mcu_stm32f10x_uart.o
    0x2000007c   0x08005c04   0x00000008   Data   RW         4533    .data               b_hal.o
    0x20000084        -       0x00000400   Zero   RW            8    .bss                main.o
    0x20000484        -       0x000000c8   Zero   RW            9    .bss                main.o
    0x2000054c        -       0x00000058   Zero   RW         3550    .bss                b_device.o
    0x200005a4        -       0x00000074   Zero   RW         3638    .bss                b_drv_spiflash.o
    0x20000618        -       0x00000105   Zero   RW         3732    .bss                sfud.o
    0x2000071d   0x08005c0c   0x00000003   PAD
    0x20000720        -       0x00000014   Zero   RW         4014    .bss                b_mod_xm128.o
    0x20000734        -       0x00000100   Zero   RW         4169    .bss                b_util_log.o
    0x20000834        -       0x00000048   Zero   RW         4240    .bss                b_util_uart.o
    0x2000087c   0x08005c0c   0x00000004   PAD
    0x20000880        -       0x00000800   Zero   RW         3431    STACK               startup_stm32f10x_cl.o


==============================================================================

Image component sizes


      Code (inc. data)   RO Data    RW Data    ZI Data      Debug   Object Name

       810        554         10          0          0       2602   b_core.o
       404        126        122         12         88       7040   b_device.o
       734         42         20          0        116      16575   b_drv_spiflash.o
       162         32          0          8          0       3538   b_hal.o
        16          0          0          0          0       1173   b_hal_gpio.o
        16          0          0          0          0        957   b_hal_it.o
        66          0          0          0          0       3822   b_hal_qspi.o
       196          0          0          0          0       2773   b_hal_spi.o
         8          0          0          0          0        963   b_hal_uart.o
       406         20          4          0         20       5173   b_mod_xm128.o
       222         14          6          0        256       2995   b_util_log.o
       168          0          0          0          0       1313   b_util_spi.o
       172         10          4          0         72       3559   b_util_uart.o
      1100         42          0          0          0       3512   board.o
         0          0          0          0          0         32   core_cm3.o
       254         30          0         40       1224     302521   main.o
        76          8          0          0          0       4201   mcu_stm32f10x_gpio.o
         4          0          0          0          0        985   mcu_stm32f10x_it.o
       150          6          0         12          0       4353   mcu_stm32f10x_spi.o
        72          4          0         20          0       2847   mcu_stm32f10x_uart.o
       120         16          0          0          0       1699   misc.o
      6502       2552       1333          0        261      23602   sfud.o
      3522       1520       1023          0          0       6577   sfud_sfdp.o
        36          8        336          0       2048        920   startup_stm32f10x_cl.o
       260         16          0          0          0       7514   stm32f10x_adc.o
       166          0          0          0          0       2595   stm32f10x_gpio.o
        16          0          0          0          0       3308   stm32f10x_it.o
       268         40          0         20          0       6217   stm32f10x_rcc.o
        76          0          0          0          0       2345   stm32f10x_spi.o
       322          6          0          0          0       6052   stm32f10x_usart.o
       284         30          0         20          0       2181   system_stm32f10x.o

    ----------------------------------------------------------------------
     16632       5076       2900        132       4092     433944   Object Totals
         0          0         32          0          0          0   (incl. Generated)
        24          0         10          0          7          0   (incl. Padding)

    ----------------------------------------------------------------------

      Code (inc. data)   RO Data    RW Data    ZI Data      Debug   Library Member Name

         0          0          0          0          0          0   entry.o
         0          0          0          0          0          0   entry10a.o
         0          0          0          0          0          0   entry11a.o
         8          4          0          0          0          0   entry2.o
         4          0          0          0          0          0   entry5.o
         0          0          0          0          0          0   entry7b.o
         0          0          0          0          0          0   entry8b.o
         8          4          0          0          0          0   entry9a.o
        30          0          0          0          0          0   handlers.o
        36          8          0          0          0         68   init.o
         0          0          0          0          0          0   iusefp.o
        30          0          0          0          0         68   llshl.o
        36          0          0          0          0         68   llsshr.o
        32          0          0          0          0         68   llushr.o
        36          0          0          0          0         68   memcpya.o
        36          0          0          0          0        108   memseta.o
      2342         90          0          0          0        668   printfa.o
        14          0          0          0          0         68   strlen.o
        44          0          0          0          0         80   uidiv.o
        98          0          0          0          0         92   uldiv.o
        48          0          0          0          0         68   cdrcmple.o
       334          0          0          0          0        148   dadd.o
       222          0          0          0          0        100   ddiv.o
       186          0          0          0          0        176   depilogue.o
        50          0          0          0          0         76   dfixui.o
        48          0          0          0          0         68   dfixul.o
        26          0          0          0          0         76   dfltui.o
       228          0          0          0          0         96   dmul.o

    ----------------------------------------------------------------------
      3900        106          0          0          0       2164   Library Totals
         4          0          0          0          0          0   (incl. Padding)

    ----------------------------------------------------------------------

      Code (inc. data)   RO Data    RW Data    ZI Data      Debug   Library Name

      2754        106          0          0          0       1356   mc_w.l
      1142          0          0          0          0        808   mf_w.l

    ----------------------------------------------------------------------
      3900        106          0          0          0       2164   Library Totals

    ----------------------------------------------------------------------

==============================================================================


      Code (inc. data)   RO Data    RW Data    ZI Data      Debug   

     20532       5182       2900        132       4092     428928   Grand Totals
     20532       5182       2900        132       4092     428928   ELF Image Totals
     20532       5182       2900        132          0          0   ROM Totals

==============================================================================

    Total RO  Size (Code + RO Data)                23432 (  22.88kB)
    Total RW  Size (RW Data + ZI Data)              4224 (   4.13kB)
    Total ROM Size (Code + RO Data + RW Data)      23564 (  23.01kB)

==============================================================================

