Component: ARM Compiler 5.06 update 6 (build 750) Tool: armlink [4d35ed]

==============================================================================

Section Cross References

    main.o(i.SysTick_Handler) refers to b_hal.o(i.bHalIncSysTick) for bHalIncSysTick
    main.o(i.USART1_IRQHandler) refers to stm32f10x_usart.o(i.USART_GetITStatus) for USART_GetITStatus
    main.o(i.USART1_IRQHandler) refers to stm32f10x_usart.o(i.USART_ClearITPendingBit) for USART_ClearITPendingBit
    main.o(i.USART1_IRQHandler) refers to stm32f10x_usart.o(i.USART_ReceiveData) for USART_ReceiveData
    main.o(i.main) refers to board.o(i.BoardInit) for BoardInit
    main.o(i.main) refers to main.o(i.NVIC_SetPriority) for NVIC_SetPriority
    main.o(i.main) refers to b_core.o(i.bInit) for bInit
    main.o(i.main) refers to b_core.o(i.bOpen) for bOpen
    main.o(i.main) refers to b_core.o(i.bLseek) for bLseek
    main.o(i.main) refers to b_core.o(i.bRead) for bRead
    main.o(i.main) refers to b_util_log.o(i.bLogOut) for bLogOut
    main.o(i.main) refers to b_core.o(i.bWrite) for bWrite
    main.o(i.main) refers to b_core.o(i.bClose) for bClose
    main.o(i.main) refers to b_core.o(i.bExec) for bExec
    main.o(i.main) refers to system_stm32f10x.o(.data) for SystemCoreClock
    main.o(i.main) refers to main.o(.constdata) for .constdata
    stm32f10x_adc.o(i.ADC_DeInit) refers to stm32f10x_rcc.o(i.RCC_APB2PeriphResetCmd) for RCC_APB2PeriphResetCmd
    stm32f10x_bkp.o(i.BKP_DeInit) refers to stm32f10x_rcc.o(i.RCC_BackupResetCmd) for RCC_BackupResetCmd
==============================================================================

Removing Unused input sections from the image.

    Removing misc.o(i.NVIC_SetVectorTable), (20 bytes).
    Removing misc.o(i.NVIC_SystemLPConfig), (24 bytes).
    Removing misc.o(i.SysTick_CLKSourceConfig), (24 bytes).
    Removing stm32f10x_adc.o(i.ADC_AnalogWatchdogCmd), (16 bytes).
    Removing stm32f10x_adc.o(i.ADC_AnalogWatchdogSingleChannelConfig), (12 bytes).
    Removing stm32f10x_adc.o(i.ADC_AnalogWatchdogThresholdsConfig), (6 bytes).
    Removing stm32f10x_adc.o(i.ADC_AutoInjectedConvCmd), (20 bytes).
    Removing stm32f10x_adc.o(i.ADC_ClearFlag), (6 bytes).
    Removing stm32f10x_adc.o(i.ADC_ClearITPendingBit), (8 bytes).
    Removing stm32f10x_adc.o(i.ADC_DMACmd), (20 bytes).
    Removing stm32f10x_adc.o(i.ADC_DeInit), (68 bytes).
    Removing stm32f10x_adc.o(i.ADC_DiscModeChannelCountConfig), (16 bytes).
    Removing stm32f10x_adc.o(i.ADC_DiscModeCmd), (20 bytes).
    Removing stm32f10x_adc.o(i.ADC_ExternalTrigConvCmd), (20 bytes).
    Removing stm32f10x_adc.o(i.ADC_GetCalibrationStatus), (14 bytes).
    Removing stm32f10x_adc.o(i.ADC_GetConversionValue), (6 bytes).
    Removing stm32f10x_adc.o(i.ADC_GetDualModeConversionValue), (12 bytes).
    Removing stm32f10x_adc.o(i.ADC_GetFlagStatus), (14 bytes).
==============================================================================

Image Symbol Table

    Local Symbols

    Symbol Name                              Value     Ov Type        Size  Object(Section)

    ../clib/microlib/division.c              0x00000000   Number         0  uidiv.o ABSOLUTE
    ../clib/microlib/division.c              0x00000000   Number         0  uldiv.o ABSOLUTE
    ../clib/microlib/init/entry.s            0x00000000   Number         0  entry10a.o ABSOLUTE
    ../clib/microlib/init/entry.s            0x00000000   Number         0  entry10b.o ABSOLUTE
    ../clib/microlib/init/entry.s            0x00000000   Number         0  entry11a.o ABSOLUTE
    ../clib/microlib/init/entry.s            0x00000000   Number         0  entry11b.o ABSOLUTE
    ../clib/microlib/init/entry.s            0x00000000   Number         0  entry9a.o ABSOLUTE
    ../clib/microlib/init/entry.s            0x00000000   Number         0  entry8b.o ABSOLUTE
    ../clib/microlib/init/entry.s            0x00000000   Number         0  entry.o ABSOLUTE
    ../clib/microlib/init/entry.s            0x00000000   Number         0  entry8a.o ABSOLUTE
    ../clib/microlib/init/entry.s            0x00000000   Number         0  entry7a.o ABSOLUTE
    ../clib/microlib/init/entry.s            0x00000000   Number         0  entry7b.o ABSOLUTE
    ../clib/microlib/init/entry.s            0x00000000   Number         0  entry5.o ABSOLUTE
    ../clib/microlib/init/entry.s            0x00000000   Number         0  entry2.o ABSOLUTE
    ../clib/microlib/init/entry.s            0x00000000   Number         0  entry9b.o ABSOLUTE
    ../clib/microlib/longlong.c              0x00000000   Number         0  llsshr.o ABSOLUTE
    ../clib/microlib/longlong.c              0x00000000   Number         0  llshl.o ABSOLUTE
    ../clib/microlib/longlong.c              0x00000000   Number         0  llushr.o ABSOLUTE
    ../clib/microlib/printf/printf.c         0x00000000   Number         0  printf1.o ABSOLUTE
    ../clib/microlib/printf/printf.c         0x00000000   Number         0  printfb.o ABSOLUTE
    ../clib/microlib/printf/printf.c         0x00000000   Number         0  printf4.o ABSOLUTE
    ../clib/microlib/printf/printf.c         0x00000000   Number         0  printf2.o ABSOLUTE
    ../clib/microlib/printf/printf.c         0x00000000   Number         0  printf3.o ABSOLUTE
    ../clib/microlib/printf/printf.c         0x00000000   Number         0  printf8.o ABSOLUTE
    ../clib/microlib/printf/printf.c         0x00000000   Number         0  printf5.o ABSOLUTE
    ../clib/microlib/printf/printf.c         0x00000000   Number         0  printf6.o ABSOLUTE
    ../clib/microlib/printf/printf.c         0x00000000   Number         0  printf7.o ABSOLUTE
    ../clib/microlib/printf/printf.c         0x00000000   Number         0  printfa.o ABSOLUTE
    ../clib/microlib/printf/printf.c         0x00000000   Number         0  printf0.o ABSOLUTE
    ../clib/microlib/printf/stubs.s          0x00000000   Number         0  stubs.o ABSOLUTE
    ../clib/microlib/stdio/streams.c         0x00000000   Number         0  stdout.o ABSOLUTE
    ../clib/microlib/string/memcpy.c         0x00000000   Number         0  memcpya.o ABSOLUTE
    ../clib/microlib/string/memcpy.c         0x00000000   Number         0  memcpyb.o ABSOLUTE
    ../clib/microlib/string/memset.c         0x00000000   Number         0  memseta.o ABSOLUTE
    ../clib/microlib/string/strlen.c         0x00000000   Number         0  strlen.o ABSOLUTE
    ../clib/microlib/stubs.s                 0x00000000   Number         0  iusefp.o ABSOLUTE
    ../fplib/microlib/fpadd.c                0x00000000   Number         0  dadd.o ABSOLUTE
    ../fplib/microlib/fpdiv.c                0x00000000   Number         0  ddiv.o ABSOLUTE
    ../fplib/microlib/fpepilogue.c           0x00000000   Number         0  depilogue.o ABSOLUTE
    ../fplib/microlib/fpfix.c                0x00000000   Number         0  dfixul.o ABSOLUTE
    ../fplib/microlib/fpfix.c                0x00000000   Number         0  dfixui.o ABSOLUTE
    ../fplib/microlib/fpflt.c                0x00000000   Number         0  dfltui.o ABSOLUTE
    ../fplib/microlib/fpmul.c                0x00000000   Number         0  dmul.o ABSOLUTE
    ..\..\..\..\Libraries\CMSIS\CM3\CoreSupport\core_cm3.c 0x00000000   Number         0  core_cm3.o ABSOLUTE
    ..\..\..\..\Libraries\CMSIS\CM3\DeviceSupport\ST\STM32F10x\startup\arm\startup_stm32f10x_cl.s 0x00000000   Number         0  startup_stm32f10x_cl.o ABSOLUTE
    ..\..\..\..\Libraries\CMSIS\CM3\DeviceSupport\ST\STM32F10x\system_stm32f10x.c 0x00000000   Number         0  system_stm32f10x.o ABSOLUTE
    ..\..\..\..\Libraries\STM32F10x_StdPeriph_Driver\src\misc.c 0x00000000   Number         0  misc.o ABSOLUTE
    ..\..\..\..\Libraries\STM32F10x_StdPeriph_Driver\src\stm32f10x_adc.c 0x00000000   Number         0  stm32f10x_adc.o ABSOLUTE
    ..\..\..\..\Libraries\STM32F10x_StdPeriph_Driver\src\stm32f10x_bkp.c 0x00000000   Number         0  stm32f10x_bkp.o ABSOLUTE
    ..\..\..\..\Libraries\STM32F10x_StdPeriph_Driver\src\stm32f10x_can.c 0x00000000   Number         0  stm32f10x_can.o ABSOLUTE
    ..\..\..\..\Libraries\STM32F10x_StdPeriph_Driver\src\stm32f10x_cec.c 0x00000000   Number         0  stm32f10x_cec.o ABSOLUTE
    ..\..\..\..\Libraries\STM32F10x_StdPeriph_Driver\src\stm32f10x_crc.c 0x00000000   Number         0  stm32f10x_crc.o ABSOLUTE
    ..\..\..\..\Libraries\STM32F10x_StdPeriph_Driver\src\stm32f10x_dac.c 0x00000000   Number         0  stm32f10x_dac.o ABSOLUTE
    ..\..\..\..\Libraries\STM32F10x_StdPeriph_Driver\src\stm32f10x_dbgmcu.c 0x00000000   Number         0  stm32f10x_dbgmcu.o ABSOLUTE
    ..\..\..\..\Libraries\STM32F10x_StdPeriph_Driver\src\stm32f10x_dma.c 0x00000000   Number         0  stm32f10x_dma.o ABSOLUTE
    ..\..\..\..\Libraries\STM32F10x_StdPeriph_Driver\src\stm32f10x_exti.c 0x00000000   Number         0  stm32f10x_exti.o ABSOLUTE
    ..\..\..\..\Libraries\STM32F10x_StdPeriph_Driver\src\stm32f10x_flash.c 0x00000000   Number         0  stm32f10x_flash.o ABSOLUTE
    ..\..\..\..\Libraries\STM32F10x_StdPeriph_Driver\src\stm32f10x_fsmc.c 0x00000000   Number         0  stm32f10x_fsmc.o ABSOLUTE
    ..\..\..\..\Libraries\STM32F10x_StdPeriph_Driver\src\stm32f10x_gpio.c 0x00000000   Number         0  stm32f10x_gpio.o ABSOLUTE
    ..\..\..\..\Libraries\STM32F10x_StdPeriph_Driver\src\stm32f10x_i2c.c 0x00000000   Number         0  stm32f10x_i2c.o ABSOLUTE
    ..\..\..\..\Libraries\STM32F10x_StdPeriph_Driver\src\stm32f10x_iwdg.c 0x00000000   Number         0  stm32f10x_iwdg.o ABSOLUTE
    ..\..\..\..\Libraries\STM32F10x_StdPeriph_Driver\src\stm32f10x_pwr.c 0x00000000   Number         0  stm32f10x_pwr.o ABSOLUTE
    ..\..\..\..\Libraries\STM32F10x_StdPeriph_Driver\src\stm32f10x_rcc.c 0x00000000   Number         0  stm32f10x_rcc.o ABSOLUTE
    ..\..\..\..\Libraries\STM32F10x_StdPeriph_Driver\src\stm32f10x_rtc.c 0x00000000   Number         0  stm32f10x_rtc.o ABSOLUTE
    ..\..\..\..\Libraries\STM32F10x_StdPeriph_Driver\src\stm32f10x_sdio.c 0x00000000   Number         0  stm32f10x_sdio.o ABSOLUTE
    ..\..\..\..\Libraries\STM32F10x_StdPeriph_Driver\src\stm32f10x_spi.c 0x00000000   Number         0  stm32f10x_spi.o ABSOLUTE
    ..\..\..\..\Libraries\STM32F10x_StdPeriph_Driver\src\stm32f10x_tim.c 0x00000000   Number         0  stm32f10x_tim.o ABSOLUTE
    ..\..\..\..\Libraries\STM32F10x_StdPeriph_Driver\src\stm32f10x_usart.c 0x00000000   Number         0  stm32f10x_usart.o ABSOLUTE
    ..\..\..\..\Libraries\STM32F10x_StdPeriph_Driver\src\stm32f10x_wwdg.c 0x00000000   Number         0  stm32f10x_wwdg.o ABSOLUTE
    ..\..\..\..\babyos\bos\core\b_core.c     0x00000000   Number         0  b_core.o ABSOLUTE
    ..\..\..\..\babyos\bos\core\b_device.c   0x00000000   Number         0  b_device.o ABSOLUTE
    ..\..\..\..\babyos\bos\drivers\b_drv_24cxx.c 0x00000000   Number         0  b_drv_24cxx.o ABSOLUTE
    ..\..\..\..\babyos\bos\hal\b_hal.c       0x00000000   Number         0  b_hal.o ABSOLUTE
    ..\..\..\..\babyos\bos\hal\b_hal_flash.c 0x00000000   Number         0  b_hal_flash.o ABSOLUTE
    ..\..\..\..\babyos\bos\hal\b_hal_gpio.c  0x00000000   Number         0  b_hal_gpio.o ABSOLUTE
    ..\..\..\..\babyos\bos\hal\b_hal_i2c.c   0x00000000   Number         0  b_hal_i2c.o ABSOLUTE
    ..\..\..\..\babyos\bos\hal\b_hal_it.c    0x00000000   Number         0  b_hal_it.o ABSOLUTE
    ..\..\..\..\babyos\bos\hal\b_hal_spi.c   0x00000000   Number         0  b_hal_spi.o ABSOLUTE
    ..\..\..\..\babyos\bos\hal\b_hal_uart.c  0x00000000   Number         0  b_hal_uart.o ABSOLUTE
    ..\..\..\..\babyos\bos\mcu\st\stm32f10x\mcu_stm32f10x_flash.c 0x00000000   Number         0  mcu_stm32f10x_flash.o ABSOLUTE
    ..\..\..\..\babyos\bos\mcu\st\stm32f10x\mcu_stm32f10x_gpio.c 0x00000000   Number         0  mcu_stm32f10x_gpio.o ABSOLUTE
    ..\..\..\..\babyos\bos\mcu\st\stm32f10x\mcu_stm32f10x_i2c.c 0x00000000   Number         0  mcu_stm32f10x_i2c.o ABSOLUTE
    ..\..\..\..\babyos\bos\mcu\st\stm32f10x\mcu_stm32f10x_it.c 0x00000000   Number         0  mcu_stm32f10x_it.o ABSOLUTE
    ..\..\..\..\babyos\bos\mcu\st\stm32f10x\mcu_stm32f10x_spi.c 0x00000000   Number         0  mcu_stm32f10x_spi.o ABSOLUTE
    ..\..\..\..\babyos\bos\mcu\st\stm32f10x\mcu_stm32f10x_uart.c 0x00000000   Number         0  mcu_stm32f10x_uart.o ABSOLUTE
    ..\..\..\..\babyos\bos\modules\b_mod_adchub.c 0x00000000   Number         0  b_mod_adchub.o ABSOLUTE
    ..\..\..\..\babyos\bos\modules\b_mod_button.c 0x00000000   Number         0  b_mod_button.o ABSOLUTE
    ..\..\..\..\babyos\bos\modules\b_mod_error.c 0x00000000   Number         0  b_mod_error.o ABSOLUTE
    ..\..\..\..\babyos\bos\modules\b_mod_fs.c 0x00000000   Number         0  b_mod_fs.o ABSOLUTE
    ..\..\..\..\babyos\bos\modules\b_mod_gui.c 0x00000000   Number         0  b_mod_gui.o ABSOLUTE
    ..\..\..\..\babyos\bos\modules\b_mod_kv.c 0x00000000   Number         0  b_mod_kv.o ABSOLUTE
    ..\..\..\..\babyos\bos\modules\b_mod_menu.c 0x00000000   Number         0  b_mod_menu.o ABSOLUTE
    ..\..\..\..\babyos\bos\modules\b_mod_modbus.c 0x00000000   Number         0  b_mod_modbus.o ABSOLUTE
    ..\..\..\..\babyos\bos\modules\b_mod_param.c 0x00000000   Number         0  b_mod_param.o ABSOLUTE
    ..\..\..\..\babyos\bos\modules\b_mod_protocol.c 0x00000000   Number         0  b_mod_protocol.o ABSOLUTE
    ..\..\..\..\babyos\bos\modules\b_mod_pwm.c 0x00000000   Number         0  b_mod_pwm.o ABSOLUTE
    ..\..\..\..\babyos\bos\modules\b_mod_shell.c 0x00000000   Number         0  b_mod_shell.o ABSOLUTE
    ..\..\..\..\babyos\bos\modules\b_mod_timer.c 0x00000000   Number         0  b_mod_timer.o ABSOLUTE
    ..\..\..\..\babyos\bos\modules\b_mod_trace.c 0x00000000   Number         0  b_mod_trace.o ABSOLUTE
    ..\..\..\..\babyos\bos\modules\b_mod_xm128.c 0x00000000   Number         0  b_mod_xm128.o ABSOLUTE
    ..\..\..\..\babyos\bos\modules\b_mod_ymodem.c 0x00000000   Number         0  b_mod_ymodem.o ABSOLUTE
    ..\..\..\..\babyos\bos\utils\b_util_fifo.c 0x00000000   Number         0  b_util_fifo.o ABSOLUTE
    ..\..\..\..\babyos\bos\utils\b_util_log.c 0x00000000   Number         0  b_util_log.o ABSOLUTE
    ..\..\..\..\babyos\bos\utils\b_util_lunar.c 0x00000000   Number         0  b_util_lunar.o ABSOLUTE
    ..\..\..\..\babyos\bos\utils\b_util_uart.c 0x00000000   Number         0  b_util_uart.o ABSOLUTE
    ..\..\..\..\babyos\bos\utils\b_util_utc.c 0x00000000   Number         0  b_util_utc.o ABSOLUTE
    ..\..\..\..\board\board.c                0x00000000   Number         0  board.o ABSOLUTE
    ..\\..\\..\\..\\Libraries\\CMSIS\\CM3\\CoreSupport\\core_cm3.c 0x00000000   Number         0  core_cm3.o ABSOLUTE
    ..\main.c                                0x00000000   Number         0  main.o ABSOLUTE
    ..\stm32f10x_it.c                        0x00000000   Number         0  stm32f10x_it.o ABSOLUTE
    cdrcmple.s                               0x00000000   Number         0  cdrcmple.o ABSOLUTE
    dc.s                                     0x00000000   Number         0  dc.o ABSOLUTE
    handlers.s                               0x00000000   Number         0  handlers.o ABSOLUTE
    init.s                                   0x00000000   Number         0  init.o ABSOLUTE
    RESET                                    0x08000000   Section      336  startup_stm32f10x_cl.o(RESET)
    .ARM.Collect$$$$00000000                 0x08000150   Section        0  entry.o(.ARM.Collect$$$$00000000)
    .ARM.Collect$$$$00000001                 0x08000150   Section        4  entry2.o(.ARM.Collect$$$$00000001)
    .ARM.Collect$$$$00000004                 0x08000154   Section        4  entry5.o(.ARM.Collect$$$$00000004)
    .ARM.Collect$$$$00000008                 0x08000158   Section        0  entry7b.o(.ARM.Collect$$$$00000008)
    .ARM.Collect$$$$0000000A                 0x08000158   Section        0  entry8b.o(.ARM.Collect$$$$0000000A)
    .ARM.Collect$$$$0000000B                 0x08000158   Section        8  entry9a.o(.ARM.Collect$$$$0000000B)
    .ARM.Collect$$$$0000000D                 0x08000160   Section        0  entry10a.o(.ARM.Collect$$$$0000000D)
    .ARM.Collect$$$$0000000F                 0x08000160   Section        0  entry11a.o(.ARM.Collect$$$$0000000F)
    .ARM.Collect$$$$00002712                 0x08000160   Section        4  entry2.o(.ARM.Collect$$$$00002712)
    __lit__00000000                          0x08000160   Data           4  entry2.o(.ARM.Collect$$$$00002712)
    .text                                    0x08000164   Section       36  startup_stm32f10x_cl.o(.text)
    .text                                    0x08000188   Section        0  memcpya.o(.text)
    .text                                    0x080001ac   Section        0  memseta.o(.text)
    .text                                    0x080001d0   Section        0  strlen.o(.text)
    .text                                    0x080001de   Section        0  dmul.o(.text)
    .text                                    0x080002c2   Section        0  ddiv.o(.text)
    .text                                    0x080003a0   Section        0  dfltui.o(.text)
    .text                                    0x080003ba   Section        0  dfixui.o(.text)
    .text                                    0x080003ec   Section        0  uidiv.o(.text)
    .text                                    0x08000418   Section        0  uldiv.o(.text)
    .text                                    0x0800047a   Section        0  llushr.o(.text)
    .text                                    0x0800049a   Section        0  iusefp.o(.text)
    .text                                    0x0800049a   Section        0  depilogue.o(.text)
    .text                                    0x08000554   Section        0  dadd.o(.text)
    .text                                    0x080006a2   Section        0  dfixul.o(.text)
    .text                                    0x080006d4   Section       48  cdrcmple.o(.text)
    .text                                    0x08000704   Section       36  init.o(.text)
    .text                                    0x08000728   Section        0  llshl.o(.text)
    .text                                    0x08000746   Section        0  llsshr.o(.text)
    i.ADC_Cmd                                0x0800076a   Section        0  stm32f10x_adc.o(i.ADC_Cmd)
    i.ADC_ExternalTrigInjectedConvCmd        0x0800077e   Section        0  stm32f10x_adc.o(i.ADC_ExternalTrigInjectedConvCmd)
    i.ADC_ExternalTrigInjectedConvConfig     0x08000792   Section        0  stm32f10x_adc.o(i.ADC_ExternalTrigInjectedConvConfig)
    i.ADC_ITConfig                           0x0800079e   Section        0  stm32f10x_adc.o(i.ADC_ITConfig)
    i.ADC_Init                               0x080007b0   Section        0  stm32f10x_adc.o(i.ADC_Init)
    i.ADC_InjectedChannelConfig              0x080007f8   Section        0  stm32f10x_adc.o(i.ADC_InjectedChannelConfig)
    i.ADC_InjectedSequencerLengthConfig      0x08000842   Section        0  stm32f10x_adc.o(i.ADC_InjectedSequencerLengthConfig)
    i.ADC_TempSensorVrefintCmd               0x08000854   Section        0  stm32f10x_adc.o(i.ADC_TempSensorVrefintCmd)
    i.BoardInit                              0x08000870   Section        0  board.o(i.BoardInit)
    i.BusFault_Handler                       0x080008a8   Section        0  stm32f10x_it.o(i.BusFault_Handler)
    i.DebugMon_Handler                       0x080008aa   Section        0  stm32f10x_it.o(i.DebugMon_Handler)
    i.GPIO_Init                              0x080008ac   Section        0  stm32f10x_gpio.o(i.GPIO_Init)
    i.GPIO_SetBits                           0x0800094e   Section        0  stm32f10x_gpio.o(i.GPIO_SetBits)
    i.HardFault_Handler                      0x08000952   Section        0  stm32f10x_it.o(i.HardFault_Handler)
    i.MemManage_Handler                      0x08000954   Section        0  stm32f10x_it.o(i.MemManage_Handler)
    i.NMI_Handler                            0x08000956   Section        0  stm32f10x_it.o(i.NMI_Handler)
    i.NVIC_Init                              0x08000958   Section        0  misc.o(i.NVIC_Init)
    i.NVIC_PriorityGroupConfig               0x080009bc   Section        0  misc.o(i.NVIC_PriorityGroupConfig)
    i.NVIC_SetPriority                       0x080009d0   Section        0  main.o(i.NVIC_SetPriority)
    NVIC_SetPriority                         0x080009d1   Thumb Code    32  main.o(i.NVIC_SetPriority)
    i.PendSV_Handler                         0x080009f0   Section        0  stm32f10x_it.o(i.PendSV_Handler)
    i.RCC_ADCCLKConfig                       0x080009f4   Section        0  stm32f10x_rcc.o(i.RCC_ADCCLKConfig)
    i.RCC_APB1PeriphClockCmd                 0x08000a08   Section        0  stm32f10x_rcc.o(i.RCC_APB1PeriphClockCmd)
    i.RCC_APB2PeriphClockCmd                 0x08000a20   Section        0  stm32f10x_rcc.o(i.RCC_APB2PeriphClockCmd)
    i.RCC_GetClocksFreq                      0x08000a38   Section        0  stm32f10x_rcc.o(i.RCC_GetClocksFreq)
    i.SPI_Cmd                                0x08000b00   Section        0  stm32f10x_spi.o(i.SPI_Cmd)
    i.SPI_Init                               0x08000b14   Section        0  stm32f10x_spi.o(i.SPI_Init)
    i.SVC_Handler                            0x08000b4c   Section        0  stm32f10x_it.o(i.SVC_Handler)
    i.SetSysClockTo72                        0x08000b50   Section        0  system_stm32f10x.o(i.SetSysClockTo72)
    SetSysClockTo72                          0x08000b51   Thumb Code   190  system_stm32f10x.o(i.SetSysClockTo72)
    i.SysTick_Handler                        0x08000c20   Section        0  main.o(i.SysTick_Handler)
    i.SystemInit                             0x08000c24   Section        0  system_stm32f10x.o(i.SystemInit)
    i.USART1_IRQHandler                      0x08000c70   Section        0  main.o(i.USART1_IRQHandler)
    i.USART_ClearITPendingBit                0x08000c9c   Section        0  stm32f10x_usart.o(i.USART_ClearITPendingBit)
    i.USART_Cmd                              0x08000ca8   Section        0  stm32f10x_usart.o(i.USART_Cmd)
    i.USART_GetITStatus                      0x08000cbc   Section        0  stm32f10x_usart.o(i.USART_GetITStatus)
    i.USART_ITConfig                         0x08000cfa   Section        0  stm32f10x_usart.o(i.USART_ITConfig)
    i.USART_Init                             0x08000d2c   Section        0  stm32f10x_usart.o(i.USART_Init)
    i.USART_ReceiveData                      0x08000dd8   Section        0  stm32f10x_usart.o(i.USART_ReceiveData)
    i.UsageFault_Handler                     0x08000de0   Section        0  stm32f10x_it.o(i.UsageFault_Handler)
    i._AdcInit                               0x08000de4   Section        0  board.o(i._AdcInit)
    _AdcInit                                 0x08000de5   Thumb Code   120  board.o(i._AdcInit)
    i._GpioInit                              0x08000e60   Section        0  board.o(i._GpioInit)
    _GpioInit                                0x08000e61   Thumb Code   596  board.o(i._GpioInit)
    i._HalI2CIOACK                           0x080010c8   Section        0  b_hal_i2c.o(i._HalI2CIOACK)
    _HalI2CIOACK                             0x080010c9   Thumb Code   138  b_hal_i2c.o(i._HalI2CIOACK)
    i._HalI2CIOReadBuff                      0x08001152   Section        0  b_hal_i2c.o(i._HalI2CIOReadBuff)
    _HalI2CIOReadBuff                        0x08001153   Thumb Code   186  b_hal_i2c.o(i._HalI2CIOReadBuff)
    i._HalI2CIOReadByte                      0x0800120c   Section        0  b_hal_i2c.o(i._HalI2CIOReadByte)
    _HalI2CIOReadByte                        0x0800120d   Thumb Code   126  b_hal_i2c.o(i._HalI2CIOReadByte)
    i._HalI2CIOStart                         0x0800128a   Section        0  b_hal_i2c.o(i._HalI2CIOStart)
    _HalI2CIOStart                           0x0800128b   Thumb Code    74  b_hal_i2c.o(i._HalI2CIOStart)
    i._HalI2CIOStop                          0x080012d4   Section        0  b_hal_i2c.o(i._HalI2CIOStop)
    _HalI2CIOStop                            0x080012d5   Thumb Code    84  b_hal_i2c.o(i._HalI2CIOStop)
    i._HalI2CIOWriteBuff                     0x08001328   Section        0  b_hal_i2c.o(i._HalI2CIOWriteBuff)
    _HalI2CIOWriteBuff                       0x08001329   Thumb Code   106  b_hal_i2c.o(i._HalI2CIOWriteBuff)
    i._HalI2CIOWriteByte                     0x08001392   Section        0  b_hal_i2c.o(i._HalI2CIOWriteByte)
    _HalI2CIOWriteByte                       0x08001393   Thumb Code   100  b_hal_i2c.o(i._HalI2CIOWriteByte)
    i._SpiInit                               0x080013f8   Section        0  board.o(i._SpiInit)
    _SpiInit                                 0x080013f9   Thumb Code   136  board.o(i._SpiInit)
    i._UartInit                              0x08001488   Section        0  board.o(i._UartInit)
    _UartInit                                0x08001489   Thumb Code   150  board.o(i._UartInit)
    i.__0sprintf                             0x08001528   Section        0  printfa.o(i.__0sprintf)
    i.__0vsnprintf                           0x08001550   Section        0  printfa.o(i.__0vsnprintf)
    i.__scatterload_copy                     0x0800157c   Section       14  handlers.o(i.__scatterload_copy)
    i.__scatterload_null                     0x0800158a   Section        2  handlers.o(i.__scatterload_null)
    i.__scatterload_zeroinit                 0x0800158c   Section       14  handlers.o(i.__scatterload_zeroinit)
    i._b24CXXRead                            0x0800159a   Section        0  b_drv_24cxx.o(i._b24CXXRead)
    _b24CXXRead                              0x0800159b   Thumb Code    18  b_drv_24cxx.o(i._b24CXXRead)
    i._b24CXXWrite                           0x080015ac   Section        0  b_drv_24cxx.o(i._b24CXXWrite)
    _b24CXXWrite                             0x080015ad   Thumb Code   126  b_drv_24cxx.o(i._b24CXXWrite)
    i._bCoreCreateFd                         0x0800162c   Section        0  b_core.o(i._bCoreCreateFd)
    _bCoreCreateFd                           0x0800162d   Thumb Code   120  b_core.o(i._bCoreCreateFd)
    i._bCoreDeleteFd                         0x080016ac   Section        0  b_core.o(i._bCoreDeleteFd)
    _bCoreDeleteFd                           0x080016ad   Thumb Code    34  b_core.o(i._bCoreDeleteFd)
    i._bCoreMonitor                          0x080016d4   Section        0  b_core.o(i._bCoreMonitor)
    _bCoreMonitor                            0x080016d5   Thumb Code     2  b_core.o(i._bCoreMonitor)
    i._bDriverNullInit                       0x080016d6   Section        0  b_device.o(i._bDriverNullInit)
    _bDriverNullInit                         0x080016d7   Thumb Code     4  b_device.o(i._bDriverNullInit)
    i._bHalUpdateDelayParam                  0x080016dc   Section        0  b_hal.o(i._bHalUpdateDelayParam)
    _bHalUpdateDelayParam                    0x080016dd   Thumb Code    78  b_hal.o(i._bHalUpdateDelayParam)
    i._bUtilUartDetectIdle                   0x08001738   Section        0  b_util_uart.o(i._bUtilUartDetectIdle)
    _bUtilUartDetectIdle                     0x08001739   Thumb Code   102  b_util_uart.o(i._bUtilUartDetectIdle)
    i._fp_digits                             0x080017a4   Section        0  printfa.o(i._fp_digits)
    _fp_digits                               0x080017a5   Thumb Code   366  printfa.o(i._fp_digits)
    i._printf_core                           0x08001928   Section        0  printfa.o(i._printf_core)
    _printf_core                             0x08001929   Thumb Code  1744  printfa.o(i._printf_core)
    i._printf_post_padding                   0x08002004   Section        0  printfa.o(i._printf_post_padding)
    _printf_post_padding                     0x08002005   Thumb Code    36  printfa.o(i._printf_post_padding)
    i._printf_pre_padding                    0x08002028   Section        0  printfa.o(i._printf_pre_padding)
    _printf_pre_padding                      0x08002029   Thumb Code    46  printfa.o(i._printf_pre_padding)
    i._snputc                                0x08002056   Section        0  printfa.o(i._snputc)
    _snputc                                  0x08002057   Thumb Code    22  printfa.o(i._snputc)
    i._sputc                                 0x0800206c   Section        0  printfa.o(i._sputc)
    _sputc                                   0x0800206d   Thumb Code    10  printfa.o(i._sputc)
    i.b24CXX_Init                            0x08002078   Section        0  b_drv_24cxx.o(i.b24CXX_Init)
    i.bClose                                 0x080020b0   Section        0  b_core.o(i.bClose)
    i.bDeviceClose                           0x080020e4   Section        0  b_device.o(i.bDeviceClose)
    i.bDeviceInit                            0x08002178   Section        0  b_device.o(i.bDeviceInit)
    i.bDeviceOpen                            0x08002308   Section        0  b_device.o(i.bDeviceOpen)
    i.bDeviceRead                            0x0800239c   Section        0  b_device.o(i.bDeviceRead)
    i.bDeviceWrite                           0x08002438   Section        0  b_device.o(i.bDeviceWrite)
    i.bExec                                  0x080024d8   Section        0  b_core.o(i.bExec)
    i.bHalDelayMs                            0x080024f8   Section        0  b_hal.o(i.bHalDelayMs)
    i.bHalDelayUs                            0x0800250c   Section        0  b_hal.o(i.bHalDelayUs)
    i.bHalGetSysTick                         0x08002528   Section        0  b_hal.o(i.bHalGetSysTick)
    i.bHalGpioConfig                         0x08002534   Section        0  b_hal_gpio.o(i.bHalGpioConfig)
    i.bHalGpioReadPin                        0x0800253c   Section        0  b_hal_gpio.o(i.bHalGpioReadPin)
    i.bHalGpioWritePin                       0x08002544   Section        0  b_hal_gpio.o(i.bHalGpioWritePin)
    i.bHalI2CMemRead                         0x0800254c   Section        0  b_hal_i2c.o(i.bHalI2CMemRead)
    i.bHalI2CMemWrite                        0x08002588   Section        0  b_hal_i2c.o(i.bHalI2CMemWrite)
    i.bHalIncSysTick                         0x080025c4   Section        0  b_hal.o(i.bHalIncSysTick)
    i.bHalInit                               0x080025d4   Section        0  b_hal.o(i.bHalInit)
    i.bHalUartSend                           0x080025e0   Section        0  b_hal_uart.o(i.bHalUartSend)
    i.bHalUserInit                           0x080025e8   Section        0  b_hal.o(i.bHalUserInit)
    i.bInit                                  0x080025ec   Section        0  b_core.o(i.bInit)
    i.bLogOut                                0x080028f4   Section        0  b_util_log.o(i.bLogOut)
    i.bLogOutput                             0x080029bc   Section        0  b_util_log.o(i.bLogOutput)
    i.bLseek                                 0x080029d4   Section        0  b_core.o(i.bLseek)
    i.bMcuGpioConfig                         0x080029f8   Section        0  mcu_stm32f10x_gpio.o(i.bMcuGpioConfig)
    i.bMcuGpioReadPin                        0x08002a74   Section        0  mcu_stm32f10x_gpio.o(i.bMcuGpioReadPin)
    i.bMcuGpioWritePin                       0x08002a9c   Section        0  mcu_stm32f10x_gpio.o(i.bMcuGpioWritePin)
    i.bMcuI2CMemRead                         0x08002ac0   Section        0  mcu_stm32f10x_i2c.o(i.bMcuI2CMemRead)
    i.bMcuI2CMemWrite                        0x08002ac6   Section        0  mcu_stm32f10x_i2c.o(i.bMcuI2CMemWrite)
    i.bMcuUartSend                           0x08002acc   Section        0  mcu_stm32f10x_uart.o(i.bMcuUartSend)
    i.bOpen                                  0x08002b14   Section        0  b_core.o(i.bOpen)
    i.bRead                                  0x08002b4c   Section        0  b_core.o(i.bRead)
    i.bWrite                                 0x08002b94   Section        0  b_core.o(i.bWrite)
    i.main                                   0x08002be0   Section        0  main.o(i.main)
    .constdata                               0x08002c9c   Section        5  main.o(.constdata)
    __func__                                 0x08002c9c   Data           5  main.o(.constdata)
    .constdata                               0x08002ca1   Section        6  b_core.o(.constdata)
    __func__                                 0x08002ca1   Data           6  b_core.o(.constdata)
    .constdata                               0x08002ca7   Section       89  b_device.o(.constdata)
    __func__                                 0x08002ca7   Data          12  b_device.o(.constdata)
    __func__                                 0x08002cb3   Data          12  b_device.o(.constdata)
    __func__                                 0x08002cbf   Data          12  b_device.o(.constdata)
    __func__                                 0x08002ccb   Data          13  b_device.o(.constdata)
    __func__                                 0x08002cd8   Data          13  b_device.o(.constdata)
    __func__                                 0x08002ce5   Data          11  b_device.o(.constdata)
    __func__                                 0x08002cf0   Data          16  b_device.o(.constdata)
    .constdata                               0x08002d00   Section        6  b_drv_24cxx.o(.constdata)
    bHalIf_24CXX                             0x08002d00   Data           6  b_drv_24cxx.o(.constdata)
    .constdata                               0x08002d06   Section        6  b_util_log.o(.constdata)
    bLogParamTable                           0x08002d06   Data           3  b_util_log.o(.constdata)
    bLogPrefix                               0x08002d09   Data           3  b_util_log.o(.constdata)
    .conststring                             0x08002d0c   Section       14  b_device.o(.conststring)
    bos_polling                              0x08002d3c   Section        4  b_core.o(bos_polling)
    __tagsym$$used                           0x08002d3c   Number         0  b_core.o(bos_polling)
    bos_polling                              0x08002d40   Section        4  b_util_uart.o(bos_polling)
    __tagsym$$used                           0x08002d40   Number         0  b_util_uart.o(bos_polling)
    driver_init                              0x08002d44   Section        8  b_device.o(driver_init)
    __tagsym$$used                           0x08002d44   Number         0  b_device.o(driver_init)
    driver_init                              0x08002d4c   Section        8  b_drv_24cxx.o(driver_init)
    __tagsym$$used                           0x08002d4c   Number         0  b_drv_24cxx.o(driver_init)
    driver_init_0                            0x08002d54   Section        8  b_device.o(driver_init_0)
    __tagsym$$used                           0x08002d54   Number         0  b_device.o(driver_init_0)
    .data                                    0x20000000   Section       20  stm32f10x_rcc.o(.data)
    ADCPrescTable                            0x20000000   Data           4  stm32f10x_rcc.o(.data)
    APBAHBPrescTable                         0x20000004   Data          16  stm32f10x_rcc.o(.data)
    .data                                    0x20000014   Section       20  system_stm32f10x.o(.data)
    .data                                    0x20000028   Section        1  b_core.o(.data)
    init                                     0x20000028   Data           1  b_core.o(.data)
    .data                                    0x2000002c   Section       12  b_device.o(.data)
    bDriverNumberTable                       0x2000002c   Data           2  b_device.o(.data)
    bDeviceDescTable                         0x20000030   Data           8  b_device.o(.data)
    .data                                    0x20000038   Section       20  mcu_stm32f10x_uart.o(.data)
    UartTable                                0x20000038   Data          20  mcu_stm32f10x_uart.o(.data)
    .data                                    0x2000004c   Section        8  b_hal.o(.data)
    bSysTick                                 0x2000004c   Data           4  b_hal.o(.data)
    bUsDelayParam                            0x20000050   Data           4  b_hal.o(.data)
    .bss                                     0x20000054   Section       24  b_core.o(.bss)
    bCoreFdTable                             0x20000054   Data          24  b_core.o(.bss)
    .bss                                     0x2000006c   Section       88  b_device.o(.bss)
    bDriverInterfaceTable                    0x2000006c   Data          88  b_device.o(.bss)
    .bss                                     0x200000c4   Section       72  b_util_uart.o(.bss)
    bUitlUartHead                            0x200000c4   Data          36  b_util_uart.o(.bss)
    pUtilUartBindTable                       0x200000e8   Data          36  b_util_uart.o(.bss)
    .bss                                     0x2000010c   Section      256  b_util_log.o(.bss)
    bLogBuff                                 0x2000010c   Data         256  b_util_log.o(.bss)
    STACK                                    0x20000210   Section     2048  startup_stm32f10x_cl.o(STACK)

    Global Symbols

    Symbol Name                              Value     Ov Type        Size  Object(Section)

    BuildAttributes$$THM_ISAv4$P$D$K$B$S$PE$A:L22UL41UL21$X:L11$S22US41US21$IEEE1$IW$USESV6$~STKCKD$USESV7$~SHL$OSPACE$ROPI$EBA8$MICROLIB$REQ8$PRES8$EABIv2 0x00000000   Number         0  anon$$obj.o ABSOLUTE
    __ARM_use_no_argv                        0x00000000   Number         0  main.o ABSOLUTE
    _printf_a                                0x00000000   Number         0  stubs.o ABSOLUTE
    _printf_c                                0x00000000   Number         0  stubs.o ABSOLUTE
    _printf_charcount                        0x00000000   Number         0  stubs.o ABSOLUTE
    _printf_d                                0x00000000   Number         0  stubs.o ABSOLUTE
    _printf_e                                0x00000000   Number         0  stubs.o ABSOLUTE
    _printf_f                                0x00000000   Number         0  stubs.o ABSOLUTE
    _printf_flags                            0x00000000   Number         0  stubs.o ABSOLUTE
    _printf_fp_dec                           0x00000000   Number         0  stubs.o ABSOLUTE
    _printf_fp_hex                           0x00000000   Number         0  stubs.o ABSOLUTE
    _printf_g                                0x00000000   Number         0  stubs.o ABSOLUTE
    _printf_i                                0x00000000   Number         0  stubs.o ABSOLUTE
    _printf_int_dec                          0x00000000   Number         0  stubs.o ABSOLUTE
    _printf_l                                0x00000000   Number         0  stubs.o ABSOLUTE
    _printf_lc                               0x00000000   Number         0  stubs.o ABSOLUTE
    _printf_ll                               0x00000000   Number         0  stubs.o ABSOLUTE
    _printf_lld                              0x00000000   Number         0  stubs.o ABSOLUTE
    _printf_lli                              0x00000000   Number         0  stubs.o ABSOLUTE
    _printf_llo                              0x00000000   Number         0  stubs.o ABSOLUTE
    _printf_llu                              0x00000000   Number         0  stubs.o ABSOLUTE
    _printf_llx                              0x00000000   Number         0  stubs.o ABSOLUTE
    _printf_longlong_dec                     0x00000000   Number         0  stubs.o ABSOLUTE
    _printf_longlong_hex                     0x00000000   Number         0  stubs.o ABSOLUTE
    _printf_longlong_oct                     0x00000000   Number         0  stubs.o ABSOLUTE
    _printf_ls                               0x00000000   Number         0  stubs.o ABSOLUTE
    _printf_mbtowc                           0x00000000   Number         0  stubs.o ABSOLUTE
    _printf_n                                0x00000000   Number         0  stubs.o ABSOLUTE
    _printf_o                                0x00000000   Number         0  stubs.o ABSOLUTE
    _printf_p                                0x00000000   Number         0  stubs.o ABSOLUTE
    _printf_percent                          0x00000000   Number         0  stubs.o ABSOLUTE
    _printf_pre_padding                      0x00000000   Number         0  stubs.o ABSOLUTE
    _printf_return_value                     0x00000000   Number         0  stubs.o ABSOLUTE
    _printf_s                                0x00000000   Number         0  stubs.o ABSOLUTE
    _printf_sizespec                         0x00000000   Number         0  stubs.o ABSOLUTE
    _printf_str                              0x00000000   Number         0  stubs.o ABSOLUTE
    _printf_truncate_signed                  0x00000000   Number         0  stubs.o ABSOLUTE
    _printf_truncate_unsigned                0x00000000   Number         0  stubs.o ABSOLUTE
    _printf_u                                0x00000000   Number         0  stubs.o ABSOLUTE
    _printf_wc                               0x00000000   Number         0  stubs.o ABSOLUTE
    _printf_wctomb                           0x00000000   Number         0  stubs.o ABSOLUTE
    _printf_widthprec                        0x00000000   Number         0  stubs.o ABSOLUTE
    _printf_x                                0x00000000   Number         0  stubs.o ABSOLUTE
    __cpp_initialize__aeabi_                  - Undefined Weak Reference
    __cxa_finalize                            - Undefined Weak Reference
    __decompress                              - Undefined Weak Reference
    _clock_init                               - Undefined Weak Reference
    _microlib_exit                            - Undefined Weak Reference
    __Vectors_Size                           0x00000150   Number         0  startup_stm32f10x_cl.o ABSOLUTE
    __Vectors                                0x08000000   Data           4  startup_stm32f10x_cl.o(RESET)
    __Vectors_End                            0x08000150   Data           0  startup_stm32f10x_cl.o(RESET)
    __main                                   0x08000151   Thumb Code     0  entry.o(.ARM.Collect$$$$00000000)
    _main_stk                                0x08000151   Thumb Code     0  entry2.o(.ARM.Collect$$$$00000001)
    _main_scatterload                        0x08000155   Thumb Code     0  entry5.o(.ARM.Collect$$$$00000004)
    __main_after_scatterload                 0x08000159   Thumb Code     0  entry5.o(.ARM.Collect$$$$00000004)
    _main_clock                              0x08000159   Thumb Code     0  entry7b.o(.ARM.Collect$$$$00000008)
    _main_cpp_init                           0x08000159   Thumb Code     0  entry8b.o(.ARM.Collect$$$$0000000A)
    _main_init                               0x08000159   Thumb Code     0  entry9a.o(.ARM.Collect$$$$0000000B)
    __rt_final_cpp                           0x08000161   Thumb Code     0  entry10a.o(.ARM.Collect$$$$0000000D)
    __rt_final_exit                          0x08000161   Thumb Code     0  entry11a.o(.ARM.Collect$$$$0000000F)
    Reset_Handler                            0x08000165   Thumb Code     8  startup_stm32f10x_cl.o(.text)
    ADC1_2_IRQHandler                        0x0800017f   Thumb Code     0  startup_stm32f10x_cl.o(.text)
    CAN1_RX0_IRQHandler                      0x0800017f   Thumb Code     0  startup_stm32f10x_cl.o(.text)
    CAN1_RX1_IRQHandler                      0x0800017f   Thumb Code     0  startup_stm32f10x_cl.o(.text)
    CAN1_SCE_IRQHandler                      0x0800017f   Thumb Code     0  startup_stm32f10x_cl.o(.text)
    CAN1_TX_IRQHandler                       0x0800017f   Thumb Code     0  startup_stm32f10x_cl.o(.text)
    CAN2_RX0_IRQHandler                      0x0800017f   Thumb Code     0  startup_stm32f10x_cl.o(.text)
    CAN2_RX1_IRQHandler                      0x0800017f   Thumb Code     0  startup_stm32f10x_cl.o(.text)
    CAN2_SCE_IRQHandler                      0x0800017f   Thumb Code     0  startup_stm32f10x_cl.o(.text)
    CAN2_TX_IRQHandler                       0x0800017f   Thumb Code     0  startup_stm32f10x_cl.o(.text)
    DMA1_Channel1_IRQHandler                 0x0800017f   Thumb Code     0  startup_stm32f10x_cl.o(.text)
    DMA1_Channel2_IRQHandler                 0x0800017f   Thumb Code     0  startup_stm32f10x_cl.o(.text)
    DMA1_Channel3_IRQHandler                 0x0800017f   Thumb Code     0  startup_stm32f10x_cl.o(.text)
    DMA1_Channel4_IRQHandler                 0x0800017f   Thumb Code     0  startup_stm32f10x_cl.o(.text)
    DMA1_Channel5_IRQHandler                 0x0800017f   Thumb Code     0  startup_stm32f10x_cl.o(.text)
    DMA1_Channel6_IRQHandler                 0x0800017f   Thumb Code     0  startup_stm32f10x_cl.o(.text)
    DMA1_Channel7_IRQHandler                 0x0800017f   Thumb Code     0  startup_stm32f10x_cl.o(.text)
    DMA2_Channel1_IRQHandler                 0x0800017f   Thumb Code     0  startup_stm32f10x_cl.o(.text)
    DMA2_Channel2_IRQHandler                 0x0800017f   Thumb Code     0  startup_stm32f10x_cl.o(.text)
    DMA2_Channel3_IRQHandler                 0x0800017f   Thumb Code     0  startup_stm32f10x_cl.o(.text)
    DMA2_Channel4_IRQHandler                 0x0800017f   Thumb Code     0  startup_stm32f10x_cl.o(.text)
    DMA2_Channel5_IRQHandler                 0x0800017f   Thumb Code     0  startup_stm32f10x_cl.o(.text)
    ETH_IRQHandler                           0x0800017f   Thumb Code     0  startup_stm32f10x_cl.o(.text)
    ETH_WKUP_IRQHandler                      0x0800017f   Thumb Code     0  startup_stm32f10x_cl.o(.text)
    EXTI0_IRQHandler                         0x0800017f   Thumb Code     0  startup_stm32f10x_cl.o(.text)
    EXTI15_10_IRQHandler                     0x0800017f   Thumb Code     0  startup_stm32f10x_cl.o(.text)
    EXTI1_IRQHandler                         0x0800017f   Thumb Code     0  startup_stm32f10x_cl.o(.text)
    EXTI2_IRQHandler                         0x0800017f   Thumb Code     0  startup_stm32f10x_cl.o(.text)
    EXTI3_IRQHandler                         0x0800017f   Thumb Code     0  startup_stm32f10x_cl.o(.text)
    EXTI4_IRQHandler                         0x0800017f   Thumb Code     0  startup_stm32f10x_cl.o(.text)
    EXTI9_5_IRQHandler                       0x0800017f   Thumb Code     0  startup_stm32f10x_cl.o(.text)
    FLASH_IRQHandler                         0x0800017f   Thumb Code     0  startup_stm32f10x_cl.o(.text)
    I2C1_ER_IRQHandler                       0x0800017f   Thumb Code     0  startup_stm32f10x_cl.o(.text)
    I2C1_EV_IRQHandler                       0x0800017f   Thumb Code     0  startup_stm32f10x_cl.o(.text)
    I2C2_ER_IRQHandler                       0x0800017f   Thumb Code     0  startup_stm32f10x_cl.o(.text)
    I2C2_EV_IRQHandler                       0x0800017f   Thumb Code     0  startup_stm32f10x_cl.o(.text)
    OTG_FS_IRQHandler                        0x0800017f   Thumb Code     0  startup_stm32f10x_cl.o(.text)
    OTG_FS_WKUP_IRQHandler                   0x0800017f   Thumb Code     0  startup_stm32f10x_cl.o(.text)
    PVD_IRQHandler                           0x0800017f   Thumb Code     0  startup_stm32f10x_cl.o(.text)
    RCC_IRQHandler                           0x0800017f   Thumb Code     0  startup_stm32f10x_cl.o(.text)
    RTCAlarm_IRQHandler                      0x0800017f   Thumb Code     0  startup_stm32f10x_cl.o(.text)
    RTC_IRQHandler                           0x0800017f   Thumb Code     0  startup_stm32f10x_cl.o(.text)
    SPI1_IRQHandler                          0x0800017f   Thumb Code     0  startup_stm32f10x_cl.o(.text)
    SPI2_IRQHandler                          0x0800017f   Thumb Code     0  startup_stm32f10x_cl.o(.text)
    SPI3_IRQHandler                          0x0800017f   Thumb Code     0  startup_stm32f10x_cl.o(.text)
    TAMPER_IRQHandler                        0x0800017f   Thumb Code     0  startup_stm32f10x_cl.o(.text)
    TIM1_BRK_IRQHandler                      0x0800017f   Thumb Code     0  startup_stm32f10x_cl.o(.text)
    TIM1_CC_IRQHandler                       0x0800017f   Thumb Code     0  startup_stm32f10x_cl.o(.text)
    TIM1_TRG_COM_IRQHandler                  0x0800017f   Thumb Code     0  startup_stm32f10x_cl.o(.text)
    TIM1_UP_IRQHandler                       0x0800017f   Thumb Code     0  startup_stm32f10x_cl.o(.text)
    TIM2_IRQHandler                          0x0800017f   Thumb Code     0  startup_stm32f10x_cl.o(.text)
    TIM3_IRQHandler                          0x0800017f   Thumb Code     0  startup_stm32f10x_cl.o(.text)
    TIM4_IRQHandler                          0x0800017f   Thumb Code     0  startup_stm32f10x_cl.o(.text)
    TIM5_IRQHandler                          0x0800017f   Thumb Code     0  startup_stm32f10x_cl.o(.text)
    TIM6_IRQHandler                          0x0800017f   Thumb Code     0  startup_stm32f10x_cl.o(.text)
    TIM7_IRQHandler                          0x0800017f   Thumb Code     0  startup_stm32f10x_cl.o(.text)
    UART4_IRQHandler                         0x0800017f   Thumb Code     0  startup_stm32f10x_cl.o(.text)
    UART5_IRQHandler                         0x0800017f   Thumb Code     0  startup_stm32f10x_cl.o(.text)
    USART2_IRQHandler                        0x0800017f   Thumb Code     0  startup_stm32f10x_cl.o(.text)
    USART3_IRQHandler                        0x0800017f   Thumb Code     0  startup_stm32f10x_cl.o(.text)
    WWDG_IRQHandler                          0x0800017f   Thumb Code     0  startup_stm32f10x_cl.o(.text)
    __aeabi_memcpy                           0x08000189   Thumb Code    36  memcpya.o(.text)
    __aeabi_memcpy4                          0x08000189   Thumb Code     0  memcpya.o(.text)
    __aeabi_memcpy8                          0x08000189   Thumb Code     0  memcpya.o(.text)
    __aeabi_memset                           0x080001ad   Thumb Code    14  memseta.o(.text)
    __aeabi_memset4                          0x080001ad   Thumb Code     0  memseta.o(.text)
    __aeabi_memset8                          0x080001ad   Thumb Code     0  memseta.o(.text)
    __aeabi_memclr                           0x080001bb   Thumb Code     4  memseta.o(.text)
    __aeabi_memclr4                          0x080001bb   Thumb Code     0  memseta.o(.text)
    __aeabi_memclr8                          0x080001bb   Thumb Code     0  memseta.o(.text)
    _memset$wrapper                          0x080001bf   Thumb Code    18  memseta.o(.text)
    strlen                                   0x080001d1   Thumb Code    14  strlen.o(.text)
    __aeabi_dmul                             0x080001df   Thumb Code   228  dmul.o(.text)
    __aeabi_ddiv                             0x080002c3   Thumb Code   222  ddiv.o(.text)
    __aeabi_ui2d                             0x080003a1   Thumb Code    26  dfltui.o(.text)
    __aeabi_d2uiz                            0x080003bb   Thumb Code    50  dfixui.o(.text)
    __aeabi_uidiv                            0x080003ed   Thumb Code     0  uidiv.o(.text)
    __aeabi_uidivmod                         0x080003ed   Thumb Code    44  uidiv.o(.text)
    __aeabi_uldivmod                         0x08000419   Thumb Code    98  uldiv.o(.text)
    __aeabi_llsr                             0x0800047b   Thumb Code    32  llushr.o(.text)
    _ll_ushift_r                             0x0800047b   Thumb Code     0  llushr.o(.text)
    __I$use$fp                               0x0800049b   Thumb Code     0  iusefp.o(.text)
    _double_round                            0x0800049b   Thumb Code    30  depilogue.o(.text)
    _double_epilogue                         0x080004b9   Thumb Code   156  depilogue.o(.text)
    __aeabi_dadd                             0x08000555   Thumb Code   322  dadd.o(.text)
    __aeabi_dsub                             0x08000697   Thumb Code     6  dadd.o(.text)
    __aeabi_drsub                            0x0800069d   Thumb Code     6  dadd.o(.text)
    __aeabi_d2ulz                            0x080006a3   Thumb Code    48  dfixul.o(.text)
    __aeabi_cdrcmple                         0x080006d5   Thumb Code    48  cdrcmple.o(.text)
    __scatterload                            0x08000705   Thumb Code    28  init.o(.text)
    __scatterload_rt2                        0x08000705   Thumb Code     0  init.o(.text)
    __aeabi_llsl                             0x08000729   Thumb Code    30  llshl.o(.text)
    _ll_shift_l                              0x08000729   Thumb Code     0  llshl.o(.text)
    __aeabi_lasr                             0x08000747   Thumb Code    36  llsshr.o(.text)
    _ll_sshift_r                             0x08000747   Thumb Code     0  llsshr.o(.text)
    ADC_Cmd                                  0x0800076b   Thumb Code    20  stm32f10x_adc.o(i.ADC_Cmd)
    ADC_ExternalTrigInjectedConvCmd          0x0800077f   Thumb Code    20  stm32f10x_adc.o(i.ADC_ExternalTrigInjectedConvCmd)
    ADC_ExternalTrigInjectedConvConfig       0x08000793   Thumb Code    12  stm32f10x_adc.o(i.ADC_ExternalTrigInjectedConvConfig)
    ADC_ITConfig                             0x0800079f   Thumb Code    18  stm32f10x_adc.o(i.ADC_ITConfig)
    ADC_Init                                 0x080007b1   Thumb Code    62  stm32f10x_adc.o(i.ADC_Init)
    ADC_InjectedChannelConfig                0x080007f9   Thumb Code    74  stm32f10x_adc.o(i.ADC_InjectedChannelConfig)
    ADC_InjectedSequencerLengthConfig        0x08000843   Thumb Code    16  stm32f10x_adc.o(i.ADC_InjectedSequencerLengthConfig)
    ADC_TempSensorVrefintCmd                 0x08000855   Thumb Code    22  stm32f10x_adc.o(i.ADC_TempSensorVrefintCmd)
    BoardInit                                0x08000871   Thumb Code    56  board.o(i.BoardInit)
    BusFault_Handler                         0x080008a9   Thumb Code     2  stm32f10x_it.o(i.BusFault_Handler)
    DebugMon_Handler                         0x080008ab   Thumb Code     2  stm32f10x_it.o(i.DebugMon_Handler)
    GPIO_Init                                0x080008ad   Thumb Code   162  stm32f10x_gpio.o(i.GPIO_Init)
    GPIO_SetBits                             0x0800094f   Thumb Code     4  stm32f10x_gpio.o(i.GPIO_SetBits)
    HardFault_Handler                        0x08000953   Thumb Code     2  stm32f10x_it.o(i.HardFault_Handler)
    MemManage_Handler                        0x08000955   Thumb Code     2  stm32f10x_it.o(i.MemManage_Handler)
    NMI_Handler                              0x08000957   Thumb Code     2  stm32f10x_it.o(i.NMI_Handler)
    NVIC_Init                                0x08000959   Thumb Code    94  misc.o(i.NVIC_Init)
    NVIC_PriorityGroupConfig                 0x080009bd   Thumb Code    10  misc.o(i.NVIC_PriorityGroupConfig)
    PendSV_Handler                           0x080009f1   Thumb Code     2  stm32f10x_it.o(i.PendSV_Handler)
    RCC_ADCCLKConfig                         0x080009f5   Thumb Code    14  stm32f10x_rcc.o(i.RCC_ADCCLKConfig)
    RCC_APB1PeriphClockCmd                   0x08000a09   Thumb Code    18  stm32f10x_rcc.o(i.RCC_APB1PeriphClockCmd)
    RCC_APB2PeriphClockCmd                   0x08000a21   Thumb Code    18  stm32f10x_rcc.o(i.RCC_APB2PeriphClockCmd)
    RCC_GetClocksFreq                        0x08000a39   Thumb Code   178  stm32f10x_rcc.o(i.RCC_GetClocksFreq)
    SPI_Cmd                                  0x08000b01   Thumb Code    20  stm32f10x_spi.o(i.SPI_Cmd)
    SPI_Init                                 0x08000b15   Thumb Code    56  stm32f10x_spi.o(i.SPI_Init)
    SVC_Handler                              0x08000b4d   Thumb Code     2  stm32f10x_it.o(i.SVC_Handler)
    SysTick_Handler                          0x08000c21   Thumb Code     4  main.o(i.SysTick_Handler)
    SystemInit                               0x08000c25   Thumb Code    64  system_stm32f10x.o(i.SystemInit)
    USART1_IRQHandler                        0x08000c71   Thumb Code    40  main.o(i.USART1_IRQHandler)
    USART_ClearITPendingBit                  0x08000c9d   Thumb Code    12  stm32f10x_usart.o(i.USART_ClearITPendingBit)
    USART_Cmd                                0x08000ca9   Thumb Code    20  stm32f10x_usart.o(i.USART_Cmd)
    USART_GetITStatus                        0x08000cbd   Thumb Code    62  stm32f10x_usart.o(i.USART_GetITStatus)
    USART_ITConfig                           0x08000cfb   Thumb Code    48  stm32f10x_usart.o(i.USART_ITConfig)
    USART_Init                               0x08000d2d   Thumb Code   166  stm32f10x_usart.o(i.USART_Init)
    USART_ReceiveData                        0x08000dd9   Thumb Code     8  stm32f10x_usart.o(i.USART_ReceiveData)
    UsageFault_Handler                       0x08000de1   Thumb Code     2  stm32f10x_it.o(i.UsageFault_Handler)
    __0sprintf                               0x08001529   Thumb Code    34  printfa.o(i.__0sprintf)
    __1sprintf                               0x08001529   Thumb Code     0  printfa.o(i.__0sprintf)
    __2sprintf                               0x08001529   Thumb Code     0  printfa.o(i.__0sprintf)
    __c89sprintf                             0x08001529   Thumb Code     0  printfa.o(i.__0sprintf)
    sprintf                                  0x08001529   Thumb Code     0  printfa.o(i.__0sprintf)
    __0vsnprintf                             0x08001551   Thumb Code    40  printfa.o(i.__0vsnprintf)
    __1vsnprintf                             0x08001551   Thumb Code     0  printfa.o(i.__0vsnprintf)
    __2vsnprintf                             0x08001551   Thumb Code     0  printfa.o(i.__0vsnprintf)
    __c89vsnprintf                           0x08001551   Thumb Code     0  printfa.o(i.__0vsnprintf)
    vsnprintf                                0x08001551   Thumb Code     0  printfa.o(i.__0vsnprintf)
    __scatterload_copy                       0x0800157d   Thumb Code    14  handlers.o(i.__scatterload_copy)
    __scatterload_null                       0x0800158b   Thumb Code     2  handlers.o(i.__scatterload_null)
    __scatterload_zeroinit                   0x0800158d   Thumb Code    14  handlers.o(i.__scatterload_zeroinit)
    b24CXX_Init                              0x08002079   Thumb Code    44  b_drv_24cxx.o(i.b24CXX_Init)
    bClose                                   0x080020b1   Thumb Code    46  b_core.o(i.bClose)
    bDeviceClose                             0x080020e5   Thumb Code    84  b_device.o(i.bDeviceClose)
    bDeviceInit                              0x08002179   Thumb Code   274  b_device.o(i.bDeviceInit)
    bDeviceOpen                              0x08002309   Thumb Code    82  b_device.o(i.bDeviceOpen)
    bDeviceRead                              0x0800239d   Thumb Code    92  b_device.o(i.bDeviceRead)
    bDeviceWrite                             0x08002439   Thumb Code    94  b_device.o(i.bDeviceWrite)
    bExec                                    0x080024d9   Thumb Code    22  b_core.o(i.bExec)
    bHalDelayMs                              0x080024f9   Thumb Code    14  b_hal.o(i.bHalDelayMs)
    bHalDelayUs                              0x0800250d   Thumb Code    22  b_hal.o(i.bHalDelayUs)
    bHalGetSysTick                           0x08002529   Thumb Code     6  b_hal.o(i.bHalGetSysTick)
    bHalGpioConfig                           0x08002535   Thumb Code     8  b_hal_gpio.o(i.bHalGpioConfig)
    bHalGpioReadPin                          0x0800253d   Thumb Code     8  b_hal_gpio.o(i.bHalGpioReadPin)
    bHalGpioWritePin                         0x08002545   Thumb Code     8  b_hal_gpio.o(i.bHalGpioWritePin)
    bHalI2CMemRead                           0x0800254d   Thumb Code    60  b_hal_i2c.o(i.bHalI2CMemRead)
    bHalI2CMemWrite                          0x08002589   Thumb Code    60  b_hal_i2c.o(i.bHalI2CMemWrite)
    bHalIncSysTick                           0x080025c5   Thumb Code    10  b_hal.o(i.bHalIncSysTick)
    bHalInit                                 0x080025d5   Thumb Code    12  b_hal.o(i.bHalInit)
    bHalUartSend                             0x080025e1   Thumb Code     8  b_hal_uart.o(i.bHalUartSend)
    bHalUserInit                             0x080025e9   Thumb Code     2  b_hal.o(i.bHalUserInit)
    bInit                                    0x080025ed   Thumb Code   232  b_core.o(i.bInit)
    bLogOut                                  0x080028f5   Thumb Code   186  b_util_log.o(i.bLogOut)
    bLogOutput                               0x080029bd   Thumb Code    22  b_util_log.o(i.bLogOutput)
    bLseek                                   0x080029d5   Thumb Code    32  b_core.o(i.bLseek)
    bMcuGpioConfig                           0x080029f9   Thumb Code   120  mcu_stm32f10x_gpio.o(i.bMcuGpioConfig)
    bMcuGpioReadPin                          0x08002a75   Thumb Code    36  mcu_stm32f10x_gpio.o(i.bMcuGpioReadPin)
    bMcuGpioWritePin                         0x08002a9d   Thumb Code    32  mcu_stm32f10x_gpio.o(i.bMcuGpioWritePin)
    bMcuI2CMemRead                           0x08002ac1   Thumb Code     6  mcu_stm32f10x_i2c.o(i.bMcuI2CMemRead)
    bMcuI2CMemWrite                          0x08002ac7   Thumb Code     6  mcu_stm32f10x_i2c.o(i.bMcuI2CMemWrite)
    bMcuUartSend                             0x08002acd   Thumb Code    68  mcu_stm32f10x_uart.o(i.bMcuUartSend)
    bOpen                                    0x08002b15   Thumb Code    56  b_core.o(i.bOpen)
    bRead                                    0x08002b4d   Thumb Code    68  b_core.o(i.bRead)
    bWrite                                   0x08002b95   Thumb Code    70  b_core.o(i.bWrite)
    main                                     0x08002be1   Thumb Code   154  main.o(i.main)
    Region$$Table$$Base                      0x08002d1c   Number         0  anon$$obj.o(Region$$Table)
    Region$$Table$$Limit                     0x08002d3c   Number         0  anon$$obj.o(Region$$Table)
    bos_polling$$Base                        0x08002d3c   Number         0  b_core.o(bos_polling)
    polling_bCoreMonitor                     0x08002d3c   Data           4  b_core.o(bos_polling)
    polling_bUtilUartDetectIdle              0x08002d40   Data           4  b_util_uart.o(bos_polling)
    bos_polling$$Limit                       0x08002d44   Number         0  b_util_uart.o(bos_polling)
    driver_init$$Base                        0x08002d44   Number         0  b_device.o(driver_init)
    init_bDriverNullInit                     0x08002d44   Data           8  b_device.o(driver_init)
    initb24CXX_Init                          0x08002d4c   Data           8  b_drv_24cxx.o(driver_init)
    driver_init$$Limit                       0x08002d54   Number         0  b_drv_24cxx.o(driver_init)
    driver_init_0$$Base                      0x08002d54   Number         0  b_device.o(driver_init_0)
    init0_bDriverNullInit                    0x08002d54   Data           8  b_device.o(driver_init_0)
    driver_init_0$$Limit                     0x08002d5c   Number         0  b_device.o(driver_init_0)
    SystemCoreClock                          0x20000014   Data           4  system_stm32f10x.o(.data)
    AHBPrescTable                            0x20000018   Data          16  system_stm32f10x.o(.data)
    __initial_sp                             0x20000a10   Data           0  startup_stm32f10x_cl.o(STACK)



==============================================================================

Memory Map of the image

  Image Entry point : 0x08000151

  Load Region LR_IROM1 (Base: 0x08000000, Size: 0x00002db0, Max: 0x00040000, ABSOLUTE)

    Execution Region ER_IROM1 (Exec base: 0x08000000, Load base: 0x08000000, Size: 0x00002d5c, Max: 0x00040000, ABSOLUTE)

    Exec Addr    Load Addr    Size         Type   Attr      Idx    E Section Name        Object

    0x08000000   0x08000000   0x00000150   Data   RO         3405    RESET               startup_stm32f10x_cl.o
    0x08000150   0x08000150   0x00000000   Code   RO         4677  * .ARM.Collect$$$$00000000  mc_w.l(entry.o)
    0x08000150   0x08000150   0x00000004   Code   RO         4957    .ARM.Collect$$$$00000001  mc_w.l(entry2.o)
    0x08000154   0x08000154   0x00000004   Code   RO         4960    .ARM.Collect$$$$00000004  mc_w.l(entry5.o)
    0x08000158   0x08000158   0x00000000   Code   RO         4962    .ARM.Collect$$$$00000008  mc_w.l(entry7b.o)
    0x08000158   0x08000158   0x00000000   Code   RO         4964    .ARM.Collect$$$$0000000A  mc_w.l(entry8b.o)
    0x08000158   0x08000158   0x00000008   Code   RO         4965    .ARM.Collect$$$$0000000B  mc_w.l(entry9a.o)
    0x08000160   0x08000160   0x00000000   Code   RO         4967    .ARM.Collect$$$$0000000D  mc_w.l(entry10a.o)
    0x08000160   0x08000160   0x00000000   Code   RO         4969    .ARM.Collect$$$$0000000F  mc_w.l(entry11a.o)
    0x08000160   0x08000160   0x00000004   Code   RO         4958    .ARM.Collect$$$$00002712  mc_w.l(entry2.o)
    0x08000164   0x08000164   0x00000024   Code   RO         3406    .text               startup_stm32f10x_cl.o
    0x08000188   0x08000188   0x00000024   Code   RO         4680    .text               mc_w.l(memcpya.o)
    0x080001ac   0x080001ac   0x00000024   Code   RO         4682    .text               mc_w.l(memseta.o)
    0x080001d0   0x080001d0   0x0000000e   Code   RO         4684    .text               mc_w.l(strlen.o)
    0x080001de   0x080001de   0x000000e4   Code   RO         4949    .text               mf_w.l(dmul.o)
    0x080002c2   0x080002c2   0x000000de   Code   RO         4951    .text               mf_w.l(ddiv.o)
    0x080003a0   0x080003a0   0x0000001a   Code   RO         4953    .text               mf_w.l(dfltui.o)
    0x080003ba   0x080003ba   0x00000032   Code   RO         4955    .text               mf_w.l(dfixui.o)
    0x080003ec   0x080003ec   0x0000002c   Code   RO         4972    .text               mc_w.l(uidiv.o)
    0x08000418   0x08000418   0x00000062   Code   RO         4974    .text               mc_w.l(uldiv.o)
    0x0800047a   0x0800047a   0x00000020   Code   RO         4976    .text               mc_w.l(llushr.o)
    0x0800049a   0x0800049a   0x00000000   Code   RO         4978    .text               mc_w.l(iusefp.o)
    0x0800049a   0x0800049a   0x000000ba   Code   RO         4979    .text               mf_w.l(depilogue.o)
    0x08000554   0x08000554   0x0000014e   Code   RO         4981    .text               mf_w.l(dadd.o)
    0x080006a2   0x080006a2   0x00000030   Code   RO         4983    .text               mf_w.l(dfixul.o)
    0x080006d2   0x080006d2   0x00000002   PAD
    0x080006d4   0x080006d4   0x00000030   Code   RO         4985    .text               mf_w.l(cdrcmple.o)
    0x08000704   0x08000704   0x00000024   Code   RO         4987    .text               mc_w.l(init.o)
    0x08000728   0x08000728   0x0000001e   Code   RO         4989    .text               mc_w.l(llshl.o)
    0x08000746   0x08000746   0x00000024   Code   RO         4991    .text               mc_w.l(llsshr.o)
    0x0800076a   0x0800076a   0x00000014   Code   RO          405    i.ADC_Cmd           stm32f10x_adc.o
    0x0800077e   0x0800077e   0x00000014   Code   RO          411    i.ADC_ExternalTrigInjectedConvCmd  stm32f10x_adc.o
    0x08000792   0x08000792   0x0000000c   Code   RO          412    i.ADC_ExternalTrigInjectedConvConfig  stm32f10x_adc.o
    0x0800079e   0x0800079e   0x00000012   Code   RO          422    i.ADC_ITConfig      stm32f10x_adc.o
    0x080007b0   0x080007b0   0x00000048   Code   RO          423    i.ADC_Init          stm32f10x_adc.o
    0x080007f8   0x080007f8   0x0000004a   Code   RO          424    i.ADC_InjectedChannelConfig  stm32f10x_adc.o
    0x08000842   0x08000842   0x00000010   Code   RO          426    i.ADC_InjectedSequencerLengthConfig  stm32f10x_adc.o
    0x08000852   0x08000852   0x00000002   PAD
    0x08000854   0x08000854   0x0000001c   Code   RO          434    i.ADC_TempSensorVrefintCmd  stm32f10x_adc.o
    0x08000870   0x08000870   0x00000038   Code   RO         4645    i.BoardInit         board.o
    0x080008a8   0x080008a8   0x00000002   Code   RO          302    i.BusFault_Handler  stm32f10x_it.o
    0x080008aa   0x080008aa   0x00000002   Code   RO          303    i.DebugMon_Handler  stm32f10x_it.o
    0x080008ac   0x080008ac   0x000000a2   Code   RO         1494    i.GPIO_Init         stm32f10x_gpio.o
    0x0800094e   0x0800094e   0x00000004   Code   RO         1502    i.GPIO_SetBits      stm32f10x_gpio.o
    0x08000952   0x08000952   0x00000002   Code   RO          304    i.HardFault_Handler  stm32f10x_it.o
    0x08000954   0x08000954   0x00000002   Code   RO          305    i.MemManage_Handler  stm32f10x_it.o
    0x08000956   0x08000956   0x00000002   Code   RO          306    i.NMI_Handler       stm32f10x_it.o
    0x08000958   0x08000958   0x00000064   Code   RO          363    i.NVIC_Init         misc.o
    0x080009bc   0x080009bc   0x00000014   Code   RO          364    i.NVIC_PriorityGroupConfig  misc.o
    0x080009d0   0x080009d0   0x00000020   Code   RO            1    i.NVIC_SetPriority  main.o
    0x080009f0   0x080009f0   0x00000002   Code   RO          307    i.PendSV_Handler    stm32f10x_it.o
    0x080009f2   0x080009f2   0x00000002   PAD
    0x080009f4   0x080009f4   0x00000014   Code   RO         1911    i.RCC_ADCCLKConfig  stm32f10x_rcc.o
    0x08000a08   0x08000a08   0x00000018   Code   RO         1914    i.RCC_APB1PeriphClockCmd  stm32f10x_rcc.o
    0x08000a20   0x08000a20   0x00000018   Code   RO         1916    i.RCC_APB2PeriphClockCmd  stm32f10x_rcc.o
    0x08000a38   0x08000a38   0x000000c8   Code   RO         1924    i.RCC_GetClocksFreq  stm32f10x_rcc.o
    0x08000b00   0x08000b00   0x00000014   Code   RO         2451    i.SPI_Cmd           stm32f10x_spi.o
    0x08000b14   0x08000b14   0x00000038   Code   RO         2464    i.SPI_Init          stm32f10x_spi.o
    0x08000b4c   0x08000b4c   0x00000002   Code   RO          308    i.SVC_Handler       stm32f10x_it.o
    0x08000b4e   0x08000b4e   0x00000002   PAD
    0x08000b50   0x08000b50   0x000000d0   Code   RO         3374    i.SetSysClockTo72   system_stm32f10x.o
    0x08000c20   0x08000c20   0x00000004   Code   RO            2    i.SysTick_Handler   main.o
    0x08000c24   0x08000c24   0x0000004c   Code   RO         3376    i.SystemInit        system_stm32f10x.o
    0x08000c70   0x08000c70   0x0000002c   Code   RO            3    i.USART1_IRQHandler  main.o
    0x08000c9c   0x08000c9c   0x0000000c   Code   RO         3127    i.USART_ClearITPendingBit  stm32f10x_usart.o
    0x08000ca8   0x08000ca8   0x00000014   Code   RO         3130    i.USART_Cmd         stm32f10x_usart.o
    0x08000cbc   0x08000cbc   0x0000003e   Code   RO         3134    i.USART_GetITStatus  stm32f10x_usart.o
    0x08000cfa   0x08000cfa   0x00000030   Code   RO         3136    i.USART_ITConfig    stm32f10x_usart.o
    0x08000d2a   0x08000d2a   0x00000002   PAD
    0x08000d2c   0x08000d2c   0x000000ac   Code   RO         3137    i.USART_Init        stm32f10x_usart.o
    0x08000dd8   0x08000dd8   0x00000008   Code   RO         3144    i.USART_ReceiveData  stm32f10x_usart.o
    0x08000de0   0x08000de0   0x00000002   Code   RO          309    i.UsageFault_Handler  stm32f10x_it.o
    0x08000de2   0x08000de2   0x00000002   PAD
    0x08000de4   0x08000de4   0x0000007c   Code   RO         4646    i._AdcInit          board.o
    0x08000e60   0x08000e60   0x00000268   Code   RO         4647    i._GpioInit         board.o
    0x080010c8   0x080010c8   0x0000008a   Code   RO         4389    i._HalI2CIOACK      b_hal_i2c.o
    0x08001152   0x08001152   0x000000ba   Code   RO         4390    i._HalI2CIOReadBuff  b_hal_i2c.o
    0x0800120c   0x0800120c   0x0000007e   Code   RO         4391    i._HalI2CIOReadByte  b_hal_i2c.o
    0x0800128a   0x0800128a   0x0000004a   Code   RO         4392    i._HalI2CIOStart    b_hal_i2c.o
    0x080012d4   0x080012d4   0x00000054   Code   RO         4393    i._HalI2CIOStop     b_hal_i2c.o
    0x08001328   0x08001328   0x0000006a   Code   RO         4394    i._HalI2CIOWriteBuff  b_hal_i2c.o
    0x08001392   0x08001392   0x00000064   Code   RO         4395    i._HalI2CIOWriteByte  b_hal_i2c.o
    0x080013f6   0x080013f6   0x00000002   PAD
    0x080013f8   0x080013f8   0x00000090   Code   RO         4648    i._SpiInit          board.o
    0x08001488   0x08001488   0x000000a0   Code   RO         4649    i._UartInit         board.o
    0x08001528   0x08001528   0x00000028   Code   RO         4923    i.__0sprintf        mc_w.l(printfa.o)
    0x08001550   0x08001550   0x0000002c   Code   RO         4926    i.__0vsnprintf      mc_w.l(printfa.o)
    0x0800157c   0x0800157c   0x0000000e   Code   RO         4995    i.__scatterload_copy  mc_w.l(handlers.o)
    0x0800158a   0x0800158a   0x00000002   Code   RO         4996    i.__scatterload_null  mc_w.l(handlers.o)
    0x0800158c   0x0800158c   0x0000000e   Code   RO         4997    i.__scatterload_zeroinit  mc_w.l(handlers.o)
    0x0800159a   0x0800159a   0x00000012   Code   RO         3600    i._b24CXXRead       b_drv_24cxx.o
    0x080015ac   0x080015ac   0x0000007e   Code   RO         3601    i._b24CXXWrite      b_drv_24cxx.o
    0x0800162a   0x0800162a   0x00000002   PAD
    0x0800162c   0x0800162c   0x00000080   Code   RO         3410    i._bCoreCreateFd    b_core.o
    0x080016ac   0x080016ac   0x00000028   Code   RO         3411    i._bCoreDeleteFd    b_core.o
    0x080016d4   0x080016d4   0x00000002   Code   RO         3412    i._bCoreMonitor     b_core.o
    0x080016d6   0x080016d6   0x00000004   Code   RO         3510    i._bDriverNullInit  b_device.o
    0x080016da   0x080016da   0x00000002   PAD
    0x080016dc   0x080016dc   0x0000005c   Code   RO         4154    i._bHalUpdateDelayParam  b_hal.o
    0x08001738   0x08001738   0x0000006c   Code   RO         3774    i._bUtilUartDetectIdle  b_util_uart.o
    0x080017a4   0x080017a4   0x00000184   Code   RO         4928    i._fp_digits        mc_w.l(printfa.o)
    0x08001928   0x08001928   0x000006dc   Code   RO         4929    i._printf_core      mc_w.l(printfa.o)
    0x08002004   0x08002004   0x00000024   Code   RO         4930    i._printf_post_padding  mc_w.l(printfa.o)
    0x08002028   0x08002028   0x0000002e   Code   RO         4931    i._printf_pre_padding  mc_w.l(printfa.o)
    0x08002056   0x08002056   0x00000016   Code   RO         4932    i._snputc           mc_w.l(printfa.o)
    0x0800206c   0x0800206c   0x0000000a   Code   RO         4933    i._sputc            mc_w.l(printfa.o)
    0x08002076   0x08002076   0x00000002   PAD
    0x08002078   0x08002078   0x00000038   Code   RO         3602    i.b24CXX_Init       b_drv_24cxx.o
    0x080020b0   0x080020b0   0x00000034   Code   RO         3413    i.bClose            b_core.o
    0x080020e4   0x080020e4   0x00000094   Code   RO         3511    i.bDeviceClose      b_device.o
    0x08002178   0x08002178   0x00000190   Code   RO         3514    i.bDeviceInit       b_device.o
    0x08002308   0x08002308   0x00000094   Code   RO         3516    i.bDeviceOpen       b_device.o
    0x0800239c   0x0800239c   0x0000009c   Code   RO         3517    i.bDeviceRead       b_device.o
    0x08002438   0x08002438   0x000000a0   Code   RO         3520    i.bDeviceWrite      b_device.o
    0x080024d8   0x080024d8   0x00000020   Code   RO         3416    i.bExec             b_core.o
    0x080024f8   0x080024f8   0x00000014   Code   RO         4155    i.bHalDelayMs       b_hal.o
    0x0800250c   0x0800250c   0x0000001c   Code   RO         4156    i.bHalDelayUs       b_hal.o
    0x08002528   0x08002528   0x0000000c   Code   RO         4157    i.bHalGetSysTick    b_hal.o
    0x08002534   0x08002534   0x00000008   Code   RO         4310    i.bHalGpioConfig    b_hal_gpio.o
    0x0800253c   0x0800253c   0x00000008   Code   RO         4312    i.bHalGpioReadPin   b_hal_gpio.o
    0x08002544   0x08002544   0x00000008   Code   RO         4314    i.bHalGpioWritePin  b_hal_gpio.o
    0x0800254c   0x0800254c   0x0000003c   Code   RO         4396    i.bHalI2CMemRead    b_hal_i2c.o
    0x08002588   0x08002588   0x0000003c   Code   RO         4397    i.bHalI2CMemWrite   b_hal_i2c.o
    0x080025c4   0x080025c4   0x00000010   Code   RO         4158    i.bHalIncSysTick    b_hal.o
    0x080025d4   0x080025d4   0x0000000c   Code   RO         4159    i.bHalInit          b_hal.o
    0x080025e0   0x080025e0   0x00000008   Code   RO         4572    i.bHalUartSend      b_hal_uart.o
    0x080025e8   0x080025e8   0x00000002   Code   RO         4160    i.bHalUserInit      b_hal.o
    0x080025ea   0x080025ea   0x00000002   PAD
    0x080025ec   0x080025ec   0x00000308   Code   RO         3417    i.bInit             b_core.o
    0x080028f4   0x080028f4   0x000000c8   Code   RO         3866    i.bLogOut           b_util_log.o
    0x080029bc   0x080029bc   0x00000016   Code   RO         3867    i.bLogOutput        b_util_log.o
    0x080029d2   0x080029d2   0x00000002   PAD
    0x080029d4   0x080029d4   0x00000024   Code   RO         3418    i.bLseek            b_core.o
    0x080029f8   0x080029f8   0x0000007c   Code   RO         4003    i.bMcuGpioConfig    mcu_stm32f10x_gpio.o
    0x08002a74   0x08002a74   0x00000028   Code   RO         4004    i.bMcuGpioReadPin   mcu_stm32f10x_gpio.o
    0x08002a9c   0x08002a9c   0x00000024   Code   RO         4006    i.bMcuGpioWritePin  mcu_stm32f10x_gpio.o
    0x08002ac0   0x08002ac0   0x00000006   Code   RO         4042    i.bMcuI2CMemRead    mcu_stm32f10x_i2c.o
    0x08002ac6   0x08002ac6   0x00000006   Code   RO         4043    i.bMcuI2CMemWrite   mcu_stm32f10x_i2c.o
    0x08002acc   0x08002acc   0x00000048   Code   RO         4132    i.bMcuUartSend      mcu_stm32f10x_uart.o
    0x08002b14   0x08002b14   0x00000038   Code   RO         3420    i.bOpen             b_core.o
    0x08002b4c   0x08002b4c   0x00000048   Code   RO         3421    i.bRead             b_core.o
    0x08002b94   0x08002b94   0x0000004c   Code   RO         3423    i.bWrite            b_core.o
    0x08002be0   0x08002be0   0x000000bc   Code   RO            4    i.main              main.o
    0x08002c9c   0x08002c9c   0x00000005   Data   RO            5    .constdata          main.o
    0x08002ca1   0x08002ca1   0x00000006   Data   RO         3425    .constdata          b_core.o
    0x08002ca7   0x08002ca7   0x00000059   Data   RO         3524    .constdata          b_device.o
    0x08002d00   0x08002d00   0x00000006   Data   RO         3603    .constdata          b_drv_24cxx.o
    0x08002d06   0x08002d06   0x00000006   Data   RO         3870    .constdata          b_util_log.o
    0x08002d0c   0x08002d0c   0x0000000e   Data   RO         3525    .conststring        b_device.o
    0x08002d1a   0x08002d1a   0x00000002   PAD
    0x08002d1c   0x08002d1c   0x00000020   Data   RO         4993    Region$$Table       anon$$obj.o
    0x08002d3c   0x08002d3c   0x00000004   Data   RO         3427    bos_polling         b_core.o
    0x08002d40   0x08002d40   0x00000004   Data   RO         3783    bos_polling         b_util_uart.o
    0x08002d44   0x08002d44   0x00000008   Data   RO         3527    driver_init         b_device.o
    0x08002d4c   0x08002d4c   0x00000008   Data   RO         3604    driver_init         b_drv_24cxx.o
    0x08002d54   0x08002d54   0x00000008   Data   RO         3528    driver_init_0       b_device.o


    Execution Region RW_IRAM1 (Exec base: 0x20000000, Load base: 0x08002d5c, Size: 0x00000a10, Max: 0x00010000, ABSOLUTE)

    Exec Addr    Load Addr    Size         Type   Attr      Idx    E Section Name        Object

    0x20000000   0x08002d5c   0x00000014   Data   RW         1952    .data               stm32f10x_rcc.o
    0x20000014   0x08002d70   0x00000014   Data   RW         3377    .data               system_stm32f10x.o
    0x20000028   0x08002d84   0x00000001   Data   RW         3426    .data               b_core.o
    0x20000029   0x08002d85   0x00000003   PAD
    0x2000002c   0x08002d88   0x0000000c   Data   RW         3526    .data               b_device.o
    0x20000038   0x08002d94   0x00000014   Data   RW         4133    .data               mcu_stm32f10x_uart.o
    0x2000004c   0x08002da8   0x00000008   Data   RW         4161    .data               b_hal.o
    0x20000054        -       0x00000018   Zero   RW         3424    .bss                b_core.o
    0x2000006c        -       0x00000058   Zero   RW         3522    .bss                b_device.o
    0x200000c4        -       0x00000048   Zero   RW         3781    .bss                b_util_uart.o
    0x2000010c        -       0x00000100   Zero   RW         3869    .bss                b_util_log.o
    0x2000020c   0x08002db0   0x00000004   PAD
    0x20000210        -       0x00000800   Zero   RW         3403    STACK               startup_stm32f10x_cl.o


==============================================================================

Image component sizes


      Code (inc. data)   RO Data    RW Data    ZI Data      Debug   Object Name

      1270        588         10          1         24       7221   b_core.o
      1016        386        119         12         88       7360   b_device.o
       200         12         14          0          0       3108   b_drv_24cxx.o
       182         38          0          8          0       4016   b_hal.o
        24          0          0          0          0       1782   b_hal_gpio.o
       934          0          0          0          0       6979   b_hal_i2c.o
         8          0          0          0          0        955   b_hal_uart.o
       222         14          6          0        256       2979   b_util_log.o
       108          6          4          0         72       2426   b_util_uart.o
      1100         42          0          0          0       3488   board.o
         0          0          0          0          0         32   core_cm3.o
       268         38          5          0          0     296400   main.o
       200         12          0          0          0       5150   mcu_stm32f10x_gpio.o
        12          0          0          0          0       2211   mcu_stm32f10x_i2c.o
        72          4          0         20          0       2831   mcu_stm32f10x_uart.o
       120         16          0          0          0       1687   misc.o
        36          8        336          0       2048        916   startup_stm32f10x_cl.o
       260         16          0          0          0       7478   stm32f10x_adc.o
       166          0          0          0          0       2583   stm32f10x_gpio.o
        16          0          0          0          0       3276   stm32f10x_it.o
       268         40          0         20          0       6193   stm32f10x_rcc.o
        76          0          0          0          0       2333   stm32f10x_spi.o
       322          6          0          0          0       6024   stm32f10x_usart.o
       284         30          0         20          0       2165   system_stm32f10x.o

    ----------------------------------------------------------------------
      7184       1256        528         84       2492     379593   Object Totals
         0          0         32          0          0          0   (incl. Generated)
        20          0          2          3          4          0   (incl. Padding)

    ----------------------------------------------------------------------

      Code (inc. data)   RO Data    RW Data    ZI Data      Debug   Library Member Name

         0          0          0          0          0          0   entry.o
         0          0          0          0          0          0   entry10a.o
         0          0          0          0          0          0   entry11a.o
         8          4          0          0          0          0   entry2.o
         4          0          0          0          0          0   entry5.o
         0          0          0          0          0          0   entry7b.o
         0          0          0          0          0          0   entry8b.o
         8          4          0          0          0          0   entry9a.o
        30          0          0          0          0          0   handlers.o
        36          8          0          0          0         68   init.o
         0          0          0          0          0          0   iusefp.o
        30          0          0          0          0         68   llshl.o
        36          0          0          0          0         68   llsshr.o
        32          0          0          0          0         68   llushr.o
        36          0          0          0          0         68   memcpya.o
        36          0          0          0          0        108   memseta.o
      2342         90          0          0          0        668   printfa.o
        14          0          0          0          0         68   strlen.o
        44          0          0          0          0         80   uidiv.o
        98          0          0          0          0         92   uldiv.o
        48          0          0          0          0         68   cdrcmple.o
       334          0          0          0          0        148   dadd.o
       222          0          0          0          0        100   ddiv.o
       186          0          0          0          0        176   depilogue.o
        50          0          0          0          0         76   dfixui.o
        48          0          0          0          0         68   dfixul.o
        26          0          0          0          0         76   dfltui.o
       228          0          0          0          0         96   dmul.o

    ----------------------------------------------------------------------
      3900        106          0          0          0       2164   Library Totals
         4          0          0          0          0          0   (incl. Padding)

    ----------------------------------------------------------------------

      Code (inc. data)   RO Data    RW Data    ZI Data      Debug   Library Name

      2754        106          0          0          0       1356   mc_w.l
      1142          0          0          0          0        808   mf_w.l

    ----------------------------------------------------------------------
      3900        106          0          0          0       2164   Library Totals

    ----------------------------------------------------------------------

==============================================================================


      Code (inc. data)   RO Data    RW Data    ZI Data      Debug   

     11084       1362        528         84       2492     376241   Grand Totals
     11084       1362        528         84       2492     376241   ELF Image Totals
     11084       1362        528         84          0          0   ROM Totals

==============================================================================

    Total RO  Size (Code + RO Data)                11612 (  11.34kB)
    Total RW  Size (RW Data + ZI Data)              2576 (   2.52kB)
    Total ROM Size (Code + RO Data + RW Data)      11696 (  11.42kB)

==============================================================================

